:100000000C9465070C948D070C948D070C948D0748
:100010000C948D070C948D070C948D070C94CC21B7
:100020000C948D070C948D070C948D070C948D0700
:100030000C948D070C948D070C948D070C948D07F0
:100040000C94FC1A0C948D070C94181E0C944A1EE8
:100050000C948D070C948D070C948D070C948D07D0
:100060000C94FD170C948D07486F6D65000000001F
:100070000000000000000000000000004D757369E2
:10008000633A4F4E00000000000000000000000036
:100090004D757369633A4F4646000000000000004A
:1000A00000000000456173790000000000000000BE
:1000B00000000000000000004E6F726E616C0000D6
:1000C00000000000000000000000000048617264B1
:1000D0000000000000000000000000000000000020
:1000E0004E616D653A4730320000000000000000AC
:1000F00000000000456E7465720000000000000002
:1001000000000000000000004F7074696F6E730003
:1001100000000000000000000000000053636F7248
:10012000650000000000000000000000000000006A
:1001300041626F75740000000000000000000000C4
:1001400000000000B0045802E803FFFF00000000B8
:10015000000000000000000040062003A406FFFF8E
:10016000000000000000000000000000BF000303CA
:1001700004040405050C11FFFD0AFD0BFE01C60376
:10018000FF0CDB20050018352108B20B351E440496
:100190002208566A35443C09231BC9F8B424428915
:1001A000502294880E228950223A88244289502273
:1001B0009488002411D7F9F4A4B2438C3AAD4E6967
:1001C000879854062512B8097568226D74C888345A
:1001D00087D044DA280026109709B566129158385E
:1001E000A198242291012707526C350E03280DD4C3
:1001F000EBB4242215916E223501290ED4EA346421
:100200002235912E221511002A0D6859F5C4B243EA
:1002100088481349002B0C8819F5C46A87834CACB5
:10022000062C0953DB342C9410002D062749351E6B
:100230002E06230B350C2F10E7E97415A58A52A161
:1002400054512A944A01300FB809B568222D421E34
:1002500025226D2400310CB809F584348958BF1D5E
:1002600002320DB70975482A41A9A2DE0E02330FEA
:10027000B70975482A41B5B1EA902422013412B871
:100280000975A5439A44A41493C82487A8585835DF
:100290000FB709350E52558B4CAA4A92940036126C
:1002A000B809F5485365C9682411324A443212002E
:1002B000370FB709350E32A9502A942A4AD500388B
:1002C00012B709B5661235492C3693A8B149D44600
:1002D000003912B809B5682289902811AD8855A552
:1002E000231A003A08730B35EC20033B0AA3DB34D6
:1002F000EC200B25043C119909F501521AE31C402E
:1003000007D0017480003D0B5928351EE8A0C38139
:10031000003E11990835E4003A800EA00386345659
:1003200039003F0FA709752A329A543693CAA16A39
:10033000004018C9F8B46A2A52CA8A28A214518AFD
:10034000284526153944262B014115AA08B5E81081
:1003500039801C8A8A8422A14D28124A48044213FB
:10036000A908356E4A42894C6453124A841299E4B2
:10037000044316A908F52891D1444807C8017280A2
:100380001C22948C6624004416A908358CA2914C3A
:10039000249408254289502213892636004513A843
:1003A00009350E1199442C8AD54431B14C223B0CAD
:1003B0004612A809350E1199442C8AD54431B16AE8
:1003C0000D004715AA08F528A125A1440E91436404
:1003D000579150341396004815A9083528149948A8
:1003E0002692894E32914C2413C9240C490BA8093A
:1003F000350E31B17E3B044A15A908B5AE72801C9A
:100400002007C8012299482692C96A004B13A908FF
:1004100035281499484D22A4164532914CA5324CEA
:1004200015A90835AC72801C2007C80172804C24C5
:1004300013C90E044D15AA08358613A168A74348B1
:10044000A22451128A841212014E18AA0835289546
:100450009988A41252519228892222114936A94C16
:10046000004F11A908B56A4A328994AB442692C953
:100470004A005013A908356E4A4289502213D9E424
:100480000039406C035114C9E8B46A4A328994AB0C
:10049000442692C9AA229105005213A908358C223C
:1004A00099924CA45614C9946492CA005310A80996
:1004B000B5281151B1CC5C2C49222400540DA80957
:1004C000350E223DC5C43A5A005517AA08354814BE
:1004D000A14828128A8422A1482812CA44521A002C
:1004E0005616AA08354814A1482813094542919484
:1004F0004C07C82142005717AA08354814A148A242
:10050000245192A81945429150241489005816AAE2
:1005100008354814A14C24A503E41039802A920917
:100520002524025916AA08354814A14C241449E977
:100530000039440E9143C426005A0FA709350E32E4
:100540009270A83814D10E025B09D4EB344CFA4FE8
:10055000045C10E7E934A462A9B2543A55968AA51E
:10056000025D09D4EA3448FA4F065E0A4879F5A4D8
:10057000349144285F072AD8341E0C6007348A352A
:10058000640A610F7809B56822B1C82293C844147F
:10059000016218B90835E60039400E900324B39182
:1005A000A24428114A46922500630F7808B5281105
:1005B00051912C07C84415006418B90875E7003933
:1005C000400E904D44A2895022940845A2D964005F
:1005D000650F7809B5682289F05007C84415006690
:1005E0000EB809F5682265E14DACE305006717A96F
:1005F000D8B42613D14428114A8422D16C2207C8CA
:1006000001B212006817B90835E60039400E9003B0
:1006100024B3919A48269289641206690CA809F5B8
:10062000C47228596F87006A0CD6D9F4847280513D
:100630003F5E006B18B90835E60039400E90032480
:1006400015914C22A44A8422D1A4006C0AB80975E1
:10065000C8FAB743006D137A0835264A8790444993
:10066000A2245192A84C24036E1079083526B39128
:100670009A482692896412066F0E7809B568228915
:100680009051229291007014A9D83426B391A244BB
:1006900028114A462A3339405C047116A9D8B42679
:1006A00013D14428114A8422D16C2207C801D202F6
:1006B000721079083528B3913A400E9003A42700B0
:1006C000730B7709750EB16ADB210274149908B5B2
:1006D000E400E9212607C80172801C2093550075AB
:1006E00011790835462399482692896422D16C32C3
:1006F00076117A08354814A14C241449C974801025
:100700000077127A08354814A148A21691048D2268
:10071000A14804780F7809354613918C2AA58924BD
:10072000A3017915AAD8344814A14C241449C974DA
:10073000801C2087888B007A0B7709350E22A16EEA
:1007400007017B0DD4EBB424224D21994837017C5D
:1007500007D2EC343E147D0ED4EB3464226D318923
:10076000481711007E0A3839758612C50900A005A0
:10077000001835A108A2DC34488703A210A709F5A8
:10078000A4C28A882A168988521100A310A809F5E4
:10079000682265A1C92816D50E1200A40E78193555
:1007A0008412935230A464110AA512AA0835481481
:1007B000A14C241449A966B1596C02A609D2EC34A3
:1007C0000EA54301A714CAF8F46C3A514533E16809
:1007D000281B4949326D3600A808258B35241401A1
:1007E000A916AA0835C536A1283489A8516492D023
:1007F000242494998500AA0A763A75A89293A46C49
:10080000AB0D7908F544FA512414094502AC085897
:1008100029351EC41AAD062749351EAE18AA08355B
:10082000C536A128328A482212CA4892140909659D
:10083000662100AF06159A350AB00B556A752692E7
:10084000D9443201B10F9809F5C4B2C341269603C9
:100850000F0701B209655A75264A9A0CB30B655AFF
:1008600075264A428A6402B408348BB5244A00B51E
:1008700017A9D834462399482692896422D1883210
:100880009103E4003100B615C9F8B42E11FD4F11E3
:10089000B58950229408254289EC00B706234B35D0
:1008A0000CB80844DBB4423203B909665AB5444473
:1008B0004D06BA0B763A75282226091D60BB0E79C3
:1008C0000835444291502414E93700BC19BA08B5E0
:1008D000E280614C5B5024330545C2D04C2209496B
:1008E0002C510900BD19BA08B5E28069482892293F
:1008F000C90ED248442692896422512456BE1DBB9B
:100900000875E600892C28934A64124974228A8A61
:10091000A4A1A144129398A21200BF0FA7D9F4A4D6
:1009200072A8DA4C2AA3492A00C01AEA08B5E420C2
:1009300039488E4487C801E450542414096D42910B
:10094000504222C11AEA0875E50039408E4687C830
:1009500001E450542414096D4291504222C21AEA13
:100960000835E500AA488E4087C801E45054241495
:10097000096D4291504222C319DA08B52632C91CCA
:10098000850E9103C8A1A8482812DA8422A18444C4
:10099000C419DA08B52452891C850E9103C8A1A890
:1009A000482812DA8422A18444C51AEA08F5C6123E
:1009B000A9443CA643E40072282A128A8436A1483E
:1009C000282111C618AA08750E229228228E486284
:1009D000125A4812AB864424D1A100C719D9D8F4C1
:1009E0002891D1444807C80172801C22948C665417
:1009F00039444A03C818E809B5E40039400E3B44BD
:100A00006412B1285613C5C43289EC30C915E809FF
:100A100075B5030F1199442C8AD54431B14C223B52
:100A20000CCA18E809F5A434911C7488C8246251D2
:100A3000AC268A896512D96100CB18D809B5243251
:100A4000891C7488C8246251AC268A896512D961D0
:100A500000CC10E809B5E40039400E3BC4C4FAEDFF
:100A600010CD0EE80935A5EAD0434CACDF0E01CE1F
:100A700010E809F5A434911C748889F5DB2100CFB6
:100A800010D809B52432891C748889F5DB2100D07F
:100A900015A908358CA2914C243C498412A1442606
:100AA000124D6C00D11CDA08B52632C91C4CA9CCF9
:100AB000442495908A92444914118948B2496502A8
:100AC000D216E908B5E41039448E50539249A45C1B
:100AD0002532914C5602D314E90875C5EA2835250C
:100AE0009944CA552213C9642500D415E90835C5AF
:100AF00044911C5A539249A45C2532914C5602D51C
:100B000015D908B52622C91C5C539249A45C25322C
:100B1000914C5602D615D908B52442891C5C5392D3
:100B200049A45C2532914C5602D70F78193566924C
:100B3000898C2AA54926B201D819C9F8F421A18BBC
:100B40004C249AC822240945448949466A92531C78
:100B500002D91CEA08B5E42039488E40A208454273
:100B60009150241409454291502692D200DA1CEA91
:100B700008B5E50039408E40A20845429150241442
:100B800009454291502692D200DB1CEA0835E50067
:100B9000AA480E25518422A14828128A8422A148FD
:100BA0002813496900DC1BDA08F52452891C4AA283
:100BB0000845429150241409454291502692D20092
:100BC000DD1BEA08B5E50039408E40A2086522A188
:100BD000484A07C82172881C223601DE12A908354E
:100BE000C872804D492891896C7280980ADF15B8C7
:100BF00008B568229D621299484D2293C82494C872
:100C00004404E014B809B5E40039400EA589C422B3
:100C10008B4C22135104E111B80975B5836922B1D7
:100C2000C82293C8441401E213B809F5A434911CF6
:100C30004813894516994426A208E312A809B52647
:100C40002A73204D2416596412998822E413A809A6
:100C5000B52432891C4813894516994426A208E513
:100C600015C809F5861299443887D2446291452601
:100C700091892802E6127A07B52623894828921C12
:100C8000484291CA8402E711A8D9B4281151912C85
:100C90009E498C72809004E814B809B5E40039408C
:100CA0000EA58924C2431D20135500E911B809750A
:100CB000B583692289F05007C8441500EA13B809C2
:100CC000F5A434911C48134984873A4026AA00EBC6
:100CD00013A809B52432891C48134984873A402651
:100CE000AA00EC0EB80975E40039400E25EBED10B2
:100CF000ED0BB80975B543C97A3B04EE0EB809F59A
:100D0000A434911C46D6DB2100EF0DA80975D4242C
:100D10007220596F8700F014C80935C613E190247A
:100D200093954436225122929100F114A908B526D8
:100D300022C91C38998DD44432914C249330F2133B
:100D4000B809B5E40039400EA589244246894846D1
:100D500002F311B80935A5EA08349144C82811C92D
:100D60004800F412B809F5A434911C481349848C46
:100D700012918C04F512A809B5262A73204D24116E
:100D8000324A44321200F612A80975D42472284D52
:100D90002411324A44321200F70E8819F5C472E069
:100DA000E120078A6500F81198F9B445169144646A
:100DB0009198242289490CF917B908B5E4103944EF
:100DC0000E1D8D6422994826928944B3C900FA14F5
:100DD000B90835C5EA08A3914C2413C94432916877
:100DE0003619FB16B908F5C444911C381AC94432A7
:100DF000914C241389669301FC16A908B5244289F5
:100E00001C381AC94432914C241389669301FD1A87
:100E1000EAD874E50039408E42A2086522A1484A0A
:100E2000A603E40039445C04FE1BE9D834E600392B
:100E3000400E900324B391A24428114A462A333924
:100E4000405C04FF19DAD8B42452891C4CA208650E
:100E500022A1484AA603E41039405C0400000004C3
:100E6000FFFF00000000000800020100000304076B
:100E70000000000000000000010204081020408073
:100E800001020408102001020408102004040404D4
:100E90000404040402020202020203030303030324
:100EA00000000000230026002900000000002500AB
:100EB00028002B0000000000240027002A00020068
:100EC0006E0AD017DA1A7A1E030B11241FBECFEF59
:100ED000D8E0DEBFCDBF12E0A0E0B1E0E6E9F7E484
:100EE00002C005900D92A036B107D9F725E0A0E623
:100EF000B2E001C01D92AA38B207E1F71EE0C8ECCB
:100F0000DEE004C02297FE010E947622C03CD10799
:100F1000C9F70E94BE1E0C94BE230C940000CF9211
:100F2000DF92EF92FF920F931F93CF93DF936C01A9
:100F30007A01EB01E60EF71E00E010E0CE15DF05AA
:100F400061F06991D601ED91FC910190F081E02D65
:100F5000C6010995080F191FF1CFC801DF91CF9184
:100F60001F910F91FF90EF90DF90CF90089508951B
:100F70000895089508950895089508950F931F936F
:100F8000CF93DF93EC018C010C5F1F4FFC01E05805
:100F9000FF4F0190F081E02DC80109958E3F2FEFA2
:100FA000920780F4FE01ED57FF4FCE57DF4F9C01B3
:100FB00040816881C8010E94BE10288190E0820FA4
:100FC000911D888381E090E0DF91CF911F910F9177
:100FD00008956FEF82E692E00C94080C61E082E6DF
:100FE00092E00C94080C82E692E00E943D0CE82FFF
:100FF000F0E0EE0FFF1FEC5EFE4F0190F081E02D60
:10100000099482E692E00E943D0CE82FF0E0EE0F9A
:10101000FF1FE85FFE4F0190F081E02D099461E031
:1010200070E082E692E00C94440C60E070E082E6AE
:1010300092E00C94440C82E692E00E94180B8AE83D
:1010400092E00E94790C81EB92E00C94C20CEF923A
:10105000FF920F931F93CF93DF93EC01EF85F889F5
:1010600084858587E12CF12C8D899E89E816F90607
:10107000BCF4EF85F889EE0DFF1D80810E94F51B01
:1010800020910601309107012817390734F540C037
:10109000EF85F889DF01AE0DBF1D16968C91848710
:1010A000EF85F88985859485891302C0868701C0FC
:1010B00016868F8D811103C080E090E030C01F8EB6
:1010C0000E94461B6F8B788F898F9A8FEF85F889E6
:1010D0008685882389F390E022C08F8D811118C006
:1010E0000E94461B0F89188D298D3A8D601B710B4C
:1010F000820B930B653671058105910548F281E0FD
:101100008F8F0E94461B6F8B788F898F9A8FD1CFDC
:10111000EF85F88914868FEFE81AF80AA5CFDF91DA
:10112000CF911F910F91FF90EF90089548EB5BE0F6
:1011300060E070E083E894E00E94231A20E835E242
:1011400040E050E064ED74E083E894E00E94371AD8
:1011500061E083E894E00E94ED198823A1F068E340
:1011600071E08091C5049091C6040E940D1F4AE071
:1011700050E060E070E083E894E00E94511983E859
:1011800094E00E94221A41E060E083E894E00E942B
:10119000BE1A26E040E855E260E070E084ED94E09D
:1011A0000E94B61D28EC30E040E050E060E070E0C6
:1011B0008AE892E00E947E0C64E181EB92E00E945A
:1011C000C30C8BEB92E00E942F168BEB92E00E94F7
:1011D000200E60E08BEB92E00E94391625E030E0B3
:1011E00040E050E060EE70E082E692E00E94B10BD9
:1011F00026E030E041E050E068E670E082E692E010
:101200000C94B10B8230910551F08530910519F0A5
:10121000019719F0089582E003C080E001C081E0E9
:1012200090E00895CF92DF92EF92FF920F931F9379
:10123000CF93DF930E94461B672B682B692B39F4F1
:101240000E94461B6230710581059105B0F183E86B
:1012500094E00E94541960933B0370933C03809385
:101260003D0390933E0300913F0310914003209172
:10127000410330914203601771078207930740F4DE
:1012800060933F0370934003809341039093420324
:1012900000913F031091400320914103309142039C
:1012A0006B017C01C01AD10AE20AF30A9701860198
:1012B0000A3F11052105310558F581E992E00E94A8
:1012C00027088C010197029720F00530110509F0DD
:1012D00064C082E692E00E94400CEC01C8010E94CA
:1012E0000209FE01EE0FFF1FEC0FFD1FE80FF91FB3
:1012F000EE0FFF1FE25EFE4F0190F081E02DDF91C7
:10130000CF911F910F91FF90EF90DF90CF900994B4
:1013100060933F0370934003809341039093420393
:1013200044EF51E060E070E083E894E00E945619D9
:1013300061E083E894E00E94ED19882309F161E0FF
:1013400083E894E00E9472196AE471E08091C50418
:101350009091C6040E940D1F0E94461BAB01BC0168
:101360002AE030E08091C5049091C6040E94741F69
:1013700083E894E00E94D81983E894E00E94221A3E
:1013800045E050E060E070E083E894E00E9451198D
:1013900083E894E00E94E11990CFDF91CF911F91F3
:1013A0000F91FF90EF90DF90CF900895DC01ED91C9
:1013B000FC91208131812115310519F481E090E003
:1013C00007C08091FD0290E088978217930710F480
:1013D00091838083228133812115310519F481E0C5
:1013E00090E007C08091FE0290E008978217930773
:1013F00010F4938382836130710589F034F4672B94
:10140000C9F48281938101970DC06230710569F042
:101410006330710579F480819181019609C08281E0
:10142000938101969383828305C080819181019786
:1014300091838083868197810C94AF1B109239032E
:1014400010923A038BEB92E00E94A1138BEB92E097
:101450000E94200E8BEB92E00E94B60DE09160029C
:10146000F091610285E090E09783868360E08BEBEA
:1014700092E00C9439160E941E0A81E992E00E94C3
:1014800027088230910581F034F481309105B1F460
:1014900060E070E00EC08330910549F08430910522
:1014A00069F463E070E005C061E070E002C062E0F2
:1014B00070E080E692E00E94D60908C0069731F4F9
:1014C00060E070E082E692E00C94440C60E08BEB0C
:1014D00092E00E943916D1CF0C943B0A0F931F93D0
:1014E000CF93DF931092BA021092B90280E591E097
:1014F0009093B8028093B70287E993E19093380301
:10150000809337031092390310923A038BEB92E0E9
:101510000E94A11388E591E09093B8028093B702EE
:1015200026EC3CE04AE45DE06CE571E08BEB92E098
:101530000E94360E2FEF42E163E18BEB92E00E94B6
:101540004C0D6BE081EB92E00E94BC0C81E992E0D3
:101550009093A1028093A00286E090E09093A7026E
:101560008093A6020AE211E0C0E0D0E08091A602DA
:101570009091A702E091A002F091A102C817D907AB
:10158000BCF4D8018C910E5F1F4FEC0FFD1F8083C0
:10159000A091A002B091A102AC0FBD1F8C2F8F5F54
:1015A00016968C9360E080810E943B1C2196DECFD2
:1015B0001486158616860E94461B6093A8027093B7
:1015C000A9028093AA029093AB021092B00267E046
:1015D0008AE892E00E94720C67EB72E082E692E089
:1015E0000E94050BE0916002F09161028AE090E0B8
:1015F000918380839383828315821482DF91CF91BC
:101600001F910F9108950C941B08FC011382128204
:10161000718360838CE090E095A384A3DB01AA5BD7
:10162000BF4F8C9190E097A386A3108611860895F2
:101630000895AF92BF92CF92DF92EF92FF920F93F5
:101640001F93CF93DF93EC018881998104960E94C8
:10165000DD0D6E0180E1C80ED11C85E0B82E8881B9
:1016600099816CE671E004960E946411498547FFF8
:1016700002C0198613C06F81862F90E0552747FD61
:1016800050959C0125503109421753073CF00597AE
:101690001CF08BEF860F01C080E0898788859985D3
:1016A000890F8A87E12CF12C2F81822F90E0E81698
:1016B000F9060CF044C0AE2C89858E0D821708F017
:1016C0003EC06C817D8194E1899F600D711D112464
:1016D000C6010E94B0238885992787FD90958E15B5
:1016E0009F05B1F40CA11DA1C8010196E89EA001BF
:1016F000E99E500DF89E500D112457FF02C040E0A6
:1017000050E0888199812EA160E004960E94510DDD
:101710008CA1A89EA00C1124A394A39488819981E4
:10172000FC01EE57FF4FB0823196A082B60188814E
:1017300099810E940D1F8FEFE81AF80AB5CF8881B2
:10174000998104960E94EF0D811189CFDF91CF918D
:101750001F910F91FF90EF90DF90CF90BF90AF90CF
:101760000895BF92CF92DF92EF92FF920F931F9353
:10177000CF93DF93EC016B017A01B22E8E81811140
:101780001EC087E090E00E94CD1EFC019B838A83EF
:10179000D482C382F182E082B282EA81FB81168226
:1017A0001582808191819C878B8782818F83838141
:1017B00094819D838C83CE010E94190B1CC00A81E9
:1017C0001B8187E090E00E94CD1EFC01D482C38281
:1017D000F182E082B28216821582D80115968D912F
:1017E0009C911697009711F08C01F7CFD8011696AF
:1017F000FC93EE9315978E818F5F8E83DF91CF914F
:101800001F910F91FF90EF90DF90CF90BF900895C0
:101810000F931F93CF93DF93EC018885860F9985F3
:1018200087FF02C0188606C0853014F4888707C079
:1018300084E08887690F6987CE010E94190B68854B
:101840008985860F8A870CA11DA198012F5F3F4FC4
:101850006203A001639F500D112457FF02C040E0B6
:1018600050E0888199812EA160E004960E94510D7C
:10187000DF91CF911F910F910895FC01828508950A
:10188000FC018385948508950F931F93CF93DF9375
:10189000EC010A811B8101151105F9F0F801808125
:1018A000918186179707A9F482818F838381948120
:1018B0009D838C8318861986CE010E94190B8B8517
:1018C0009C859E878D87F801808191819C878B877D
:1018D00004C0F80105811681DECFDF91CF911F9101
:1018E0000F910895FC0160832AE030E03683258360
:1018F00008950895FC0180810C94B721BF92CF9286
:10190000DF92EF92FF920F931F93CF93DF93EC013F
:1019100069017A01B12C8AE0869F8001879F100DB2
:101920001124EB2DF0E08D819E81E817F907D4F4A6
:10193000E00FF11FEE0FFF1FEC5BFE4F65917491FE
:10194000161617067CF420E030E0A90188810E9479
:10195000881FC701B6010E94751BCE010E947A0C38
:10196000B394DFCFDF91CF911F910F91FF90EF9054
:10197000DF90CF90BF900895FC01862F608361E0D7
:101980000C943B1C0895FC0161830895EF92FF9233
:101990000F931F93CF93DF931F92CDB7DEB77C01D8
:1019A000862F642F8C3270F48A3208F068C0883237
:1019B00089F0893209F043C070E080E090E00E9435
:1019C000751B5DC08D32D9F0D0F194EB980F923039
:1019D00000F135C000E010E0F701E00FF11F878D46
:1019E0008F3F39F0003110F461E001C062E00E94E5
:1019F0003B1C0F5F1F4F0631110571F740C043308C
:101A000018F485E090E002C082E090E00E94AF1BF5
:101A100036C08F7341110BC0E80EF11C61E0F70175
:101A2000878D0E943B1C60E0F701878D17C0F7018E
:101A3000E80FF11D62E0878D0E943B1C20C08034BE
:101A400000F1982F9F73292F30E0F701E20FF31F69
:101A5000878D8F3FA1F0203131051CF40E94741C4A
:101A60000EC0903121F489830E94FB1A89810E9463
:101A7000AA1C21E0892B09F420E0F701228F81E0E4
:101A800001C080E00F90DF91CF911F910F91FF90E7
:101A9000EF9008950C944314FC0163A744A722A778
:101AA0000895DF92EF92FF920F931F93CF93DF93EE
:101AB000EC01E62E142FD22EF02EF40E262F2D0D33
:101AC0000F2D0E940512882359F01F1549F000E0E0
:101AD0002D2D412F6E2DCE010E948B111F5FF5CF52
:101AE000DF91CF911F910F91FF90EF90DF900895BC
:101AF000BF92CF92DF92EF92FF920F931F93CF93FB
:101B0000DF93EC01CBACDCACE881F981B188E12C4E
:101B1000F12CE881F981208909AD1AAD88E0289F70
:101B2000A00111244E9DC0014F9D900D5E9D900D12
:101B30001124080F191F4D2D4E0D60E0CE010E949B
:101B4000021681E08E0D8C1538F48FEFE81AF80A32
:101B50008D2D8E0D8B15E8F2DF91CF911F910F9196
:101B6000FF90EF90DF90CF90BF900895FC01A0818F
:101B7000B18150964C9183AD489FA001112483E020
:101B8000440F551F8A95E1F760E070E081AD92AD9A
:101B90000C94B723CF93DF93EC016CAFEFA9F8ADB2
:101BA0000190F081E02D0995EFA9F8AD0280F38155
:101BB000E02DCE01DF91CF910994CF93DF93EC011B
:101BC000FC01E558FF4F8081882319F0CE010E9467
:101BD000B60D60E0CE01DF91CF910C94CA0D0F934A
:101BE0001F93CF93DF931F92CDB7DEB78C010E9476
:101BF000780DD801DC966C91DC97DB968C91DB97A5
:101C0000680FED91FC918189681728F0C8010E9446
:101C1000431680E00FC0F801E558FF4F808188230C
:101C200029F0C80169830E94B60D6981C8010E942C
:101C3000CA0D81E00F90DF91CF911F910F91089510
:101C4000CF93DF93EC010E94DD0DCE010E94EF0DDA
:101C50008111FBCF60E0CE01DF91CF910C94CA0DD2
:101C600021E0FC01208383E493E00895CF92DF928A
:101C7000EF92FF920F931F93CF93DF931F92CDB7F5
:101C8000DEB77C016B0189019A0144E555E164EC02
:101C900076E10E941417CE0101960E94300E860153
:101CA00021E332E14981BC01C7010E9469130F9011
:101CB000DF91CF911F910F91FF90EF90DF90CF9028
:101CC0000895FC01E60FF11D849190E0982F88277C
:101CD0003196E4918E0F911D0895213039F020F056
:101CE000223031F4841B0895840F0895860F0895DF
:101CF000861B0895213039F020F0223031F4861B04
:101D00000895860F0895841B0895840F089580E038
:101D100008950F931F93CF93DF93EC018B01FB0189
:101D2000849188833196E491E983FB013296E491B2
:101D3000EA83FB013396E491EB83FB013496E49153
:101D4000EC83FB013596E491ED83FB013696E4913B
:101D5000EE83FB013796E491EF83FB013896E49123
:101D6000E887FB013996E491E987FB013A96E49113
:101D7000EA87FB013B96E491EB87FB013C96E491FB
:101D8000EC87FB013D96E491ED87FB013E96E491E3
:101D9000EE87FB013F96E491EF87FB017096E4919B
:101DA000E88B61E1C8010E94610E9A8B898B63E127
:101DB000C8010E94610E9C8B8B8B65E1C8010E945B
:101DC000610E9E8B8D8BDF91CF911F910F910895A6
:101DD000DC0118965C911897ED91FC911197849114
:101DE00090E0052E02C0959587950A94E2F7462F5C
:101DF000450F483070F031961196FC93EE93249184
:101E000098E0951B092E01C0220F0A94EAF7822B55
:101E1000485018964C9321E030E0062E01C0220F66
:101E20000A94EAF72150822308950F931F93CF93CA
:101E3000DF938C01EC01C05BDF4F798368831886E8
:101E4000FC01EF59FF4F6081CE010E94E80E8E83A6
:101E5000F801EE59FF4F6081CE010E94E80E8F839A
:101E6000F801E658FF4F90819A8781E0911180E058
:101E70008B87DF91CF911F910F910895CF93C62F3C
:101E80000E94E80EC15021E030E001C0220FCA9547
:101E9000EAF7821BCF9108955F926F927F928F92A3
:101EA0009F92AF92BF92CF92DF92EF92FF920F93E9
:101EB0001F93CF93DF937C01162F642EEC01C05B40
:101EC000DF4F9C80AD806C018AE7C80ED11CBE80BC
:101ED000B9188B2C1B1508F4812E5B800C85202FE4
:101EE0004A2D692D8A810E947A0E782E202F4A2D44
:101EF000692D852D0E946D0E482F662011F09A8560
:101F000004C09985911108C09B85F6019083282D06
:101F1000672DC7010E948B111B1520F01B19A3947C
:101F2000912CD5CF190D1C83AD82DF91CF911F91DC
:101F30000F91FF90EF90DF90CF90BF90AF909F9068
:101F40008F907F906F905F9008958F929F92AF9245
:101F5000BF92CF92DF92EF92FF920F931F93CF9396
:101F6000DF937C01EC01C05BDF4F0E94150FF7018E
:101F7000E95AFF4FB0803C966081CE010E943E0F2F
:101F8000982EF701EC59FF4F6081CE010E943E0F61
:101F9000C82EF701EB59FF4F6081CE010E943E0F22
:101FA000A82EDE801D140CF06FC00C85CB0CC194E4
:101FB000202F4C2D692D8A810E947A0E182F8A833A
:101FC000202F4C2D692D8B810E946D0E482F8B8305
:101FD000013091F060F00230B9F0033001F5212FAB
:101FE0002B0D8D1901E0040F41E0480F1AC0212F7D
:101FF0002D0D082F0B0D15C0802F8B1921E0210FFF
:10200000042F0D0D180F0DC081E0982F9D1921E0B0
:10201000210F8B1901E0040F480F190F02C0082F80
:10202000212F612FC7010E940512882369F11C82AC
:102030001D828701015A1F4F670180E6C80ED11C1F
:10204000F8016081CE010E94E80E882EF6016081C1
:10205000CE010E94E80E982E40E0682DC7010E9434
:102060004C0F41E0692DC7010E944C0F61E0CE0189
:102070000E94E80E8111F0CF8D818B150CF3F701D2
:10208000E658FF4F8A8580838A2DDF91CF911F917B
:102090000F91FF90EF90DF90CF90BF90AF909F9007
:1020A0008F900895EF92FF920F931F93CF93DF933A
:1020B0008B01FC01E45BFF4F20813181295E3F4FA2
:1020C0006F3F710509F018F56136710510F0B4968F
:1020D00006C06134710538F0FC01E259FF4F808180
:1020E0009181280F391FC9010196FC0144914423B5
:1020F00009F43BC0F901449150E04017510711F435
:10210000019635C0FC018491280F311DECCFFC01F4
:10211000EE58FF4FC081D181C20FD31F7E0160E016
:10212000C7010E94610EC80FD91F62E0C7010E945B
:10213000610EF4E0EF0EF11C8017910780F3FE01B1
:10214000849190E0982F88273196E4918E2B009708
:1021500061F08017910719F4CE01039608C0FE01C3
:102160003296E491CE0FD11DEACF80E090E0DF916E
:10217000CF911F910F91FF90EF900895EF92FF92F2
:102180000F931F93CF93DF93EC01E62EF42E89017A
:10219000FC01E45AFF4F80818130C9F070F0823039
:1021A00001F1833039F5FE01E25BFF4F0190F081D0
:1021B000E02DCE010995E80E1DC0FE01E25BFF4F48
:1021C0000190F081E02DCE010995F80E13C0FE01BB
:1021D000E25BFF4F0190F081E02DCE010995E81AF6
:1021E00009C0FE01E25BFF4F0190F081E02DCE01BE
:1021F0000995F81AFE01EE5AFF4FE0823196F082FF
:10220000B801CE010E945210009751F0BC01CE01DE
:10221000DF91CF911F910F91FF90EF900C94A50F3C
:1022200080E0DF91CF911F910F91FF90EF90089583
:10223000CF93DF93FC01E45BFF4F20813181232B9F
:10224000C1F17E962081DC01AA58BF4F2C933196B4
:1022500050813C965083EC01CB58DF4F38813323BB
:1022600041F1313069F42997388123170CF43C93FC
:10227000DC01A359BF4F8C918517DCF4808319C012
:10228000EC01C959DF4F688122964881332727FD29
:102290003095842F992787FD9095860F911D67FDB6
:1022A0009A952817390714F4640F6C9345170CF4AA
:1022B0004083DF91CF910895825B9F4F27E83EE0F6
:1022C000FC01318320830895CF93DF93EC01FC015F
:1022D000E45BFF4F808191818617970761F07183DE
:1022E0006083CE01835A9F4F0E94890ECE01DF91F9
:1022F000CF910C941811DF91CF9108950F93DC01C9
:10230000DF963C91DF97431BD596ED91FC91D697D4
:1023100009950F9108950F93FC01EC58FF4F308100
:10232000332309F462C0222309F45FC0223048F04D
:10233000023019F46F5F621B04C0033011F44F5F69
:10234000421B702F7170FC0100FD24C0EA5BFF4F3F
:102350003081431708F449C031963081431708F0A3
:1023600044C03297308131975081260F261730F4C0
:10237000631718F42FEF230F03C0652F6317A8F519
:10238000521798F5651708F4652F321708F4232FB4
:10239000261B21C0EC5BFF4F3081631730F1319673
:1023A0003081631710F53296308131975081240FB8
:1023B000241730F4431718F42FEF230F03C0452FD1
:1023C000431798F4521788F4451708F4452F32172D
:1023D00008F4232F241BDC01D796ED91FC91D897AC
:1023E0000480F581E02D072F09950F910895461778
:1023F00030F4821740F081E0241730F002C08217D9
:10240000D0F380E0089581E00895FF920F931F9329
:10241000CF93DF93EC01162FF22E202FDC01A95B66
:10242000BF4FFC01EA5BFF4F6C9180810E94F71166
:10243000882381F0FE01EB5BFF4FCC5BDF4F2F2D3C
:10244000412F60818881DF91CF911F910F91FF9083
:102450000C94F71180E0DF91CF911F910F91FF90C5
:102460000895CF92DF92FF920F931F93CF93DF9344
:10247000DC01742F7770E1E0F0E0072E01C0EE0F71
:102480000A94EAF73E2F6C018AE7C80ED11CE601D8
:102490008881823018F4813021F001C030E01E2F95
:1024A00001C010E050E0487FD996ED91FC91DA9799
:1024B0008D919C911197EC01F888F49EC001F59ED6
:1024C000900D1124E80FF91FE60FF11D011116C040
:1024D0002E0F8081832B812781932E13FACF1DC06D
:1024E000DD968C91DD97E80FF11DE6018881823041
:1024F00078F431E0813061F4222379F08081832BFC
:10250000812780837F5F77702150711103C0E8CFEE
:1025100011E0F2CF330F110FEFCFDF91CF911F9169
:102520000F91FF90DF90CF900895CF93DF93FC0140
:10253000A081B18143AD842F880F880F880F86AFAB
:1025400050968C915097803208F08FE1880F880F59
:10255000880F85AF64AD562F550F550F550F57AFE8
:1025600051967C915197862F90E0840F911D272FD3
:1025700030E02817390714F4472F461BEF01C05CE1
:10258000DF4F5883219688E0489F500D11245883CF
:10259000219680EF888354968D919C915597813F29
:1025A000910508F48883ED5BFF4F56968C918083EC
:1025B000DF91CF9108950C9495120F930E947E1194
:1025C0000F9108958F929F92AF92BF92CF92DF9218
:1025D000EF92FF920F93CF93DF93EC017C018BE49A
:1025E000E80EF11C5E01E9E4AE0EB11C6E01FAE4E6
:1025F000CF0ED11C4E0188E4880E911CF70100819A
:10260000F5012081F6014081F4016081CE010E9434
:102610000512FE01EC58FF4F811102C0108225C047
:1026200081E08083F4018081FE01EC5BFF4F9081AB
:10263000981708F48083F5018081FE01EB5BFF4F62
:102640009081891708F48083F6018081FE01EA5B9E
:10265000FF4F9081981708F48083F7018081C95B50
:10266000DF4F9881891708F48883DF91CF910F910C
:10267000FF90EF90DF90CF90BF90AF909F908F90A2
:102680000895FC01EC5BFF4F10823196DC01AE5BDC
:10269000BF4F2C912083319612972C912083319635
:1026A00011962C9120830C94E212FC01E85BFF4F01
:1026B00010823296108231972FEF2083329620833A
:1026C000DC01D796ED91FC91D8970280F381E02D43
:1026D00009940F931F93CF93DF93EC01FC01E45B0C
:1026E000FF4F118210823EAB2DAB7AAF69AF4BAF7B
:1026F0001CAE3D961082B0961082319681E08083A8
:102700003196808318AF0FABD801ED91FC91CE01CB
:102710000995CE010E945513CE010E945C11C45A46
:10272000DF4F1882DF91CF911F910F91089566239B
:1027300029F06A3019F0862F90E008958FEF9FEF0F
:102740000895FC01118E0895DC01ED91FC91458501
:102750006DE20C94E616CF93DF93EC0141E06CE45C
:102760000E94E616CE01DF91CF910C94A41341E0B4
:102770006DE40C94E616CF93DF93EC01662319F019
:102780000E94B71304C040E06DE40E94E616CE013B
:102790000E94A413CE010E94AB1340E06CE4CE0172
:1027A000DF91CF910C94E6161F93CF93DF93EC014A
:1027B000162F60780E94BB13612F6074CE010E94B7
:1027C000BB13612F6072CE010E94BB13612F607139
:1027D000CE010E94BB13612F6870CE010E94BB1313
:1027E000612F6470CE010E94BB13612F6270CE0115
:1027F0000E94BB13612F6170CE010E94BB13CE01FA
:102800000E94B713CE010E94A413CE010E94AB1305
:10281000CE010E94B713CE010E94A41340E06CE4E5
:10282000CE01DF91CF911F910C94E6169A01DC0145
:102830001896ED91FC911997462F67E10994CF9373
:10284000DF931F92CDB7DEB76983AE014F5F5F4F55
:1028500061E00E9416140F90DF91CF910895DC0182
:102860001896ED91FC91199720E030E040E068E186
:102870000994DC011896ED91FC91199720E030E065
:1028800040E069E10994EF92FF920F931F93CF9379
:10289000DF931F92CDB7DEB77C018901683141F12A
:1028A00028F46431C1F0673149F006C0693109F498
:1028B00044C0603209F453C080E052C0442309F49C
:1028C0004EC0F80161918F01C70149830E94D41362
:1028D00049814150F3CF41E06CE40E94E61641E0AB
:1028E0006DE4C7010E94E616C7010E94A41337C019
:1028F000FC018789882349F0C7010E94B713C701EB
:102900000E94A413C7010E94AB13C7010E94B71312
:1029100040E06DE4C7010E94E616C7010E94A413BF
:1029200040E06CE4C7010E94E61681E0F701878B66
:102930006689C7010E94D41312C040E06DE40E9472
:10294000E616C7010E94A413C7010E94AB13C7017A
:102950000E94B713C7010E94A413F701178A81E0F0
:102960000F90DF91CF911F910F91FF90EF900895FD
:10297000FF920F931F93CF93DF93EC01F62E8A0102
:102980000E942F1460E4CE010E941F14E885F9858F
:1029900098014F2D67E1CE010995CE01DF91CF91CE
:1029A0001F910F91FF900C943914462FDC0116965D
:1029B000ED91FC91179720E030E065E10994462FF6
:1029C000DC011696ED91FC91179720E030E066E16E
:1029D00009949A01DC011696ED91FC911797462F08
:1029E00067E10994DC011696ED91FC91179720E0C0
:1029F00030E040E068E10994DC011696ED91FC912D
:102A0000179720E030E040E069E10994EF92FF92EF
:102A10000F931F93CF93DF931F92CDB7DEB77C0147
:102A20008B01D8016C916731E1F078F46531A0F148
:102A3000F80141814983D7011696ED91FC911797D2
:102A400020E030E0C701099524C06A31A8F06E3F4C
:102A500019F5F8014181498369E2C7010E94E61630
:102A600018C0F80181818983AE014F5F5F4F61E03B
:102A7000C7010E94E9140DC00F5F1F4FD7011696C2
:102A8000ED91FC91179720E030E040E0C7010995F7
:102A9000C8CF0E5F1F4FC5CF0F90DF91CF911F9111
:102AA0000F91FF90EF900895FF920F931F93CF9394
:102AB000DF93EC01F42E8901663121F128F46431B1
:102AC000F1F1653149F057C0683109F450C0F0F0B8
:102AD000693109F445C04FC08091C303882319F0C0
:102AE000CE010E943914CE010E942F1460E0CE0165
:102AF0000E941F146F2DCE010E941F1481E080934D
:102B0000C3033AC0642F0E941F1433C08091C303D3
:102B1000882319F0CE010E94391488E1A8018F158D
:102B200048F468E1CE010E94B81488EEF80E085E01
:102B30001F4FF3CF6F2DCE010E94B81418C08E899D
:102B40008F3F11F488E78E8BE885F98598014F2D2A
:102B500064E1CE01DF91CF911F910F91FF90099415
:102B60008091C303882319F0CE010E94391410927A
:102B7000C30381E001C080E0DF91CF911F910F91ED
:102B8000FF900895FC0171836083FB012289FC01A1
:102B9000248B0895CF93DF93EC01EA85FB8520E039
:102BA00030E040E068E20995EE81FF8120E030E00E
:102BB00040E064E1CE01099541E06BE4CE010E9462
:102BC000E616E881F981448169E2CE010E94E616A9
:102BD00040E06BE4CE010E94E616E881F981448171
:102BE00069E2CE010E94E61641E06BE4CE010E944C
:102BF000E616E881F981458169E2CE01DF91CF9146
:102C00000C94E6160F931F93CF93DF9300D000D060
:102C10001F92CDB7DEB76C834D832B831A83098354
:102C2000DC011496ED91FC9115979E012F5F3F4FAB
:102C300041E06FE009950F900F900F900F900F906B
:102C4000DF91CF911F910F910895DC011496ED91C2
:102C5000FC91159720E030E040E069E00994DC0148
:102C60001496ED91FC91159720E030E040E06AE089
:102C70000994462FDC011496ED91FC91159720E004
:102C800030E06BE00994DC011496ED91FC9115970E
:102C900020E030E040E060E10994EF92FF920F9372
:102CA0001F93CF93DF93EC01F42E89016D30A9F1CE
:102CB00018F46B3039F160C06E3009F441C06F30E8
:102CC00009F05AC00E94F214F8018381EC88F8E000
:102CD0008F9FE00C112460E4CE010E94D5146E2D6C
:102CE00062956F706061CE010E94D5146E2D6F7079
:102CF000CE010E94DF14F8016481606BCE010E9456
:102D0000DF142DC0411103C06DE871E002C068E816
:102D100071E0CE010E94061520C0411108C061E893
:102D200071E00E940615E881F981828907C06AE78F
:102D300071E00E940615E881F98183898C8B0DC0B2
:102D40000E94F21461E8CE010E94D5146F2DCE01CD
:102D50000E94DF14CE010E94FC1481E00EC0F80135
:102D6000408151816281660F660F660FCE010E941D
:102D7000E914FA94A1F7EECF80E0DF91CF911F9193
:102D80000F91FF90EF9008951F93CF93DF93EC0185
:102D9000162F0E944D16811112C0193059F01A30A9
:102DA00081F4CE010E94CA1562E971E0CE010E9451
:102DB000061505C062E671E0CE010E94C21581E0F1
:102DC00001C080E0DF91CF911F910895DC011A9638
:102DD000ED91FC911B9720E030E0099480E008958C
:102DE000FC01118210828EEE96E195838483978395
:102DF00086839187808793878287158A108E118EAC
:102E000014861586168617868FEF868B838F80E053
:102E100090E02FEFDF01A80FB91F5F962C9301966A
:102E200086319105B9F70895AF92BF92CF92DF92A4
:102E3000EF92FF920F931F93CF93DF93EC017B01EF
:102E40006A0159010E94F016FD82EC82DF82CE8277
:102E5000B986A8861B870A87CE01DF91CF911F9183
:102E60000F91FF90EF90DF90CF90BF90AF900C94B8
:102E700025168091F30390E02091F403821B9109C1
:102E800008952091F4038091F303281750F4E22F62
:102E9000F0E0EB50FC4F808190E02F5F2093F40333
:102EA00008958FEF9FEF0895E091F4038091F3036D
:102EB000E81730F4F0E0EB50FC4F808190E008958B
:102EC0008FEF9FEF08950895CF92DF92EF92FF92D8
:102ED0000F931F93CF93DF937C01CB018A01209145
:102EE000D003222389F0EB016B01C40ED51ECC1553
:102EF000DD0569F06991D701ED91FC910190F081B8
:102F0000E02DC7010995F3CF642F0E94D417C801A3
:102F1000DF91CF911F910F91FF90EF90DF90CF90B5
:102F20000895CF93DF931F92CDB7DEB769832091C9
:102F3000D0032223D1F02091D103203240F021E0B0
:102F400030E0FC013383228380E090E015C0809163
:102F5000D203E82FF0E0ED52FC4F998190838F5F10
:102F60008093D2038093D10305C061E0CE01019626
:102F70000E94D41781E090E00F90DF91CF910895E7
:102F8000FC011382128248EE53E060E070E044835B
:102F90005583668377838BEC91E0918380830895DA
:102FA00084EC93E00C94C017613298F42091820471
:102FB000243089F460933704FC0189E394E0DC0158
:102FC0002A2F281B261718F421912D93F9CF80E082
:102FD000089581E0089582E0089585ED8093BC0016
:102FE0008091BC0084FDFCCF10928204089585EC92
:102FF0008093BC001092820408951F920F920FB626
:103000000F9211242F933F934F935F936F937F936E
:103010008F939F93AF93BF93EF93FF938091B900EA
:10302000887F803609F49EC078F5883209F45DC047
:1030300090F4803109F456C038F4882309F4F5C0BF
:10304000883009F44FC0F5C0883109F44EC0803291
:1030500009F45FC0EEC0803409F46AC058F48033CC
:1030600009F457C0883309F0E4C0809315040E9426
:10307000F717DFC0803509F44FC0883509F45DC00B
:10308000883409F0D6C0D3C0883909F4C4C0A8F484
:10309000883709F467C038F4883609F463C080378C
:1030A00009F460C0C6C0883809F4B5C0803909F495
:1030B0005FC0803809F0BDC05BC0803B09F483C0AD
:1030C00038F4803A09F466C0883A09F47CC0B1C08B
:1030D000803C09F4A4C0883C09F4A1C0883B09F4F1
:1030E00087C0A7C08091810410C090915A0480913C
:1030F0005904981770F5E0915A0481E08E0F80937F
:103100005A04F0E0E55AFB4F80818093BB0085ECC8
:1031100083C0809315048BC0E0915A0481E08E0F28
:1031200080935A048091BB00F0E0E55AFB4F808306
:1031300090915A04809159046BC0E0915A0481E047
:103140008E0F80935A048091BB00F0E0E55AFB4F4C
:1031500080838091800481116AC081E080937F0424
:1031600084EA5EC083E08093820410921604CFCF7D
:1031700080911604803208F04EC0E091160481E080
:103180008E0F809316048091BB00F0E0E95EFB4F48
:103190008083BDCF0E94F71780911604803230F4EF
:1031A000E0911604F0E0E95EFB4F10826091160496
:1031B00070E0E0917B04F0917C0487E194E0099554
:1031C0001092160436C084E0809382041092380472
:1031D00010923704E0917D04F0917E04099580916E
:1031E0003704811105C081E08093370410923904BF
:1031F000E091380481E08E0F80933804F0E0E75CC2
:10320000FB4F80818093BB009091380480913704FC
:10321000981708F47CCF85E88093BC000AC085EC41
:103220008093BC001092820404C0109215040E9486
:10323000ED17FF91EF91BF91AF919F918F917F918A
:103240006F915F914F913F912F910F900FBE0F9013
:103250001F9018958F929F92AF92BF92CF92DF925C
:10326000EF92FF926A017B010E94461B4B015C01B9
:10327000C60ED71EE81EF91E0E94461B681579056A
:103280008A059B0528F0C616D706E806F906A0F7BA
:10329000FF90EF90DF90CF90BF90AF909F908F9076
:1032A000089521E00C942A190C94461BCF93DF93C8
:1032B000EC014E875F87688B798B1A8A1B8A1C8A80
:1032C0001D8A4E815F81688579854A875B876C8717
:1032D0007D870E94461B6E837F8388879987DF9155
:1032E000CF910895BF92CF92DF92EF92FF920F930A
:1032F0001F93CF93DF938C01B62E0E94461B6B0168
:103300007C01E801CE5BDF4F67ED71E08881998138
:103310000E940D1F4AE050E06B2D888199810E9428
:10332000811F6EED71E0888199810E940D1F2AE056
:1033300030E0B701A601888199810E94741F60EE78
:1033400071E0888199810E940D1FF8018681978123
:10335000A085B185B701A601481B590B6A0B7B0BF1
:103360002AE030E0888199810E94741F60EE71E04C
:10337000888199810E940D1FF801468157816085DF
:10338000718582859385A485B585481B590B6A0B89
:103390007B0B2AE030E088819981DF91CF911F91EA
:1033A0000F91FF90EF90DF90CF90BF900C94741F1F
:1033B0008E5B9F4F62EE71E0FC01808191810C94E5
:1033C000131FCF93DF93EC010E94461B6E837F8314
:1033D00088879987DF91CF910895CF92DF92EF92FE
:1033E000FF92CF93DF93EC0161111EC00E94461B38
:1033F000CA80DB80EC80FD806C197D098E099F09F5
:10340000643671058105910578F424E6C22ED12C2D
:10341000E12CF12CC61AD70AE80AF90A21E0B70113
:10342000A601CE010E942A190E94461B6A837B8353
:103430008C839D8381E0DF91CF91FF90EF90DF90AF
:10344000CF9008950895FC01EC5BFF4F108211822C
:1034500012821382FC01128213821482158241159A
:1034600051056105710511F00C9451190895FB0186
:10347000BA01A9018E5B9F4FDC01ED93FC9326E01E
:10348000CF010C94B61D8E5B9F4FDC018D919C91FA
:10349000DC01ED91FC910680F781E02D09950895FE
:1034A0008E5B9F4FDC018D919C91DC01ED91FC9135
:1034B0000480F581E02D09950895FF920F931F93E5
:1034C000CF93DF93EC01F62E0E94461B6A837B8329
:1034D0008C839D838E010E5B1F4F69EE71E0F801B6
:1034E000808191810E940D1F4AE050E06F2DF8010C
:1034F000808191810E94811F60EF71E0F8018081DD
:1035000091810E940D1F42E350E060E070E0CE0127
:10351000DF91CF911F910F91FF900C9451191F9340
:10352000CF93DF93EC01162F8E89882311F1CE0102
:103530000E94501A811102C085E61CC0CE010E9473
:10354000501A8823C9F3CE010E94431A883689F0A5
:1035500048F4883569F0833689F7612FCE010E94DF
:103560005D1A07C0813729F0863741F786E702C028
:103570001E8A83E6DF91CF911F9108951F93CF9309
:10358000DF93EC01142F611105C01E8BDF91CF91E9
:103590001F91089581E08E8B60E0CE010E948F1A0A
:1035A000833699F341E050E060E070E0CE010E9484
:1035B0005119F2CF1092890410928A0410928B0450
:1035C00010928C0410928D0410928E0410928F042D
:1035D000109290041092910410929204109293040D
:1035E00010929404109295041092960410929704ED
:1035F00010929804089508951F920F920FB60F929B
:1036000011242F933F938F939F93AF93BF938091F8
:10361000CC049091CD04A091CE04B091CF04309110
:10362000CB0423E0230F2D3720F40196A11DB11DFB
:1036300005C026E8230F0296A11DB11D2093CB04DF
:103640008093CC049093CD04A093CE04B093CF0488
:103650008091D0049091D104A091D204B091D30470
:103660000196A11DB11D8093D0049093D104A09325
:10367000D204B093D304BF91AF919F918F913F91AA
:103680002F910F900FBE0F901F9018952FB7F894A1
:103690006091CC047091CD048091CE049091CF04C0
:1036A0002FBF08953FB7F8948091D0049091D10432
:1036B000A091D204B091D30426B5A89B05C02F3F9A
:1036C00019F00196A11DB11D3FBF6627782F892FE4
:1036D0009A2F620F711D811D911D42E0660F771FA9
:1036E000881F991F4A95D1F708958F929F92AF92A4
:1036F000BF92CF92DF92EF92FF926B017C010E940A
:10370000521B4B015C01C114D104E104F104F1F03E
:103710000E94FB1A0E94521B681979098A099B09A9
:10372000683E73408105910570F321E0C21AD1080B
:10373000E108F10888EE880E83E0981EA11CB11CF8
:10374000C114D104E104F10429F7DDCFFF90EF901B
:10375000DF90CF90BF90AF909F908F900895823070
:10376000910538F0880F991F880F991F05970197C9
:10377000F1F70895789484B5826084BD84B5816042
:1037800084BD85B5826085BD85B5816085BDEEE669
:10379000F0E0808181608083E1E8F0E01082808148
:1037A00082608083808181608083E0E8F0E08081B6
:1037B00081608083E1EBF0E0808184608083E0EBD6
:1037C000F0E0808181608083EAE7F0E080818460BE
:1037D000808380818260808380818160808380811A
:1037E000806880831092C10008958E3008F08E505A
:1037F00087702091360190E4299F90011124822B3B
:1038000080937C0080917A00806480937A0080911C
:103810007A0086FDFCCF809178002091790090E0BD
:10382000922B0895833081F028F4813099F0823012
:10383000A1F008958730A9F08830B9F08430D1F430
:10384000809180008F7D03C0809180008F7780936E
:103850008000089584B58F7702C084B58F7D84BDC4
:1038600008958091B0008F7703C08091B0008F7D64
:103870008093B0000895CF93DF9390E0FC01E85867
:10388000F14F2491FC01E457F14F8491882349F1D1
:1038900090E0880F991FFC01EC54F14FA591B49171
:1038A0008655914FFC01C591D4919FB7611108C015
:1038B000F8948C91209582238C93888182230AC06E
:1038C000623051F4F8948C91322F309583238C938D
:1038D0008881822B888304C0F8948C91822B8C93EE
:1038E0009FBFDF91CF9108950F931F93CF93DF93E5
:1038F0001F92CDB7DEB7282F30E0F901EC59F14F18
:103900008491F901E858F14F1491F901E457F14F0E
:1039100004910023C9F0882321F069830E94121CBE
:103920006981E02FF0E0EE0FFF1FE655F14FA59102
:10393000B4919FB7F8948C91611103C010958123C5
:1039400001C0812B8C939FBF0F90DF91CF911F916E
:103950000F910895CF93DF93282F30E0F901EC59B0
:10396000F14F8491F901E858F14FD491F901E457EE
:10397000F14FC491CC2391F081110E94121CEC2FC5
:10398000F0E0EE0FFF1FE056F14FA591B4912C919E
:103990002D2381E090E021F480E002C080E090E0FF
:1039A000DF91CF910895FC01818D228D90E0805CA4
:1039B0009F4F821B91098F7399270895FC01918D68
:1039C000828D981731F0828DE80FF11D858D90E082
:1039D00008958FEF9FEF0895FC01918D828D9817C8
:1039E00061F0828DDF01A80FB11D5D968C91928DE3
:1039F0009F5F9F73928F90E008958FEF9FEF0895E0
:103A000080E79EE1892B49F080E090E0892B29F046
:103A10000E94701E81110C9400000895FC01848D99
:103A2000DF01A80FB11DA35ABF4F2C91848D90E0E8
:103A300001968F739927848FA689B7892C93A089C3
:103A4000B1898C9180648C93938D848D981306C07A
:103A50000288F389E02D80818F7D80830895CF9344
:103A6000DF93EC01888D8823C9F0EA89FB89808186
:103A700085FD05C0A889B9898C9186FD0FC00FB658
:103A800007FCF5CF808185FFF2CFA889B9898C9199
:103A900085FFEDCFCE010E940E1DE7CFDF91CF91C4
:103AA0000895CF92DF92FF920F931F93CF93DF93EE
:103AB0001F92CDB7DEB76C0181E0D60158968C938A
:103AC00058975B969C915B975C968C915C9798134A
:103AD00007C05096ED91FC915197808185FD2EC0D5
:103AE000F601038D10E00F5F1F4F0F731127F02EAB
:103AF000F601848DF81211C00FB607FCF9CFD6017C
:103B00005096ED91FC915197808185FFF1CFC601D0
:103B100069830E940E1D6981EBCF838DE80FF11D33
:103B2000E35AFF4F6083D6015B960C935B975296E6
:103B3000ED91FC915397808180620CC0D60156961E
:103B4000ED91FC91579760835096ED91FC915197C0
:103B500080818064808381E090E00F90DF91CF913D
:103B60001F910F91FF90DF90CF900895BF92CF9259
:103B7000DF92EF92FF92CF93DF93EC016A017B011A
:103B8000B22EE889F98982E08083411581EE5807D9
:103B900061057105A1F060E079E08DE390E0A70197
:103BA00096010E9428222150310941095109569558
:103BB000479537952795211580E1380798F0E889D2
:103BC000F989108260E874E88EE190E0A70196011F
:103BD0000E942822215031094109510956954795E3
:103BE00037952795EC85FD853083EE85FF8520830D
:103BF000188EEC89FD89B082EA89FB898081806119
:103C00008083EA89FB89808188608083EA89FB89D7
:103C1000808180688083EA89FB8980818F7D8083B1
:103C2000DF91CF91FF90EF90DF90CF90BF900895FC
:103C30001F920F920FB60F9211242F938F939F9381
:103C4000EF93FF93E091E404F091E5048081E0912B
:103C5000EA04F091EB0482FD12C090818091ED04A2
:103C60008F5F8F732091EE04821751F0E091ED0485
:103C7000F0E0EC52FB4F958F8093ED0401C0808102
:103C8000FF91EF919F918F912F910F900FBE0F9009
:103C90001F9018951F920F920FB60F9211242F9319
:103CA0003F934F935F936F937F938F939F93AF93C4
:103CB000BF93EF93FF9384ED94E00E940E1DFF915C
:103CC000EF91BF91AF919F918F917F916F915F9194
:103CD0004F913F912F910F900FBE0F901F9018950D
:103CE00084ED94E00E94D31C21E0892B09F420E0AC
:103CF000822F08951092D7041092D60488EE93E094
:103D0000A0E0B0E08093D8049093D904A093DA04A3
:103D1000B093DB0485E492E09093D5048093D404BF
:103D200085EC90E09093E1048093E00484EC90E0D3
:103D30009093E3048093E20480EC90E09093E50498
:103D40008093E40481EC90E09093E7048093E60490
:103D500082EC90E09093E9048093E80486EC90E094
:103D60009093EB048093EA041092ED041092EE0419
:103D70001092EF041092F004089508950E94BA1B67
:103D80000E94BD1E0E949608C0E0DDE10E9412095B
:103D90002097E1F30E94001DF9CF0C948922CF9265
:103DA000DF92EF92FF920F931F93CF93DF937C01EB
:103DB0006A01EB0100E010E00C151D0571F069913E
:103DC000D701ED91FC910190F081E02DC70109959B
:103DD000892B19F00F5F1F4FEFCFC801DF91CF91F3
:103DE0001F910F91FF90EF90DF90CF900895611594
:103DF000710581F0DB010D900020E9F7AD01415024
:103E00005109461B570BDC01ED91FC910280F381B7
:103E1000E02D099480E090E008950C94F71E66EF81
:103E200071E00C94F71E0F931F93CF93DF93EC0177
:103E30000E94F71E8C01CE010E940F1F800F911F60
:103E4000DF91CF911F910F9108958F929F92AF9222
:103E5000BF92DF92EF92FF920F931F93CF93DF9366
:103E6000CDB7DEB7A1970FB6F894DEBF0FBECDBFBA
:103E70007C01F42FD52ECB0119A2223008F42AE0C0
:103E80008E010F5D1F4F822E912CA12CB12C6F2F14
:103E90007D2DA50194010E942822F22FD32ECA0164
:103EA000015011096A3014F4E0E301C0E7E3E60FC2
:103EB000D801EC93232B242B252B49F7B801C701FC
:103EC0000E94F71EA1960FB6F894DEBF0FBECDBFBD
:103ED000DF91CF911F910F91FF90EF90DF90BF90F6
:103EE000AF909F908F9008952115310541F4DC012A
:103EF000ED91FC910190F081E02D642F09940C94D8
:103F0000251F9A01462F50E060E070E00C94741F6A
:103F10003F924F925F926F927F928F929F92AF9259
:103F2000BF92CF92DF92EF92FF920F931F93CF93A6
:103F3000DF9300D000D0CDB7DEB78B0129013A0165
:103F400090913701981721F09F3F09F0DAC104C022
:103F5000EEEBFEE0349081C080933701EEEBFEE0A3
:103F6000E491EF3F09F4CDC1E13031F1E23009F4E1
:103F70004BC0E11171C014BC15BC94B5926094BDE6
:103F800095B5916095BD282F30E0F901E457F14FC8
:103F9000E491F0E0EE0FFF1FE655F14F459154918B
:103FA0005093810540938005F901E858F14F249121
:103FB00020937F05312C53C0109280001092810015
:103FC0009091810098609093810090918100916020
:103FD00090938100282F30E0F901E457F14FE491EC
:103FE000F0E0EE0FFF1FE655F14F459154915093CD
:103FF0007A0540937905F901E858F14F249120930F
:104000007805332433942BC01092B0001092B10085
:104010009091B00092609093B0009091B100916047
:104020009093B100282F30E0F901E457F14FE4916B
:10403000F0E0EE0FFF1FE655F14F4591549150937C
:10404000730540937205F901E858F14F24912093CC
:10405000710552E0352E03C03E2E37FC52C161E09F
:104060000E943B1C4801A12CB12C832D8D7F09F0AF
:10407000C7C060E072E18AE790E0A50194010E9468
:104080004A2229833A834B835C8369017A0181E068
:10409000C81AD108E108F1089FEFC916D104E1045C
:1040A000F10409F008F49AC060E472E48FE090E053
:1040B000A50194010E944A2269017A01E1E0CE1A29
:1040C000D108E108F108F2E03F1219C08FEFC816DD
:1040D000D104E104F10409F008F48AC060E970ED4C
:1040E00083E090E0A50194010E944A2269017A01CF
:1040F00091E0C91AD108E108F10883E001C082E02B
:10410000EFEFCE16D104E104F10409F008F467C022
:1041100068E478EE81E090E0A50194010E944A22D3
:1041200069017A01F1E0CF1AD108E108F1083320E2
:10413000E1F082E038121BC09FEFC916D104E10400
:10414000F10409F008F4DBC064E274EF80E090E071
:10415000A50194010E944A2269017A01E1E0CE1A88
:10416000D108E108F10885E003C083E001C084E0E4
:10417000FFEFCF16D104E104F10489F180F162E18F
:104180007AE780E090E0A50194010E944A2269014B
:104190007A0181E0C81AD108E108F108311002C0A3
:1041A00084E001C086E09FEFC916D104E104F10468
:1041B000B1F0A8F0C980DA80EB80FC809AE0F59439
:1041C000E794D794C7949A95D1F7E1E0CE1AD10835
:1041D000E108F108332031F087E00BC081E03320A3
:1041E00011F007C085E095B5987F982B95BD38C034
:1041F00082E09091B100987F982B9093B10030C0ED
:1042000060E072E18AE790E0A50194010E944A22F1
:1042100069017A01F1E0CF1AD108E108F108C1146F
:10422000D10481E0E806F10488F068E478EE81E0EA
:1042300090E0A50194010E944A2269017A0191E06F
:10424000C91AD108E108F10893E001C091E0E1E06A
:104250003E1206C080918100887F892B8093810067
:10426000411451046104710471F0D801AA0FBB1FFD
:10427000A30192010E94692228EE33E040E050E061
:104280000E94282203C02FEF3FEFA901F1E03F1663
:10429000A1F082E0381619F1311033C0C7BC209369
:1042A0008205309383054093840550938505809162
:1042B0006E00826080936E0024C0D0928900C0920C
:1042C000880020937B0530937C0540937D055093B7
:1042D0007E0580916F00826080936F0012C0C09253
:1042E000B300209374053093750540937605509381
:1042F00077058091700082608093700002C084E036
:1043000078CF0F900F900F900F90DF91CF911F916A
:104310000F91FF90EF90DF90CF90BF90AF909F9064
:104320008F907F906F905F904F903F900895813075
:1043300039F018F0823051F0089510926E0008950F
:1043400080916F008D7F80936F0008958091700041
:104350008D7F8093700081E08093B0008091B100E8
:10436000887F84608093B1001092B3000895CF934A
:10437000C82F809137018C1307C0EEEBFEE08491CB
:104380009FEF9093370101C08FEF0E94972160E06B
:104390008C2FCF910C94741C1F920F920FB60F921A
:1043A00011242F933F934F935F936F937F938F933A
:1043B0009F93AF93BF93EF93FF9380917405909178
:1043C0007505A0917605B0917705892B8A2B8B2BEB
:1043D00051F190917105E0917205F0917305808122
:1043E000892780838091740590917505A091760549
:1043F000B0917705181619061A061B06C4F48091A9
:10440000740590917505A0917605B0917705019797
:10441000A109B1098093740590937505A093760561
:10442000B093770504C0809137010E94B721FF91B6
:10443000EF91BF91AF919F918F917F916F915F911C
:104440004F913F912F910F900FBE0F901F90189595
:10445000A1E21A2EAA1BBB1BFD010DC0AA1FBB1F88
:10446000EE1FFF1FA217B307E407F50720F0A21BFA
:10447000B30BE40BF50B661F771F881F991F1A9467
:1044800069F760957095809590959B01AC01BD0191
:10449000CF010895052E97FB1EF400940E9461221F
:1044A00057FD07D00E94282207FC03D04EF40C943D
:1044B000612250954095309521953F4F4F4F5F4F6A
:1044C000089590958095709561957F4F8F4F9F4F80
:1044D00008950E947A22A59F900DB49F900DA49FED
:1044E000800D911D11240895EE0FFF1F0590F4918A
:1044F000E02D0994A29FB001B39FC001A39F700D4E
:10450000811D1124911DB29F700D811D1124911DDB
:104510000895CF93DF938230910510F482E090E00C
:10452000E0918805F091890520E030E0A0E0B0E05E
:10453000309739F14081518148175907B8F0481731
:10454000590771F482819381109729F013969C93F7
:104550008E9312972CC0909389058093880527C06D
:104560002115310531F04217530718F0A901DB017D
:1045700001C0EF019A01BD01DF010280F381E02D4E
:10458000D7CF21153105F9F0281B390B243031051F
:1045900080F48A819B816115710521F0FB01938371
:1045A000828304C09093890580938805FE0132962A
:1045B00044C0FE01E20FF31F819391932250310911
:1045C000398328833AC02091860530918705232BB3
:1045D00041F420910201309103013093870520932B
:1045E000860520910001309101012115310541F42A
:1045F0002DB73EB74091040150910501241B350BA6
:10460000E0918605F0918705E217F307A0F42E1BD1
:104610003F0B2817390778F0AC014E5F5F4F241726
:10462000350748F04E0F5F1F50938705409386056E
:104630008193919302C0E0E0F0E0CF01DF91CF9150
:104640000895CF93DF93009709F487C0FC01329758
:1046500013821282C0918805D0918905209781F438
:1046600020813181280F391F80918605909187051F
:104670008217930779F5F0938705E09386056DC05F
:10468000DE0120E030E0AE17BF0750F412964D91E6
:104690005C9113979D014115510509F1DA01F3CFA2
:1046A000B383A28340815181840F951F8A179B0792
:1046B00071F48D919C911197840F951F02969183AF
:1046C000808312968D919C911397938382832115F9
:1046D000310529F4F0938905E09388053EC0D9019E
:1046E0001396FC93EE9312974D915D91A40FB51F15
:1046F000EA17FB0779F480819181840F951F029658
:10470000D90111969C938E938281938113969C93E9
:104710008E931297E0E0F0E08A819B81009719F078
:10472000FE01EC01F9CFCE01029628813981820F7A
:10473000931F20918605309187052817390769F462
:10474000309729F4109289051092880502C01382CF
:104750001282D0938705C0938605DF91CF9108958B
:10476000FB01DC0105900D920020E1F70895DC01CA
:1047700001C06D9341505040E0F708951EE0C8EC31
:10478000DEE004C0FE010E9476222296CA3CD107D8
:06479000C9F7F894FFCF09
:1047960000008A0580002C0115080F08BA07BB0720
:1047A600BC07BD07B7076C0A0F08B807B907E907C2
:1047B600EE07F307E907EE070108140010001500DD
:1047C60011000E000F0001FF564D4450565F317C1C
:1047D600315F564D4450560D0A007C000000000023
:1047E600BE078F0700000000BE078F07DB124113CC
:1047F600DD120001140A6464323200127A000004E9
:10480600289610080000800040001815A015C01951
:10481600FF1815A115C819FF1815AE19FF1815AF01
:1048260019FF1815AE15D5168015A8163F15D316FF
:10483600001540158D16141520160015A115C8155E
:10484600DA1612158116CF15D916F115DB16401595
:104856002E15A415A619FF0000000091176417393C
:1048660017411754176317564D4450455F003A32A7
:104876003A005F564D44504500564D4450435F0044
:104886005F564D4450430D0A004572726F723A20CE
:10489600417474656D707420746F20736574206143
:1048A60020726561642D6F6E6C7920766172696124
:1048B600626C65206F722064617461207479706522
:1048C600206E6F7420737570706F727465640D0A54
:1048D6000000000000511DCF1ED31CEC1CDE1C2F57
:1048E6001D6E616E00696E66006F7666002E0000B2
:107800000C94343C0C94513C0C94513C0C94513CE1
:107810000C94513C0C94513C0C94513C0C94513CB4
:107820000C94513C0C94513C0C94513C0C94513CA4
:107830000C94513C0C94513C0C94513C0C94513C94
:107840000C94513C0C94513C0C94513C0C94513C84
:107850000C94513C0C94513C0C94513C0C94513C74
:107860000C94513C0C94513C11241FBECFEFD8E036
:10787000DEBFCDBF11E0A0E0B1E0ECE9FFE702C060
:1078800005900D92A230B107D9F712E0A2E0B1E065
:1078900001C01D92AD30B107E1F70E942D3D0C945F
:1078A000CC3F0C94003C982F959595959595959582
:1078B000905D8F708A307CF0282F295A8091C0000B
:1078C00085FFFCCF9093C6008091C00085FFFCCF60
:1078D0002093C6000895282F205DF0CF982F809127
:1078E000C00085FFFCCF9093C6000895EF92FF92F1
:1078F0000F931F93EE24FF2487018091C00087FD22
:1079000017C00894E11CF11C011D111D81E4E8164B
:1079100082E4F8068FE0080780E0180770F3E09132
:107920000401F091050109958091C00087FFE9CF1E
:107930008091C6001F910F91FF90EF9008950E94D3
:10794000763C982F8091C00085FFFCCF9093C600B5
:1079500091362CF490330CF09053892F089597555D
:10796000892F08951F930E949F3C182F0E949F3CCF
:107970001295107F810F1F9108951F93182F882350
:1079800021F00E94763C1150E1F71F9108951F935A
:10799000182F0E94763C803249F0809103018F5F5E
:1079A000809303018530C1F01F9108958091C0003C
:1079B00085FFFCCF84E18093C6008091C00085FFE5
:1079C000FCCF1093C6008091C00085FFFCCF80E102
:1079D0008093C6001F910895E0910401F091050184
:1079E00009951F9108950E94763C803241F0809164
:1079F00003018F5F80930301853081F008958091AA
:107A0000C00085FFFCCF84E18093C6008091C00058
:107A100085FFFCCF80E18093C6000895E0910401CA
:107A2000F09105010995089540E951E08823A1F0FE
:107A30002D9A28EE33E0FA013197F1F721503040CA
:107A4000D1F72D9828EE33E0FA013197F1F7215064
:107A50003040D1F7815061F708953F924F925F9285
:107A60006F927F928F929F92AF92BF92CF92DF924E
:107A7000EF92FF920F931F93CF93DF93000080E16B
:107A80008093C4001092C50088E18093C10086E015
:107A90008093C2005098589A259A81E00E94143D24
:107AA00024E1F22E9EE1E92E85E9D82E0FE0C02ECA
:107AB00010E1B12EAA24A394B1E49B2EA6E58A2E50
:107AC000F2E57F2EE0E26E2E79E4572E63E5462E36
:107AD00050E5352E0E94763C8033B1F18133B9F107
:107AE000803409F46FC0813409F476C0823409F41B
:107AF00085C0853409F488C0803531F1823521F1A3
:107B0000813511F1853509F485C0863509F48DC0BC
:107B1000843609F496C0843709F403C1853709F423
:107B200072C1863709F466C0809103018F5F80932C
:107B30000301853079F6E0910401F0910501099582
:107B40000E94763C803351F60E94F33CC3CF0E94E2
:107B5000763C803249F78091C00085FFFCCFF092DF
:107B6000C6008091C00085FFFCCF9092C600809136
:107B7000C00085FFFCCF8092C6008091C00085FFC9
:107B8000FCCF7092C6008091C00085FFFCCF609250
:107B9000C6008091C00085FFFCCF5092C600809146
:107BA000C00085FFFCCF4092C6008091C00085FFD9
:107BB000FCCF3092C6008091C00085FFFCCFB09210
:107BC000C60088CF0E94763C863808F4BDCF0E945C
:107BD000763C0E94F33C7ECF0E94763C803809F4CC
:107BE0009CC0813809F40BC1823809F43CC1883942
:107BF00009F48FC080E00E94C73C6CCF84E10E94F2
:107C0000BD3C0E94F33C66CF85E00E94BD3C0E94D3
:107C1000F33C60CF0E94763C809306010E94763C44
:107C2000809307010E94F33C55CF0E94763C80333D
:107C300009F41DC183E00E94BD3C80E00E94C73C66
:107C400049CF0E94763C809309020E94763C809343
:107C5000080280910C028E7F80930C020E94763C79
:107C6000853409F415C18091080290910902892B8D
:107C700089F000E010E00E94763CF801E85FFE4FDA
:107C800080830F5F1F4F80910802909109020817AF
:107C9000190788F30E94763C803209F045CF809125
:107CA0000C0280FF01C16091060170910701660F0F
:107CB000771F7093070160930601A0910802B091AD
:107CC00009021097C9F0E8E0F1E09B01AD014E0F09
:107CD0005F1FF999FECF32BD21BD819180BDFA9A17
:107CE000F99A2F5F3F4FE417F50799F76A0F7B1F4B
:107CF00070930701609306018091C00085FFFCCF5F
:107D0000F092C6008091C00085FFFCCFB092C60003
:107D1000E1CE83E00E94C73CDDCE82E00E94C73CFA
:107D2000D9CE0E94763C809309020E94763C8093D3
:107D300008028091060190910701880F991F909386
:107D40000701809306010E94763C853409F4A6C0A1
:107D500080910C028E7F80930C020E94763C8032D0
:107D600009F0B8CE8091C00085FFFCCFF092C6002C
:107D7000609108027091090261157105B9F140E046
:107D800050E080910C02A82FA170B82FB27011C0E2
:107D9000BB2309F45CC0E0910601F0910701319624
:107DA000F0930701E09306014F5F5F4F46175707B7
:107DB000E8F4AA2369F3F999FECF209106013091E6
:107DC000070132BD21BDF89A90B58091C00085FFB2
:107DD000FCCF9093C6002F5F3F4F30930701209355
:107DE00006014F5F5F4F4617570718F38091C00099
:107DF00085FDE5CE8091C00085FFF8CFE0CE81E023
:107E00000E94C73C67CE0E94763C803209F08CCE3F
:107E10008091C00085FFFCCFF092C6008091C00029
:107E200085FFFCCFE092C6008091C00085FFFCCFAB
:107E3000D092C6008091C00085FFFCCFC092C600E2
:107E40008091C00085FFFCCFB092C60043CEE09188
:107E50000601F091070194918091C00085FFFCCF4D
:107E60009093C6009CCF80E10E94C73C33CE0E9415
:107E7000763C0E94763C182F0E94763C112309F430
:107E800083C0113009F484C08FE00E94C73C22CE29
:107E900080910C02816080930C02E5CE80910C02EF
:107EA000816080930C0259CF809107018823880F4D
:107EB000880B8A2180930B02809106019091070123
:107EC000880F991F90930701809306018091080203
:107ED00080FF09C080910802909109020196909359
:107EE000090280930802F894F999FECF1127E091D6
:107EF0000601F0910701C8E0D1E08091080290915D
:107F00000902103091F40091570001700130D9F34B
:107F100003E000935700E89500915700017001308D
:107F2000D9F301E100935700E89509901990009169
:107F3000570001700130D9F301E000935700E89534
:107F40001395103498F011270091570001700130FB
:107F5000D9F305E000935700E895009157000170B0
:107F60000130D9F301E100935700E895329602976A
:107F700009F0C7CF103011F00296E5CF112480919F
:107F8000C00085FFB9CEBCCE8EE10E94C73CA2CD19
:0C7F900085E90E94C73C9ECDF894FFCF0D
:027F9C00800063
:040000030000780081
:00000001FF