:100000000C9471120C9499120C9499120C949912EC
:100010000C9499120C9499120C9499120C9420320D
:100020000C9499120C9499120C9499120C949912A4
:100030000C9499120C9499120C9499120C94991294
:100040000C94A72C0C9499120C9422300C945430DC
:100050000C9499120C9499120C9499120C94991274
:100060000C94A8290C9499120000247E7E3C180060
:10007000954A29942A412A951818DBFFFFFFFFC3F0
:10008000C3FFFFFFFFDB1818FCFC787F7F78FCFCC8
:100090003F3F1EFEFE1E3F3F840203020304010297
:1000A00004060C00FE07FE08FF017C031709B020C0
:1000B00007E6F8F94F00210AE6F8C9697730A7008A
:1000C000220CE6F8E1244BB224E71300230FE6F8F4
:1000D00019936890922C890629C909240EE6F8091B
:1000E000E194741C934E630E01250DE6F8895222AB
:1000F000859D94488701260EE6F8A961922561A5A1
:10010000295372182709E6F809699D6F00280DE642
:10011000F829611AA6E534CE1100290CE6F8E16A47
:100120009C16D330C7002A0EE6F8C959521AC329C3
:10013000A9E514002B0AE6F8596B8396E60C2C0906
:10014000E6F8F941D4740C2D09E6F87919746E00BB
:100150002E09E6F8F941D429002F0BE6F859C234EC
:10016000AC86390D300AE6F8C95AD4BFE904310922
:10017000E6F8C9A1DA7127320CE6F8A95396868D04
:10018000830E03330DE6F889831A867292453B018C
:10019000340DE6F819422D894A8398E604350DE6B8
:1001A000F88983920E719A64D14E360DE6F8C95AD9
:1001B000980E519664D14E370CE6F889831AA661E1
:1001C0005AA700380EE6F8A9539664D1942559B47D
:1001D00013390EE6F8A9539664D19086994E013AE8
:1001E0000BE6F8B9893A26EA14003B0BE6F8B98920
:1001F0003A266A3A063C09E6F899C3729D0C3D0B13
:10020000E6F8390D3A30E88C003E09E6F819E36269
:100210009D053F0CE6F8A95316567330A700400D14
:10022000E6F8A95396244B9725DE094110E6F8A974
:10023000539664C9A064499664390C420DE6F88966
:100240004316356D51CB9013430BE6F8A95396A492
:100250006DD14E440BE6F8894316F52F434E450EFB
:10026000E6F8898392A64394A6830E03460DE6F82A
:10027000898392A64394D66900470DE6F8A9539660
:10028000A425258B76024811E6F889599225593222
:1002900028599225590E034909E6F8A963DA71270E
:1002A0004A0BE6F8C963DA54D329004B0FE6F88904
:1002B0005912553231C9A25A0E034C0AE6F889691F
:1002C000AF830E034D0FE6F8895962E996644996AB
:1002D00064390C4E10E6F88959922552D249C992D8
:1002E0002C87014F0FE6F8A9539664499664491686
:1002F000ED04500EE6F889439425593244699D0671
:10030000510FE6F8A9539664499674CA941C065294
:1003100010E6F8894394255932444916D57218538A
:100320000DE6F8A95396C47392453B01540AE6F8CA
:10033000898396F64E015510E6F88959922559920F
:10034000255992453B015610E6F889599225599254
:10035000454996843905570FE6F8895992255992EF
:10036000257D4A72025810E6F88959924549588904
:10037000B224CB6100590DE6F8895992454998B6E7
:1003800053005A0BE6F889831A761D74185B0AE647
:10039000F8E12DEDEB8E005C0BE6F889711A57E35E
:1003A0001C065D09E6F8E1B5DF76045E0BE6F809A8
:1003B000611265395F005F08E6F8F9B7410160082E
:1003C000E6F8E1763E01610DE6F8B9CDD19064D151
:1003D00090C300620FE6F889693A44599225593270
:1003E000E404630BE6F8B94D599266D14E6410E609
:1003F000F859D26848B2244BB268C86100650BE670
:10040000F8B94D593244F14E660BE6F8C95A541CFE
:10041000D33A09670EE6F8B94D5992255934A4D15B
:10042000046810E6F889693A445992255992E530F2
:1004300000690AE6F8C939A636EE046A0BE6F859EF
:10044000724CED5493006B0EE6F889692D89A22D4C
:10045000AAE530006C09E6F8A96A8F3B016D0BE64E
:10046000F8392951D2FF0E036E0EE6F83925929421
:1004700064499664390C6F0CE6F8B94D59922559C8
:10048000B413700FE6F8390D51966449960C519AE1
:1004900002710EE6F8B90D49966449160D690572A8
:1004A0000CE6F839259294A4751A00730BE6F8B996
:1004B0000D493C27434E740CE6F8C9693668695902
:1004C0008701750EE6F839654996644964C961008B
:1004D000760EE6F839654996645112E61400770CF9
:1004E000E6F839654996F429C909780DE6F83965C1
:1004F000511256A22C8701790DE6F83965499664A8
:100500005112B6027A0BE6F8390D62E3A0C3007B04
:100510000CE6F829615A8CD3728E007C09E6F80942
:10052000697F87007D0BE6F8E16A394C8B39067EDE
:100530000AE6F8B94549A79C15A007E6F8F94F0067
:10054000A10AE6F8C9399876A700A20DE6F859C3C2
:1005500029E99694C61C02A30DE6F8C95A541CD387
:1005600028497402A40FE6F83925A524CAA2244A12
:10057000EA3000A50FE6F88959944483960D5A9AFB
:100580005300A60BE6F8C9691D4CEB1400A70CE656
:10059000F80953AC456D72B413A808E6F8E124E7F6
:1005A0000FA910E6F8A943124A89124989980C3913
:1005B0000CAA0BE6F8112D097568E70DAB0EE6F8ED
:1005C0003926511225611226390CAC09E6F8791941
:1005D000D43A15AD08E6F879DA3902AE10E6F8A992
:1005E00043122A964889C464C86100AF09E6F8D16D
:1005F00041E76700B00AE6F8112D6AD3F904B10D9E
:10060000E6F8C9693668690E0D3A0CB20BE6B8C255
:10061000240DC39D4F00B30AE678E430CE74BE01CA
:10062000B409E6F829619D8F00B50EE6F8396549F1
:10063000966449A42CD514B612E6F8E12159922506
:100640005922254BB2244B7218B708E6F839DA392B
:1006500002B808E6F8F9874C03B909E6B842B5B81C
:10066000F309BA0BE6B8C224CCB19D4F00BB0EE62D
:10067000F839256112265112253905BC0EE678425B
:10068000B525D4926C08D39C00BD0DE67842B52503
:100690004CD2B0BAC300BE0FE638E430CE94504B13
:1006A000B2214C7302BF0BE6F8C9399886B56827AA
:1006B000C012E678E21C9BB2244B06254BB224CB39
:1006C0006100C112E6F8C21C9BB2244B06254BB256
:1006D00024CB6100C212E6B8C22487A62CC992417D
:1006E000C9922CC97218C313E678948A0E4D599298
:1006F000258392255992E53000C412E6F8812487BB
:10070000A62CC99241C9922CC97218C512E6B8C26A
:10071000240CA72CC99241C9922CC97218C610E6A4
:10072000F8A943524BB2214AB2244B7618C70DE6C2
:10073000F8A95396A46DD19A6900C80FE678E21C17
:100740001A94341DA2341D7418C90FE6F8C21C1A7D
:1007500094341DA2341D7418CA10E6B8C22447068A
:10076000254D87284D071D06CB10E6F88124470646
:10077000254D87284D071D06CC0BE678E21C1BD3C0
:100780008E3B01CD0BE6F8C21C1BD38E3B01CE0B7A
:10079000E6B8C22487C6B4E34ECF0BE6F8812487BF
:1007A000C6B4E34ED00CE6F8A95BD4B2449D760201
:1007B000D112E678948A8E644996484927254BB22F
:1007C0001C06D210E678E21C9BB2244BB2244BB23A
:1007D0006827D310E6F8C21C9BB2244BB2244BB25C
:1007E0006827D411E6B8C22487A62CC9922CC992D6
:1007F0002CDA09D511E678948A0E4D599225599232
:100800002559B413D611E6F8812487A62CC9922C59
:10081000C9922CDA09D70CE6F8D94A495889B29C12
:100820000AD80EE6F849D11429FD8B144D3908D9A0
:1008300011E678E21CCA922CC9922CC9922CDA09D2
:10084000DA11E6F8C21CCA922CC9922CC9922CDA91
:1008500009DB12E6B8C22447B2244BB2244BB224BF
:100860008B7602DC12E6F8812447B2244BB2244B8B
:10087000B2248B7602DD0EE6F8C21CCA922C4AC264
:10088000B49D02DE0CE6F8A9E916F5B4E52400DF14
:100890000EE6F8A9539644952CAA25894EE00EE65B
:1008A000F8E13A3647439245430E03E10FE6F82953
:1008B000618ECDD19064D190C300E210E6F8096159
:1008C00092437334245934E43000E310E6F861A510
:1008D000A2437334245934E43000E40FE6F8A94904
:1008E0000ECDD19064D190C300E510E6F8096112F5
:1008F000867334245934E43000E60DE6F8B98D49A6
:100900003425E190C300E70DE6F8B94D599266D160
:100910009A6900E80DE6F8E13A3665C910C53B0171
:10092000E90DE6F829618E4D593244F14EEA0EE6A2
:10093000F80961924353960C51BC13EB0DE6F8A9EC
:10094000490E4D593244F14EEC0AE6F8E13AA6362A
:10095000EE04ED0BE6F829618EA98D3B01EE0BE666
:10096000F8096192436AE34EEF0BE6F8A9490EA934
:100970008D3B01F010E6F88124ACC4D19064499617
:1009800064D14EF111E6F861A5A22389242559927C
:1009900025590E03F20DE6F8E13A3665499664D121
:1009A0004EF30EE6F829618E4D59922559B413F491
:1009B0000FE6F8096192435396644916ED04F50F6A
:1009C000E6F861A5A2435396644916ED04F60EE6D7
:1009D000F8A9490E4D59922559B413F70BE6F85969
:1009E0007368D0A19C01F80DE6F8B90D49A4B4488C
:1009F000C99013F90EE6F8E13A942559922559B4B5
:100A000013FA0FE6F829610E654996644916ED045C
:100A1000FB10E6F8096192235992255992453B0152
:100A2000FC0FE6F8A9498E644996644916ED04FD69
:100A30000FE6F829610E654996645112B602FE1060
:100A4000E6F889693A44599225593244690AFF0FF8
:100A5000E6F8A9498E644996645112B60200000076
:100A600010016405F101C905CA022E0669FFFF01E4
:100A70000013E6F8811D9AB2244B06254BB224CB15
:100A8000610001010FE6F8A93B3447439245430E4C
:100A900003010213E638B26887A62CC99241C992B5
:100AA0002CC97218010310E6F8D12CDAA1391A9278
:100AB0002C1A7218010412E6F8A9539664C9A064AE
:100AC000499664619C0001050FE6F8B9CDD19064A8
:100AD000D190A5120001060EE6F8C21C9BB2246D4F
:100AE0008B760201070EE6F829618E4D599266D188
:100AF0004E01080FE6B8C22487A62C49DBA29D0050
:100B000001090FE6F8096192435396A459B4130101
:100B10000A0EE6F8911C9BB2246D8B7602010B0E37
:100B2000E6F8C9393665499A453B01010C0EE6786D
:100B30008A39366549DA16ED04010D0FE6F8E1242D
:100B4000CCB1294BD22CDA09010E0EE6788A393461
:100B50006451FF32E404010F13E6F8923007D368C2
:100B600048B2244BB268C8610001100EE6F8894310
:100B700016B52C51972127011111E6F849E1180DFE
:100B800049966449160D390C011210E6F8811D19B9
:100B900094341DA2341D741801130EE6F8A93B34D9
:100BA00065C910C53B01011411E638B26847062536
:100BB0004D87284D071D0601150FE6F8D12CDAA147
:100BC000294B8628DE09011610E6F8911C1A943488
:100BD0001DA2341D741801170EE6F8C9393665C90F
:100BE00010C53B01011810E6F8898392A64394A62C
:100BF00083964A0001190EE6F8B94D593244F1982E
:100C00004A00011A11E6788A393428693A44693A67
:100C1000E83000011B0FE6F8E124CCB1294B86280F
:100C2000DE09011C10E6B8C22487A62C494B4A16DF
:100C3000ED04011D12E6F8096192435396644916CA
:100C40000D693401011E10E638B26887A62C494BA5
:100C50004A16ED04011F12E6F8D12CDAA1294BB295
:100C6000248B86349A0001200FE6F8911C9BB22455
:100C70002D2959B413012111E6F8C9393665499671
:100C800064D19046130001220FE6F8A95396A425DB
:100C9000258BD64C03012312E6F89130D5B1294BB0
:100CA000B2248B86349A00012414E6B8C22447B2D9
:100CB000244BB26450B2244BB21C06012513E6B893
:100CC000C22447D27488B2244BB224CB61000126DF
:100CD0000FE6F8A951322C5134447D870101270DCC
:100CE000E6F8A9E190A55BD43B0C01280DE6B8928B
:100CF00028C9A131EDB81301290DE6F8E1244A72A3
:100D00004C6DDC09012A0CE6F8811D1AD38E3B01DB
:100D1000012B0BE6F8A93BA436EE04012C0CE638B7
:100D2000B26887C6B4E34E012D0CE6F8D12CDA2167
:100D3000B57127012E0CE6F8A963DA714C25000184
:100D40002F0CE6F8C939A6368EA90401300CE6F856
:100D5000911C1BD38E3B0101310AE6F8B9A98D3BEA
:100D600001013210E6F88991922559922559D2292C
:100D700027013313E6F889590E444A96644996646C
:100D80004996490001340EE6F8C22487C6B4A9A6E4
:100D9000530001350DE6F8296192436AA79A0601CE
:100DA0003611E6F8895912553231C9A25A986900AC
:100DB00001370FE6F889692D89A22DAA85990601C8
:100DC000380EE6F8B945954C4CB228870101390C2C
:100DD000E6F8C21C4A7B1D7418013A0BE6F8C21CE7
:100DE000537BDC09013B0CE6F88969AF8398690005
:100DF000013C0BE6F8A96A8F6BA601013D0DE67870
:100E00008A3994F63AE83000013E0BE6788A39A632
:100E1000F6B813013F0CE6F8896953351D741801C3
:100E2000400CE6F8A96A4B96863B0101410CE6F8B6
:100E3000A9554DAD0E390C01420CE6F8A96AAAA9D4
:100E4000C59D00014312E6F8C21CCA922C91924E35
:100E50004A9664390C014411E6F829610E259294F2
:100E600064499664390C014511E6F8895992255276
:100E7000D249C992AC180201460FE6F8392592947E
:100E800064499664C510014712E6788A3994255959
:100E900022259D942CC97218014812E6F8E124CC51
:100EA000A14492922CC9922C870101490EE6F85177
:100EB000358C934C89FA0E03014A12E6F88959924F
:100EC0002552D249C9922CCD2400014B10E6F839A5
:100ED00025929464499664692601014C11E6F881D3
:100EE0001D9AB2244BB2244BB26827014D0EE6F88E
:100EF000A93B3465499664D14E014E12E638B2687A
:100F000087A62CC9922CC9922CDA09014F10E6F859
:100F1000D12CDAA1294BB2248B7602015013E6784A
:100F2000A224CAA1294BB2244BB2248B76020151D0
:100F300011E6F8E128897268CA922CC9A29D0001C5
:100F40005211E6F8A943524BB2444AB2241C72181B
:100F500001530EE6F8B94D498B9484430E030154B6
:100F600013E6F8C21C1AA22CC992214AB2A896C351
:100F70000001550FE6F829610E259294A4751A0018
:100F8000015612E6F8894394255932444916D58A08
:100F9000210001570EE6F839259294A475200C0122
:100FA000015813E6788A39344459922543946451A0
:100FB0002D870101590FE6F8E124CCA1449292B4A7
:100FC0004E03015A0FE6F8C21C9BB2249E932CDA02
:100FD00009015B0EE6F829618E0D493C27434E015D
:100FE0005C10E6B8C22487A62C89E7248B76020120
:100FF0005D0FE6F8096192434312CFC99013015E79
:101000000FE6F8A95396C47392456BA601015F0ED3
:10101000E6F8B90D493C27439A690001600FE6786C
:101020008A393665493C2759B41301610FE6F8E166
:1010300024CCB12189E764C80901620CE6F88983F0
:1010400096F69C690001630EE6F8C969366869592D
:10105000CD240001640DE6788A39346869EF140004
:1010600001650EE6788A399866839696751801664A
:101070000DE6F88983960D5ADA4E0101670EE6F8FF
:10108000C9D9A0658396C63A0C016813E678948A9C
:101090008E644996644996644916ED04016911E627
:1010A000F861A5A2235992255992453B01016A1284
:1010B000E6F8811DC9922CC9922CC9922CDA09013B
:1010C0006B0FE6F8A93B922559922559B413016C90
:1010D00013E638B26847B2244BB2244BB2248B7665
:1010E00002016D11E6F8D12CDA912CC9922CC9A21B
:1010F0009D00016E12E6B8C224CC2A59922559925D
:101100002559B413016F10E6F809611266952CC9D0
:10111000922CDA09017014E678A224CA912CC992A3
:101120002CC9922CC9A29D00017111E6F8E1288911
:1011300072244BB2244BB26827017212E6F8895927
:101140009225599225599245632A0101730FE6F8B9
:10115000396549966449168DA904017412E6B8C22E
:101160002447B2244BB2244BFA94E404017510E6F0
:10117000F8096192235992257D4A7202017610E6A0
:10118000B8C22447B2248B92306DA700017711E6D4
:10119000F809619223599225599484AD0001781081
:1011A000E6F8812447B2248B92306DA70001790EB6
:1011B000E6F8C21C1AD4B0EBA0C300017A0EE6F820
:1011C00029610E0D62E3A0C300017B0EE6F8911CBD
:1011D0001AD4B0EBA0C300017C0DE6F8C9393488FD
:1011E0008D830E03017D0EE6788A3934A861D741DC
:1011F0008701017E0EE6F8E124CCA1416C1C741835
:10120000017F0CE6F8C95A1AAAED240001800DE608
:10121000F8A9E190A55BD4B41301810FE6F8A953B6
:10122000524B3231C9924C2701820EE6F88943961F
:10123000A65BD432E404018311E6F88943940E518D
:10124000966449960C390101840CE6F8A9A1758BC6
:101250009A760201850CE6F8A9A1BA453DED040194
:10126000860CE6F8A95396B664D14E01870DE6F8D0
:1012700049CA9425695BB41301880DE6F899252DB8
:10128000AA46994E0101890EE6F8894316B52C51FC
:10129000972127018A10E6F8A953524BB2244BB28A
:1012A00024D309018B10E6F8A9435A1A922CC9A23B
:1012B000218701018C11E6F8A9431A0D499664496A
:1012C000160D390C018D0FE6F8B94D599245739200
:1012D000451300018E0EE6F889835A1AD2CAA0C3BC
:1012E00000018F0FE6F8A953962683922559B4136F
:1012F00001900EE6F8A95396C4539A453B0101911B
:101300000EE6F8A94394A65B5ACC410001920FE681
:10131000F819C2240BC7344BC21C0301930FE6F823
:1013200049CA94256949C9A29D00019410E6F8892B
:101330005992454996849530A70001950DE6F889A4
:10134000692A25FDA79C0001960AE6F8A96ACF390B
:101350000101970CE6F8A9631A8E69B81301980F7A
:10136000E6F889915213C5248B6A390C019911E66C
:10137000F8E130C9D22C89A22DAAE53000019A0CDF
:10138000E6F8A96A714CC39D00019B0FE6F8A949D4
:1013900018AA619225599213019C0DE6F88949FF1C
:1013A000FF94E83000019D0EE6F8A9514F4A944899
:1013B0005D7210019E0FE6F8392592946449966497
:1013C0006905019F10E6F8A9539664C9A0644916FF
:1013D000ED0401A00DE6F8499152EADF740A00011C
:1013E000A10FE6F859D268CA922CC9A29D0001A2A9
:1013F0000DE6F8A9612225FD4F751801A30DE6F849
:10140000B92551D29FEA300001A40DE6F8894316B0
:10141000356D699D0401A511E6F8A9613A44599218
:1014200025593244690A01A611E6F889E91065498F
:10143000960C519245710E01A70EE6F8A9539646F7
:10144000539A453B0101A80DE6F8390D7134C543A7
:101450000E0301A90DE6F8898314178B830E03018F
:10146000AA0EE6F8A961128E694B98230001AB0E13
:10147000E6F8C96936686959CD240001AC0DE6F873
:10148000A943524BD2EE140001AD0EE6F8295A9A48
:101490000D5A5AD6610001AE0BE6F8898396F6AC78
:1014A0000301AF0DE6F84949A444FD9B4E0101B08C
:1014B0000EE6F83924911275D1929C0001B111E623
:1014C000F8A94994255992255992453B0101B20F3B
:1014D000E6F88951B7244BB2248B760201B30DE6AE
:1014E000F88959D412A6ED140001B40EE6F899A3B8
:1014F000A45B9225A1580501B50FE6F889831A4629
:101500008314A6830E0301B60EE6F8390D62344843
:10151000E1A0C30001B70DE6F88983589C932CDA4B
:101520000901B80EE6F889831487539A453B0101F7
:10153000B90EE6F8390D521C4E69164D0001BA0E6F
:10154000E6F8390D62284753164D0001BB0FE6F847
:10155000A9531666431686830E0301BC0EE6F8896E
:10156000839225733519720201BD0CE6F8B90D514D
:101570003A473B0101BE0DE6F8C9E198CA4916EDAC
:101580000401BF0FE6F83925929444954C4C530062
:1015900001C00AE6F8C969DF290001C111E6F8A90E
:1015A000499664499664499664494E01C20DE6F82D
:1015B000C9693886639A530001C30CE6F8A9DB3188
:1015C000CDC19C0201C411E6B89230472CFD222502
:1015D0005222293A0C01C512E6F89162242659B22A
:1015E00074911249D1610001C612E6B89230C7D297
:1015F0007048BA488936E4300001C711E6F88959C5
:10160000922559922559D2A2E40401C812E6F8891C
:101610005992464A966449962C69260101C90EE6FC
:10162000F889523591FAB2A4990401CA0CE6F889F6
:1016300052D2FF5F740201CB0EE6F88952524B96EC
:10164000FEAF990401CC0EE6F859724051FABF661C
:10165000120001CD13E6788A39366549960C4A9610
:10166000644996C30001CE10E6F8E124CCB1391AE2
:10167000922C1A721801CF0CE6788A3936A61D779B
:101680000201D00CE6F8E124CC31B5712701D1116B
:10169000E6788A393665499664499664D14E01D216
:1016A00010E6F8E124CCB1294BB2248B760201D3A9
:1016B00012E6788A39942559922559922559B413FE
:1016C00001D411E6F8E124CCA12CC9922CC9A29D29
:1016D0000001D512E6787628C9912CC9922CC992BE
:1016E0002CDA0901D611E6F8811D4A72244BB22486
:1016F0004BB2682701D711E6F8C24A8E6449966456
:10170000499664D14E01D811E6F8C21C4B72244BA5
:10171000B2244BB2682701D912E6788A951CC99287
:101720002CC9922CC9A29D0001DA11E6788A39965B
:10173000E4489664499664D14E01DB12E678E230C3
:10174000C9912CC9922CC9922CDA0901DC11E678D6
:10175000E21C4B72244BB2244BB2682701DD0CE62D
:10176000F8B9CDD19064D14E01DE13E6787628C960
:10177000A1294BB26450B224CB610001DF11E6F81D
:10178000811D4A72688E86248B861C0601E012E653
:1017900078762CC7A62CC99241C9922C870101E109
:1017A00010E6F8811DCBB1391A922C1A721801E299
:1017B00014E6F881214786A496644394644996EC24
:1017C000300001E30FE6F8A93B3426D19484430EA0
:1017D0000301E40FE6F8A95396A491122959B41312
:1017E00001E510E6F8B94D599225593424833401A6
:1017F00001E60FE6788A393665495A52B268270100
:10180000E712E6F8E124CCB1294BB2248B86349A56
:101810000001E812E6788A399425512513932CAA01
:10182000E5300001E911E6F88124CCD25A12455B7B
:1018300054CB610001EA11E6F8A953966449966415
:1018400049166DB10401EB0FE6F8B94D59922559CF
:10185000B4C5120001EC13E6F8811D9AB2244BB214
:10186000244BB2688B250001ED10E6F8A93B3465E6
:10187000499664D1164B0001EE0FE6788A39348818
:10188000C539C9A29D0001EF10E6F8E124CCA141C1
:101890002CCE49164D0001F00DE6F8094998636A0F
:1018A000A79A0601F110E6F8898AD22F52222592D2
:1018B000A2C30001F210E6F8896292254B17299124
:1018C000141D0601F30FE6F8C96938245DA4441B12
:1018D000721801F40FE6F8C21C9BB2242D2959B4EA
:1018E0001301F511E6F829618E4D5992255934A45A
:1018F000D10401F60DE6F8894996644BFF534E0179
:10190000F710E6F8898924255912553231A70101CB
:10191000F812E678E21CCA922C91924E4A966439EB
:101920000C01F911E6F8E13A94485292255992E5F2
:10193000300001FA12E6F8C2344CC270CA9241C9B2
:10194000922C870101FB11E6F8C2344CC2708E86DE
:10195000248B861C0601FC13E6F8C21C1B925A92CB
:101960000D51922559B2C30001FD10E6F829618E90
:101970008D493425E190C30001FE11E6F8C21C88B0
:10198000A648E95FA468CA410001FF10E6F8296192
:101990008E0D49A4B448C99013020014E638A22C55
:1019A000CA91294BB26450B2244BB21C06020111F9
:1019B000E6F8D1288B72648E86248B861C06020280
:1019C00013E678A62C47A62CC99241C9922CC9725D
:1019D00018020310E6F8E129CB91391A922C1A72F9
:1019E00018020412E638A22CCA814149D3214AD3F5
:1019F000418701020510E6F8D1288B7264CA922152
:101A00008A7702020612E638A22CCA814149D32104
:101A10004AD341870102070FE6F8E129CB91294B10
:101A20008628DE0902080DE638A22CCA9131EDB8ED
:101A30001302090DE6F8D1288B72446DDC09020A05
:101A40000CE678A62C47C6B4E34E020B0CE6F8E190
:101A500029CB11B57127020C13E638A22CCA9129A3
:101A60004BB2244BB2248B7602020D11E6F8D1283A
:101A70008B7264CA922CC9A29D00020E12E678A64F
:101A80002C47A62CC9922CC9922CDA09020F10E619
:101A9000F8E129CB91294BB2248B7602021014E68F
:101AA00038A22CCA8121CA922C19A2248B6A390C23
:101AB000021110E6F8D1288B722091A424ADD30036
:101AC000021214E678A62C0786284BB26488922C62
:101AD000AAE5300002130FE6F8E129CB8144929287
:101AE000B44E03021414E638A22CCA812CC9922CDD
:101AF000C9922CC9A29D00021511E6F8D1288B725B
:101B0000204BB2244BB26827021613E678A62C07A6
:101B1000B2244BB2244BB2248B7602021711E6F8A2
:101B2000E129CB812CC9922CC9A29D0002180FE695
:101B3000F8A95396C47392456B980102190EE6F802
:101B4000B90D493C27431A6600021A0CE6F889834E
:101B500096F61C6600021B0DE6F8C96936686959DD
:101B6000AC01021C0DE6F8A9531656D2CA90130216
:101B70001D0DE6F8B94D5958492B4304021E14E6D1
:101B8000788A3994255992258392255992E5300017
:101B9000021F13E6F88124CCD27488B2244BB224FD
:101BA000CB6100022012E6F8898924255992255933
:101BB0009225599A03022110E6F819D26C6A52A2B2
:101BC0002419B21C02022210E6F8A94994255934BE
:101BD000654916ED0402230FE6F81993288BA62C0D
:101BE000C9A29D0002240DE6F889831A761DD44C03
:101BF0000202250DE6F8390D62E3A0661200022606
:101C000013E6F8911C9BB2244B06254BB224CB6102
:101C10000002270FE6F8C9393647439245430E03C1
:101C2000022810E6F8898392A64394A6839A490075
:101C300002290EE6F8B94D593244F19C4900022AB6
:101C400011E6787628C9A1294BB2244BB268270245
:101C50002B11E6F8811D4A7268CA922CC9A29D0018
:101C6000022C11E67836A5A243539664499664D1B6
:101C70004E022D11E6787648A9E8D0942559924570
:101C80003B01022E11E6F8911C9BB2244BB2244B6F
:101C9000B26827022F0EE6F8C9393665499664D135
:101CA0004E023011E678762CC7A62CC9922CC9A218
:101CB0009D00023110E6F8811DCBB1294BB2248B77
:101CC000760202320FE6F8811DC9922C4AC2B49DF9
:101CD0000202330FE6F8A93B922559924549D80AEA
:101CE00002340DE6F8C969AB98645A8E0102350FCB
:101CF000E6F8396D5149891249CB210002360EE6CA
:101D0000F8C9693864A99844494E02370BE6F819B6
:101D1000D23ED5340002380CE6F8C969714A7ADA45
:101D20000902390CE6F8B94D494F635A03023A11DA
:101D3000E6F8A98B9644CAA0B4484996C300023B72
:101D40000FE6F8C94312255197B0B2C300023C0E0A
:101D5000E6F8B90D49A4D4A464C809023D0CE6F81C
:101D6000A98D639A0E390C023E0FE6F889C394647C
:101D7000621A6A494E01023F0EE6F8B90D493C2746
:101D80004318470002400BE6F8390D62E77801027C
:101D9000410DE6F8A9539666625AA70002420CE686
:101DA000F8B9CD6926E6140002430FE6F8A95B14E2
:101DB0006D51B244A59D0002440DE6F8A9512FC310
:101DC00012B5E904024511E6F8C961922559126578
:101DD000499664390C024611E6F889C390255134BE
:101DE0004449260E3A0C02470EE6F899B329A90C8D
:101DF0009138E40402480CE6F819D28E6354D300FB
:101E000002490DE6F81972302D8E514D03024A0F2A
:101E1000E6F8A94A49C9922C892C6939024B0EE689
:101E2000F8B92925254B224B1A07024C0EE6F8A9D2
:101E30005BD4326451EF3000024D0CE6F8B92599BD
:101E4000188E3909024E0EE6F8895932484998B67B
:101E50005300024F0EE6F8396549960C5212B6024D
:101E600002500DE6F8390D51960C51BC1302510E7B
:101E7000E6F8B92925254B224B0E0302520FE6F84E
:101E800039259294648994243A01025311E6F86149
:101E90002DAA0E51966449960C390102540CE6F8AD
:101EA000B94D599A64D14E02550EE6F8B90D491A4A
:101EB000554A630E0102560CE6F819D26CEADB9C17
:101EC0000302570CE6F849619A4D7DDB0902580C74
:101ED000E6F8B94D5934A4D14E02590CE6F8B9CD03
:101EE000D19064D14E025A0CE6F8B9C9D222653AB3
:101EF00005025B0CE6F8B94D59A4957602025C0C1C
:101F0000E6F8B94D592665D14E025D0EE6F8B929BD
:101F1000A524CAA24CA700025E0DE6F8B94D59925D
:101F20004859B413025F0BE6F8B9368E514D0302DF
:101F3000600DE6F859D268EADB9A690002610FE6A3
:101F4000F8B94D5992255934A4D10402620DE6F82E
:101F5000B90D491A2959B41302630FE6F8396549D6
:101F60001625591256C20C02640EE6F8B9255152D4
:101F70000B9330A70002650FE6F83965499664496E
:101F8000160D6905026612E6F8E1294BD221CA92C4
:101F90002CC9922C8701026713E6F8E1294BD22164
:101FA000CA922CC9922CCD240002680CE6F8C939DB
:101FB000A68663B81302690BE6F8B9A52D614E0138
:101FC000026A0AE6F8B98D697127026B0DE6F8A975
:101FD0006AA854C434DC09026C0DE6F8A96AA82585
:101FE000E118EE04026D0BE6F8A96ABF8411000245
:101FF0006E0FE6F8896A3A442DD9B4443509026F68
:102000000CE6F83925FD4F890E0302700CE6F8390D
:1020100025FD4F895A0102710DE6F8392951D2FF89
:102020009A490002720BE6F8B96D517F4C010273B8
:102030000CE6F8396D51BFC6090002740EE6F83996
:102040006589947452B21C0602750DE6F8B94D59B3
:10205000322859B41302760FE6F8B90D492D919242
:1020600070C8610002770CE6F8B94D59D2A7242751
:1020700002780EE6F8C9693825FD694C330002790B
:102080000CE6F839A795C892C300027A0CE6F85915
:10209000D22E91258701027B0BE6F8B936D5D638CA
:1020A00001027C0CE6F839259294A45D01027D0DB5
:1020B000E6F839259294A42D6108027E0CE6F839E1
:1020C0006A5192D66900027F0CE6F8B969519CD634
:1020D000610002800FE6F8390D51960C5196643973
:1020E0000C02810FE6F8396549960C51960C3901BE
:1020F00002820EE6F8B90D493C2743146B000283B7
:102100000EE6F819C2244BDB9230C70002840FE6BA
:10211000F819C2244BC3314BC21C0302850BE6F8ED
:10212000192B694B981302860FE6F819C2244B8BC2
:102130005312E6180002870CE6F839C9696DD0D24F
:102140000C02880CE6F8C969366869670502890FD0
:10215000E6F83965C9A0644964C96100028A0EE6DF
:10216000F839295212654916ED04028B0DE6F8394B
:10217000B5255912653A05028C0EE6F83956B22497
:10218000CA922C8701028D0EE6F8B92551D2B724E8
:10219000CB6100028E0FE6F859C296284BB224CBD1
:1021A0006100028F0DE6F839655112A6750A00022A
:1021B000900DE6F8390D62E3A0C50A0002910DE624
:1021C000F8390D624B3468610802920DE6F8390D5A
:1021D00062714EB2680202930FE6F8390D62284729
:1021E0004392454B0002940DE6F8A9539666625A55
:1021F000A70002950CE6F8A95396C46A3B0502961F
:102200000CE6F8C969554EB2682702970DE6F8A9A1
:102210005396A4BD45130002980CE6F8B94D59D267
:102220002DDA0902990FE6F8390D51960C51960CEA
:102230003901029A0DE6F8B94D59A4D4A29D0002C5
:102240009B0FE6F859C26C48D248C9A29D00029C77
:102250000FE6F8396549960C4A9664390C029D0ED2
:10226000E6F819724C6D1B9228D300029E0DE6F819
:102270003965516DAA646905029F0BE6F839A5AD71
:10228000830E0302A00CE6F859C26CEADB5A020284
:10229000A10EE6F8A95396666238E6140002A20E73
:1022A000E6F8A95396C46A38E6140002A30FE6F8CC
:1022B000C96938245DA4441B721802A410E6F8C949
:1022C0006938245DA46452D24C0202A510E6F8C914
:1022D0006938245DA4441BC21C0102A60DE6F8A9BE
:1022E000C5414AB2A84D2702A712E6F849954E43C8
:1022F00096644996845A12660002A811E6F8A9C5A8
:10230000254AB2244BC224CC110002A90FE6F8A939
:102310005A541DA2A4BF66120002AA0FE6F8896AE9
:102320004512932C4A869C0002AB0FE6F8896A3A64
:10233000442D9936E8300002AC0EE6F889494F4941
:102340008EF429C90902AD0FE6F8D90625CB8141E3
:10235000C9722A0002AE0CE6F8D12CEAFFB656008C
:1023600002AF0CE6F8D12CEAFFB6C60102B00DE6CA
:10237000F8813415932CC9790302B10DE6F8913038
:1023800015932CC9790302B20DE6F8A11C4CB324B5
:10239000CCB90202B30CE6F86131C9D29C570002F5
:1023A000B40CE6F8296996843A6F0002B50CE6F899
:1023B0002969968472CE0D02B60EE6F881244B325E
:1023C00031C9741E0102B70DE6F8D1A4A7244B72DF
:1023D000DE0002B80DE6F8E1244B4235D3B9020223
:1023E000B90BE6F8A1344C73BE0102BA0CE6F881D1
:1023F000A8256AE7130002BB0AE6F82961AAF309D7
:1024000002BC0AE6F8096A98F30D02BD0AE6F8096B
:10241000629CF309FB0011E6F8C9539225D12025EF
:102420005992253901FB010DE6F8C95A541CA4BE86
:10243000C300FB020CE6F8C9539741EA3B0CFB03CF
:102440000DE6F8A953D26D50FA7718FB040EE6F8A2
:10245000A943D29741E9DF6100FB0511E6F8C961A4
:10246000920D899225599245390CFB0611E6F8C95F
:102470005A920D499425591265390C00000000004C
:102480000800020100000304070000000000000033
:1024900000010204081020408001020408102001FD
:1024A00002040810200404040404040404020202C8
:1024B00002020203030303030300000000230026BB
:1024C00000290000000000250028002B000000006B
:1024D00000240027002A0002101C0629852C8430C5
:1024E000ED1C11241FBECFEFD8E0DEBFCDBF12E040
:1024F000A0E0B1E0EAECF9E602C005900D92A03B45
:10250000B107D9F725E0A0EBB2E001C01D92AB3CCA
:10251000B207E1F714E2C0EED4E204C02297FE0154
:102520000E943233C83DD107C9F70E94C8300C94CD
:10253000D8340C940000CF92DF92EF92FF920F9369
:102540001F93CF93DF936C017A01EB01E60EF71E28
:1025500000E010E0CE15DF0561F06991D601ED9144
:10256000FC910190F081E02DC6010995080F191F1B
:10257000F1CFC801DF91CF911F910F91FF90EF90A4
:10258000DF90CF9008950F931F93CF93DF93EC01CB
:102590008C010C5F1F4FFC01E058FF4F0190F08150
:1025A000E02DC80109958E3F2FEF920780F4FE01C0
:1025B000ED57FF4FCE57DF4F9C0140816881C80126
:1025C0000E942622288190E0820F911D888381E05D
:1025D00090E0DF91CF911F910F910895CF92DF92FC
:1025E000EF92FF920E94F12C6B017C0180EDC80EEE
:1025F00087E0D81EE11CF11C0E94F12C6C157D05B2
:102600008E059F05F8F48AED92E00E94451F2BE2AB
:1026100031E048E163E28AED92E00E94D72225E3AF
:1026200031E04AE26AE08AED92E00E94D7228AED28
:1026300092E00E94281F8AED92E00E94571F8111AC
:10264000E6CFDACF1092D5021092D402FF90EF902D
:10265000DF90CF900895CF93DF93EC0129E431E030
:1026600040E16AE08AED92E00E94D7222DE531E058
:1026700040E26AE08AED92E00E94D72220E731E052
:1026800040E36AE08AED92E00E94D7228AED92E070
:102690000E94281F269721F41092D5021092D4028E
:1026A000DF91CF9108950F938230910539F08530F5
:1026B000910541F0019799F484E101C08CE2809387
:1026C00014010DC0809114018E3118F481E090E066
:1026D00002C083E090E09093D5028093D40268E931
:1026E00070E08AED92E00E942C2361E08AED92E096
:1026F0000E94CB2326E731E048E169E18AED92E0D0
:102700000E94D72221E831E040E363E28AED92E0C3
:102710000E94D72204E028E04091140164E68AED8B
:1027200092E00E94AF1E8AED92E00F910C94281F58
:1027300048EB5BE060E070E082ED94E00E94CE2B1D
:1027400020E835E240E050E063E275E082ED94E09D
:102750000E94E22B61E082ED94E00E94982B882396
:10276000A1F068E871E080911405909115050E9430
:1027700017314AE050E060E070E082ED94E00E94A2
:10278000FC2A82ED94E00E94CD2B41E060E082EDD6
:1027900094E00E94692C26E040E855E260E070E099
:1027A00083E295E00E94C02F6FE081E893E00E94F1
:1027B000041D8AED92E00E9426278AED92E00E9495
:1027C000881F60E08AED92E00C943027CF92DF9270
:1027D000EF92FF920F931F93CF93DF930E94F12C00
:1027E000672B682B692B39F40E94F12C623071053C
:1027F00081059105B8F182ED94E00E94FF2A609373
:10280000890370938A0380938B0390938C030091C8
:102810008D0310918E0320918F03309190036017E8
:1028200071078207930740F460938D0370938E03C2
:1028300080938F039093900300918D0310918E03EA
:1028400020918F03309190036B017C01C01AD10A53
:10285000E20AF30A970186010A3F110521053105B5
:1028600008F072C08AED92E00E94451FDD24D394E7
:10287000E091D402F091D502EE0FFF1FE45FFE4F0E
:10288000C081D181E0917003F091710384858587C7
:10289000E12CF12C8091760390917703E816F906EC
:1028A000E4F4E0917003F0917103EE0DFF1D80815F
:1028B0000E94A02D20910A0130910B0128173907A1
:1028C0000CF087C08AC0E0917003F0917103DF01C2
:1028D000AE0DBF1D16968C918487E0917003F09128
:1028E000710385859485891302C0868701C0168689
:1028F00080918003811103C080E090E014C01092A9
:1029000080030E94F12C6093780370937903809385
:102910007A0390937B03E0917003F09171038685B5
:10292000882351F390E0FE0109958AED92E00E9420
:10293000571F81119DCFDF91CF911F910F91FF9074
:10294000EF90DF90CF90089560938D0370938E0386
:1029500080938F039093900344EF51E060E070E028
:1029600082ED94E00E94012B61E082ED94E00E94F0
:10297000982B882309F161E082ED94E00E941D2BE1
:102980006AE971E080911405909115050E94173154
:102990000E94F12CAB01BC012AE030E080911405CB
:1029A000909115050E94D73182ED94E00E94832B0F
:1029B00082ED94E00E94CD2B45E050E060E070E0B5
:1029C00082ED94E00E94FC2A82ED94E00E948C2B20
:1029D00049CF80918003882349F0E0917003F09102
:1029E00071031486FFEFEF1AFF0A54CF0E94F12CF7
:1029F000009178031091790320917A0330917B0341
:102A0000601B710B820B930B693271058105910577
:102A100008F459CFD09280030E94F12C6093780380
:102A20007093790380937A0390937B0361CFFF9235
:102A30000F931F93CF93DF93182FD62FC42F022FFE
:102A4000C15001502C2F462F682F8AED92E00E9432
:102A5000BF23F02EFD0E2C2F4F2D612F8AED92E01B
:102A60000E94BF23202F4D2F612F8AED92E00E94FC
:102A7000C5236C2F610F2F2D4D2F8AED92E0DF9132
:102A8000CF911F910F91FF900C94C523CF93DF93AB
:102A9000EC016883498380912301909124019C83F8
:102AA0008B832A830E94F12C2B813C81620F731F40
:102AB000811D911D6E837F8388879987DF91CF91D8
:102AC00008950F931F93CF93DF93EC012881222366
:102AD00009F45CC080911C0390E0839730E02817D4
:102AE00039070CF053C02981222309F44FC080918B
:102AF0001D0390E0039730E0281739070CF046C01B
:102B00000E94F12C0E811F81288539850617170731
:102B10002807390738F58A81813059F038F082303A
:102B200061F0833069F488818F5F09C089818150A9
:102B300002C089818F5F898303C088818150888327
:102B40000E94F12C8B019C016B817C8188EE93E0CB
:102B50000E94BC32060F171F211D311D0E831F83DB
:102B6000288739878D81882399F08A81813029F0DF
:102B700020F0823011F0833059F402E022E04981E4
:102B800068818AED92E00E94AF1E02C01D82B8CF1C
:102B9000DF91CF911F910F910895EF92FF920F93C4
:102BA0001F93CF93DF93EC017B017B836A830E94A9
:102BB000F12C0D851E852F853889061717072807E4
:102BC000390778F581E0E816F10491F034F4E11466
:102BD000F104A9F4898181500DC082E0E816F10466
:102BE00059F083E0E816F10451F488818F5F06C044
:102BF00089818F5F898303C08881815088830E9487
:102C0000F12C8B019C016C817D8188EE93E00E9408
:102C1000BC32060F171F211D311D0D871E872F8700
:102C2000388B2881211103C081E088830BC040913B
:102C30001C03842F90E0879730E02817390714F0A1
:102C4000485248832981211103C081E089830BC048
:102C500040911D03842F90E0079730E02817390733
:102C600014F04850498381E0E816F10461F01CF447
:102C7000EF2849F01AC082E0E816F10421F083E061
:102C8000E816F10491F48A819B8123E0880F991F53
:102C90002A95E1F788589F4F7C0108E028E0498198
:102CA00068818AED92E00E94761EDF91CF911F919C
:102CB0000F91FF90EF900895EF92FF920F93FC0118
:102CC000168230E7E32E30E0F32E08E028E0418161
:102CD00060818AED92E00E94761E0F91FF90EF9046
:102CE0000895AF92BF92DF92EF92FF920F931F93DE
:102CF000CF93DF931F92CDB7DEB75C01D62E79015B
:102D000049830E94F12CF50124813581620F731FE4
:102D1000811D911D658776878787908BD082498139
:102D20004183F582E4821383028381E086831486E3
:102D30001386178210861186128653E0000F111F2A
:102D40005A95E1F708581F4F780108E028E06D2DEB
:102D50008AED92E00E94761E0F90DF91CF911F9135
:102D60000F91FF90EF90DF90BF90AF900895EF929A
:102D7000FF920F93FC012281338163E0220F331F06
:102D80006A95E1F728583F4F790108E028E0418132
:102D900060818AED92E00E94761E0F91FF90EF9085
:102DA0000895EF92FF920F931F93CF93DF93CDB7C8
:102DB000DEB72A970FB6F894DEBF0FBECDBF8C01E9
:102DC00081E08E83D80112968D919C91139781306A
:102DD0009105D1F054F4892B61F5F80141814E5FE2
:102DE00060816D5F20E030E020C082309105B1F05D
:102DF0000397F9F4D80111964C9111974D5F6C919E
:102E0000685F23E030E011C0D80111964C91119712
:102E1000485F6C916D5F21E030E007C0F8014181AF
:102E20004D5F6081625022E030E0CE0101960E9449
:102E30004615F801E384F4848EE090E0E114F10497
:102E4000F1F40E94D730D8011C969C938E931B9767
:102E50002AE0FE013196DC01129601900D922A952E
:102E6000E1F7D8011B96ED91FC911C9717968D9177
:102E70009C911897918380831586148620C00E94A8
:102E8000D7302AE0FE013196DC01129601900D92B6
:102E90002A95E1F7F80127813085DC0111963C93F2
:102EA0002E931D961C921E921C97F7012485358542
:102EB0002115310511F07901F8CF95878487F80144
:102EC00047815085618572854F5F5F4F6F4F7F4FA0
:102ED00047835087618772872A960FB6F894DEBFC2
:102EE0000FBECDBFDF91CF911F910F91FF90EF905B
:102EF0000895CF92DF92EF92FF920F931F93CF939B
:102F0000DF938C01DC011B96CD91DC911C97E12CA9
:102F1000F12C209769F08F81811102C0E880F9803F
:102F2000CE0102960E9461150C84DD85C02DF1CF83
:102F3000F80183859485009749F1FC012081318156
:102F40002E153F0541F02485358521153105F1F019
:102F50006F01F901F3CF24853585E817F90731F4BE
:102F6000D8011C963C932E931B9705C0D6011D9645
:102F70003C932E931C97CF01DF91CF911F910F911E
:102F8000FF90EF90DF90CF900C94DD33DF91CF91E5
:102F90001F910F91FF90EF90DF90CF9008950F93C6
:102FA0001F93209127013091280180911D0390E00B
:102FB000AC014850510957FF02C04F5F5F4F559514
:102FC000479580911C0390E0BC016852710977FF1E
:102FD00002C06F5F7F4F7595679500E010E083EC4E
:102FE00092E00E9471161F910F910895E091C00226
:102FF000F091C10280E0309729F00288F389E02D3A
:103000008F5FF9CF08950F931F93CF93DF93CDB7C1
:10301000DEB763970FB6F894DEBF0FBECDBF4B8B04
:103020006A8B0E94F6174B896A89843008F0D8C0F1
:1030300081E08F8380911501882351F180911C03D9
:103040002091C202222369F090E08455910963E047
:1030500070E00E94D032685F629F602D1124665F2D
:1030600001C06AE0209125013091260101E010E0C5
:103070004AE0CE0101960E947116CE0101960E948F
:10308000D1168091150191E089278093150163C0C5
:103090000091C5021091C6020130110581F1BCF406
:1030A0000115110509F04FC020911C0330E0285292
:1030B0003109442737FD4095542F61E070E080E0EE
:1030C00090E00E94A03240911D0348503CC0023065
:1030D000110531F103301105B1F520911D0330E0E8
:1030E00028503109442737FD4095542F61E070E0A6
:1030F00080E090E00E94A032462F61E024C0209141
:103100001C0330E028523109442737FD4095542FE5
:1031100061E070E080E090E00E94A03241E013C0E6
:1031200020911D0330E028503109442737FD409598
:10313000542F61E070E080E090E00E94A032462FC2
:1031400060911C0368522091250130912601CE0127
:1031500001960E9471160091C0021091C10284E193
:1031600090E001151105C1F40E94D73021E0FC0167
:1031700026839093C1028093C0022091C202218BCA
:1031800021E1FE013196DC0101900D922A95E1F7D3
:10319000FC01138A128A1EC00E94D73021E0FC0174
:1031A00026832091C202218B21E1FE013196DC01B0
:1031B00001900D922A95E1F7FC01138A128AF80119
:1031C000228933892115310511F08901F8CFF801E1
:1031D000938B828B8091C2028F5F8093C20202C068
:1031E0001092C20263960FB6F894DEBF0FBECDBF39
:1031F000DF91CF911F910F9108950F931F93CF935C
:10320000DF930E94F12C0091BC021091BD0220912D
:10321000BE023091BF02061717072807390718F5B5
:10322000C091C002D091C102209779F024E030E033
:1032300040E050E060E070E0CB010E94A0327B8370
:103240006A830A88DB89C02DEFCF0E94F12C685178
:103250007C4F8F4F9F4F6093BC027093BD02809351
:10326000BE029093BF02DF91CF911F910F910895FD
:103270000F931F93CF93DF930E94F12C0091B8021C
:103280001091B9022091BA023091BB0206171707BC
:1032900028073907D8F4C091C002D091C102209705
:1032A00039F0CE010E94D1160A88DB89C02DF7CFF4
:1032B0000E94F12C68517C4F8F4F9F4F6093B80252
:1032C0007093B9028093BA029093BB02DF91CF91C1
:1032D0001F910F9108956F927F928F929F92AF925C
:1032E000BF92CF92DF92EF92FF920F931F93CF93F3
:1032F000DF93EC019090C3027090C40288806980D3
:10330000A62CB12CE72CF12CC5010896C82CD12C89
:10331000092D10E08E159F05C4F0AE14BF04ACF467
:10332000C8010297C816D90684F00B968C159D0526
:1033300064F089E0E816F1041CF088EF870D01C005
:1033400081E08983CE010E94B716C60107968017D7
:103350009107DCF0019680179107BCF0C016D106EA
:10336000A4F4C7010297A816B9067CF00B968A153B
:103370009B055CF0093011051CF088EF890D01C038
:1033800081E08883CE010E94B716C70107968A158F
:103390009B05FCF06714E8F0C8010297C816D9062F
:1033A000C4F00B968C159D05A4F040911D03842F4D
:1033B00090E008979701285F3F4F281739071CF4C2
:1033C00088E0870D02C088EF840F8983CE010E94B8
:1033D000B716C80107968C159D058CF1981478F5E1
:1033E000085F1F4F0C151D0554F1C7010297A81661
:1033F000B9062CF189E0E80EF11CEA14FB04FCF09C
:1034000020911C03822F90E08897081719071CF45D
:1034100088E0890D02C088ED820F8883CE01DF919C
:10342000CF911F910F91FF90EF90DF90CF90BF90C1
:10343000AF909F908F907F906F900C94B716DF9114
:10344000CF911F910F91FF90EF90DF90CF90BF90A1
:10345000AF909F908F907F906F900895CF93DF9360
:10346000C091C002D091C102209761F0CE010E94AC
:103470006B196A817B81CE010E94CD150A88DB8998
:10348000C02DF2CFDF91CF910C94FD18CF93DF9335
:10349000C091C002D091C102209739F0CE010E94A4
:1034A00079170A88DB89C02DF7CFDF91CF910C9473
:1034B0003819009709F40895DC015296ED91FC91BA
:1034C0005397309799F0218930E02617370711F08C
:1034D000DF01F3CFE817F90731F08289938953961A
:1034E0009C938E935297CF010C94DD3308958417EB
:1034F00048F0485F841730F4621720F0285F81E0BD
:10350000621708F080E00895CF92DF92EF92FF9269
:103510000F931F93CF93DF930091CE021091CF02B0
:10352000F090C002E090C1020115110509F43FC0FE
:10353000F801D280C380CF2DDE2D2097A1F1298103
:1035400048816C2D8D2D0E94771A882341F180913E
:103550008703909188030196909388038093870353
:1035600041E050E060E070E081E893E00E94071DD8
:10357000CE010E945C16F801178269896093C2022D
:1035800070E08091C0029091C102DF91CF911F91B4
:103590000F91FF90EF90DF90CF900C94591A0A880A
:1035A000DB89C02DCACFF80104851585BDCFDF9119
:1035B000CF911F910F91FF90EF90DF90CF900895E2
:1035C000EF92FF920F931F93CF93DF930091C0026E
:1035D0001091C102F090C302E090C40201151105E0
:1035E00099F1F801C385D485209751F12E2D4F2DE7
:1035F0006B818A810E94771A8823F1F080912201E1
:103600008150809322011F8283EC92E00E945C161D
:103610000E94CF1780912201811116C082E090E0B4
:103620009093D5028093D4028AE080932201109275
:1036300088031092870308C00C84DD85C02DD4CF89
:10364000F80102891389CACFDF91CF911F910F91A1
:10365000FF90EF900895AF92BF92CF92DF92EF92DA
:10366000FF920F93CF93DF93CCE1D3E068816E514B
:10367000A8E6EA2EA0E0FA2E08E028E048E08AED6D
:1036800092E00E94761EB8E5AB2EB3E0BB2E888197
:103690008E51F501808389E5C82E83E0D82E8CE118
:1036A000F60180834AE050E06091220186ED92E0CD
:1036B0000E94E43168816E5198E7E92E90E0F92E7E
:1036C00028E044E28AED92E00E94761E88818E51C5
:1036D000F50180838AE3F60180836091870370910E
:1036E00088034AE050E086ED92E0DF91CF910F91A0
:1036F000FF90EF90DF90CF90BF90AF900C94CF31C0
:103700000F931F93CF93DF93CDE1D3E00CE113E050
:103710002881F801408160E080E00E941715F801DF
:1037200060816052288140E08AED92E00E94C523CA
:103730000E9403180E942E1A83EC92E00E947917CF
:103740000E94461A0E94841A0E94E01ADF91CF91CB
:103750001F910F910C942B1B0F931F93CF93DF930B
:10376000EC010E94801BC330D105C1F04CF4C13084
:10377000D10589F0229709F040C061E070E010C0E7
:10378000C530D105C1F0A4F02697B9F51092D50245
:103790001092D4023AC060E070E002C062E070E0D3
:1037A00083EC92E0DF91CF911F910F910C94CD1596
:1037B00063E070E0F5CF0E94F12C0091B00210910F
:1037C000B1022091B2023091B30206171707280701
:1037D0003907D8F483EC92E00E94D1160E94F12CB4
:1037E0006C597F4F8F4F9F4F6093B0027093B1021F
:1037F0008093B2029093B30208C083EC92E0DF9111
:10380000CF911F910F910C94B716DF91CF911F911B
:103810000F9108950E94AC1B8AED92E00C94281F32
:103820000F931F93CF93DF936BE081E893E00E94A7
:10383000FD1C81E693E0909371038093700386E012
:1038400090E0909377038093760306E111E0C0E067
:10385000D0E08091760390917703E0917003F0912E
:103860007103C817D907BCF4D8018C910E5F1F4FA4
:10387000EC0FFD1F8083A0917003B0917103AC0F1A
:10388000BD1F8C2F8F5F16968C9360E080810E9405
:10389000452E2196DECF1486158616860E94F12CC1
:1038A000609378037093790380937A0390937B03FA
:1038B0001092800367E08AE593E00E94F51C109265
:1038C000D9021092D80280EA91E09093D7028093B7
:1038D000D60285E795E290935703809356031092A2
:1038E0005803109259038AED92E00E947F2588EADE
:1038F00091E09093D7028093D60228E43DE141ED18
:103900005DE16CEA71E08AED92E00E949E1F2FEF6C
:103910004FEF6FEF8AED92E00E94CC1D20912701BE
:103920003091280180911D0390E0AC01485051096D
:1039300057FF02C04F5F5F4F5595479580911C031D
:1039400090E0BC016852710977FF02C06F5F7F4F42
:103950007595679500E010E083EC92E00E94711687
:103960000E94F12C68517C4F8F4F9F4F6093BC0297
:103970007093BD028093BE029093BF020E94F12C0F
:1039800068517C4F8F4F9F4F6093B8027093B9027C
:103990008093BA029093BB020E94F12C6C597F4F26
:1039A0008F4F9F4F6093B4027093B5028093B6021D
:1039B0009093B7020E94F12C6C597F4F8F4F9F4F0D
:1039C0006093B0027093B1028093B2029093B302FD
:1039D000DF91CF911F910F9108958AE593E00E94A6
:1039E000FC1C81E893E00C94031DFC0160832AE039
:1039F00030E03683258308950895FC01862F608387
:103A000061E00C94452E0895FC0161830895AF9206
:103A1000BF92CF92DF92EF92FF920F931F93CF93BB
:103A2000DF935C016A017B01FC018181882329F11C
:103A300001E010E0C0E0D0E0C00FD11FBE01F501F1
:103A400080810E94BD2DC701B6010E94202D01304A
:103A5000110549F4F501818190E08C179D0764F709
:103A60000FEF1FEFE9CF0F3FFFEF1F0719F000E047
:103A700010E0E2CF1C161D06FCF2DF91CF911F91E2
:103A80000F91FF90EF90DF90CF90BF90AF9008958F
:103A9000EF92FF920F931F93CF93DF931F92CDB7B7
:103AA000DEB77C01862F642F8C3270F48A3208F0E6
:103AB00068C0883289F0893209F043C070E080E044
:103AC00090E00E94202D5DC08D32D9F0D0F194EBB2
:103AD000980F923000F135C000E010E0F701E00FE0
:103AE000F11F878D8F3F39F0003110F461E001C084
:103AF00062E00E94452E0F5F1F4F0631110571F7DE
:103B000040C0433018F485E090E002C082E090E0CD
:103B10000E945A2D36C08F7341110BC0E80EF11C64
:103B200061E0F701878D0E94452E60E0F701878DE7
:103B300017C0F701E80FF11D62E0878D0E94452E46
:103B400020C0803400F1982F9F73292F30E0F701B7
:103B5000E20FF31F878D8F3FA1F0203131051CF458
:103B60000E947E2E0EC0903121F489830E94A62CE3
:103B700089810E94B42E21E0892B09F420E0F7010D
:103B8000228F81E001C080E00F90DF91CF911F91E3
:103B90000F91FF90EF900895FC0162A743A724A71F
:103BA0000895CF93DF93EC01683171F128F464310B
:103BB00081F0673139F004C06931B9F16032C9F17F
:103BC00080E038C050E0B90182E194E00E945B28B7
:103BD00030C04C855D856E857F85452B462B472BF8
:103BE00071F4E881F981A585B0E020EA36E841E08A
:103BF00050E00E9425336C877D878E879F8782E106
:103C000094E00E94C72815C04C855D856E857F8530
:103C100082E194E00E94D1286E8970E075956795E5
:103C200082E194E00E94EE2804C082E194E00E94C8
:103C3000032981E0DF91CF9108956F927F928F9257
:103C40009F92AF92BF92CF92DF92EF92FF920F932B
:103C50001F93CF93DF93EC01962E742E822E680172
:103C60007C018AE7E80EF11CF7016080860E01E016
:103C7000040F282DCE010E94E323882341F111E097
:103C80005E01F9E7AF0EB11C9814F9F0F6018491CA
:103C9000812319F0F701608209C0F501808181114B
:103CA0000CC081E0611080E0F701808300E021E03A
:103CB000472D692DCE010E9453239394110F21F7B4
:103CC000FFEFCF1ADF0A11E0DFCFF7016082DF914B
:103CD000CF911F910F91FF90EF90DF90CF90BF9009
:103CE000AF909F908F907F906F9008958F929F924A
:103CF000AF92BF92CF92DF92EF92FF920F931F93FA
:103D0000CF93DF93EC01962EB42E822EA02EA40E1C
:103D1000260F0A2D0E94E3238823A1F087E0880D57
:103D2000869586958695C82ED12CBA1459F08701B0
:103D3000282D4B2D692DCE010E941D1EEC0CFD1C63
:103D4000B394F3CFDF91CF911F910F91FF90EF903C
:103D5000DF90CF90BF90AF909F908F900895DF92AB
:103D6000EF92FF920F931F93CF93DF93EC01E62E18
:103D7000142FD22EF02EF40E262F2D0D0F2D0E9473
:103D8000E323882359F01F1549F000E02D2D412F22
:103D90006E2DCE010E9453231F5FF5CFDF91CF918F
:103DA0001F910F91FF90EF90DF900895BF92CF92F7
:103DB000DF92EF92FF920F931F93CF93DF93EC016B
:103DC000CBACDCACE881F981B188E12CF12CE88145
:103DD000F981208909AD1AAD88E0289FA00111243E
:103DE0004E9DC0014F9D900D5E9D900D1124080FBA
:103DF000191F4D2D4E0D60E0CE010E94F92681E085
:103E00008E0D8C1538F48FEFE81AF80A8D2D8E0D73
:103E10008B15E8F2DF91CF911F910F91FF90EF90FA
:103E2000DF90CF90BF900895FC01A081B1815096A2
:103E30004C9183AD489FA001112483E0440F551F8E
:103E40008A95E1F760E070E081AD92AD0C94C934E1
:103E5000CF93DF93EC010E94D61ECE01DF91CF916C
:103E60000C943A27CF93DF93EC016CAFEFA9F8AD38
:103E70000190F081E02D0995EFA9F8AD0280F38162
:103E8000E02DCE01DF91CF910994CF93DF93EC0128
:103E9000FC01E558FF4F8081882319F0CE010E9474
:103EA000141F60E0CE01DF91CF910C94321F0F936D
:103EB0001F93CF93DF931F92CDB7DEB78C010E9483
:103EC000D61ED801DC966C91DC97DB968C91DB9743
:103ED000680FED91FC918189681728F0C8010E9454
:103EE0003A2780E00FC0F801E558FF4F8081882312
:103EF00029F0C80169830E94141F6981C8010E94CA
:103F0000321F81E00F90DF91CF911F910F910895A3
:103F1000CF93DF93EC010E94451FCE010E94571FF3
:103F20008111FBCF60E0CE01DF91CF910C94321F65
:103F300021E0FC01208381E993E00895CF92DF9294
:103F4000EF92FF920F931F93CF93DF931F92CDB702
:103F5000DEB77C016B0189019A014BE456E26BEB01
:103F600077E20E940B28CE0101960E94981F8601DD
:103F70002FE034E24981BC01C7010E9447250F9020
:103F8000DF91CF911F910F91FF90EF90DF90CF9035
:103F90000895FC01E60FF11D849190E0982F882789
:103FA0003196E4918E0F911D0895213039F020F063
:103FB000223031F4841B0895840F0895860F0895EC
:103FC000861B0895213039F020F0223031F4861B11
:103FD0000895860F0895841B0895840F089580E046
:103FE00008950F931F93CF93DF93EC018B01FB0197
:103FF000849188833196E491E983FB013296E491C0
:10400000EA83FB013396E491EB83FB013496E49160
:10401000EC83FB013596E491ED83FB013696E49148
:10402000EE83FB013796E491EF83FB013896E49130
:10403000E887FB013996E491E987FB013A96E49120
:10404000EA87FB013B96E491EB87FB013C96E49108
:10405000EC87FB013D96E491ED87FB013E96E491F0
:10406000EE87FB013F96E491EF87FB017096E491A8
:10407000E88B61E1C8010E94C91F9A8B898B63E1BB
:10408000C8010E94C91F9C8B8B8B65E1C8010E94EF
:10409000C91F9E8B8D8BDF91CF911F910F9108953A
:1040A000DC0118965C911897ED91FC911197849121
:1040B00090E0052E02C0959587950A94E2F7462F69
:1040C000450F483070F031961196FC93EE93249191
:1040D00098E0951B092E01C0220F0A94EAF7822B63
:1040E000485018964C9321E030E0062E01C0220F74
:1040F0000A94EAF72150822308950F931F93CF93D8
:10410000DF938C01EC01C05BDF4F798368831886F5
:10411000FC01EF59FF4F6081CE010E9450208E8339
:10412000F801EE59FF4F6081CE010E9450208F832D
:10413000F801E658FF4F90819A8781E0911180E065
:104140008B87DF91CF911F910F910895CF93C62F49
:104150000E945020C15021E030E001C0220FCA95DA
:10416000EAF7821BCF9108955F926F927F928F92B0
:104170009F92AF92BF92CF92DF92EF92FF920F93F6
:104180001F93CF93DF937C01162F642EEC01C05B4D
:10419000DF4F9C80AD806C018AE7C80ED11CBE80C9
:1041A000B9188B2C1B1508F4812E5B800C85202FF1
:1041B0004A2D692D8A810E94E21F782E202F4A2DD8
:1041C000692D852D0E94D51F482F662011F09A85F4
:1041D00004C09985911108C09B85F6019083282D14
:1041E000672DC7010E9453231B1520F01B19A394B0
:1041F000912CD5CF190D1C83AD82DF91CF911F91EA
:104200000F91FF90EF90DF90CF90BF90AF909F9075
:104210008F907F906F905F9008958F929F92AF9252
:10422000BF92CF92DF92EF92FF920F931F93CF93A3
:10423000DF937C01EC01C05BDF4F0E947D20F70122
:10424000E95AFF4FB0803C966081CE010E94A620C3
:10425000982EF701EC59FF4F6081CE010E94A620F5
:10426000C82EF701EB59FF4F6081CE010E94A620B6
:10427000A82EDE801D140CF06FC00C85CB0CC194F1
:10428000202F4C2D692D8A810E94E21F182F8A83CE
:10429000202F4C2D692D8B810E94D51F482F8B8399
:1042A000013091F060F00230B9F0033001F5212FB8
:1042B0002B0D8D1901E0040F41E0480F1AC0212F8A
:1042C0002D0D082F0B0D15C0802F8B1921E0210F0C
:1042D000042F0D0D180F0DC081E0982F9D1921E0BE
:1042E000210F8B1901E0040F480F190F02C0082F8E
:1042F000212F612FC7010E94E323882369F11C82CB
:104300001D828701015A1F4F670180E6C80ED11C2C
:10431000F8016081CE010E945020882EF601608154
:10432000CE010E945020982E40E0682DC7010E94C7
:10433000B42041E0692DC7010E94B42061E0CE01A4
:104340000E9450208111F0CF8D818B150CF3F70165
:10435000E658FF4F8A8580838A2DDF91CF911F9188
:104360000F91FF90EF90DF90CF90BF90AF909F9014
:104370008F900895EF92FF920F931F93CF93DF9347
:104380008B01FC01E45BFF4F20813181295E3F4FAF
:104390006F3F710509F018F56136710510F0B4969C
:1043A00006C06134710538F0FC01E259FF4F80818D
:1043B0009181280F391FC9010196FC0144914423C2
:1043C00009F43BC0F901449150E04017510711F442
:1043D000019635C0FC018491280F311DECCFFC0102
:1043E000EE58FF4FC081D181C20FD31F7E0160E024
:1043F000C7010E94C91FC80FD91F62E0C7010E94F0
:10440000C91FF4E0EF0EF11C8017910780F3FE0145
:10441000849190E0982F88273196E4918E2B009715
:1044200061F08017910719F4CE01039608C0FE01D0
:104430003296E491CE0FD11DEACF80E090E0DF917B
:10444000CF911F910F91FF90EF900895EF92FF92FF
:104450000F931F93CF93DF93EC01E62EF42E890187
:10446000FC01E45AFF4F80818130C9F070F0823046
:1044700001F1833039F5FE01E25BFF4F0190F081DD
:10448000E02DCE010995E80E1DC0FE01E25BFF4F55
:104490000190F081E02DCE010995F80E13C0FE01C8
:1044A000E25BFF4F0190F081E02DCE010995E81A03
:1044B00009C0FE01E25BFF4F0190F081E02DCE01CB
:1044C0000995F81AFE01EE5AFF4FE0823196F0820C
:1044D000B801CE010E94BA21009751F0BC01CE0173
:1044E000DF91CF911F910F91FF90EF900C940D21D0
:1044F00080E0DF91CF911F910F91FF90EF90089591
:104500008F929F92BF92CF92DF92EF92FF920F9382
:104510001F93CF93DF9300D0CDB7DEB74C01D62EDB
:10452000C42E29833A830E947F252981022F3A8154
:10453000132FB12C74018CE5E80EF11CD8016D919C
:104540008D01D4011296ED91FC911397C401099548
:104550009C018F3FBFEF9B07D9F08E3FEFEF9E0787
:1045600069F34C2D6D2DC4010E942622D7019C9128
:10457000913049F030F0923041F0933039F4C81A5C
:1045800005C0D80E03C0C80E01C0D81AB80ED6CFC9
:104590008B2D0F900F90DF91CF911F910F91FF9076
:1045A000EF90DF90CF90BF909F908F900895E5E7B8
:1045B000F5E2DC011396FC93EE9312970C948022A3
:1045C000CF93DF93FC01E45BFF4F20813181232BEC
:1045D000C1F17E962081DC01AA58BF4F2C93319601
:1045E00050813C965083EC01CB58DF4F3881332308
:1045F00041F1313069F42997388123170CF43C9349
:10460000DC01A359BF4F8C918517DCF4808319C05E
:10461000EC01C959DF4F688122964881332727FD75
:104620003095842F992787FD9095860F911D67FD02
:104630009A952817390714F4640F6C9345170CF4F6
:104640004083DF91CF910895825B9F4F2FEE3FE132
:10465000FC01318320830895CF93DF93EC01FC01AB
:10466000E45BFF4F808191818617970761F071832A
:104670006083CE01835A9F4F0E94F11FCE01DF91CC
:10468000CF910C94E022DF91CF9108950F93DC013C
:10469000DF963C91DF97431BD596ED91FC91D69721
:1046A00009950F9108950F93FC01EC58FF4F30814D
:1046B000332309F462C0222309F45FC0223048F09A
:1046C000023019F46F5F621B04C0033011F44F5FB6
:1046D000421B702F7170FC0100FD24C0EA5BFF4F8C
:1046E0003081431708F449C031963081431708F0F0
:1046F00044C03297308131975081260F261730F40D
:10470000631718F42FEF230F03C0652F6317A8F565
:10471000521798F5651708F4652F321708F4232F00
:10472000261B21C0EC5BFF4F3081631730F13196BF
:104730003081631710F53296308131975081240F04
:10474000241730F4431718F42FEF230F03C0452F1D
:10475000431798F4521788F4451708F4452F321779
:1047600008F4232F241BDC01D796ED91FC91D897F8
:104770000480F581E02D072F09950F9108950F937F
:1047800000E00E9453230F9108950F9301E00E94CF
:1047900053230F910895FC01E658FF4F633010F446
:1047A0006083089581E080830895461730F482176E
:1047B00040F081E0241730F002C08217D0F380E08F
:1047C000089581E00895FF920F931F93CF93DF9395
:1047D000EC01162FF22E202FDC01A95BBF4FFC014C
:1047E000EA5BFF4F6C9180810E94D523882381F082
:1047F000FE01EB5BFF4FCC5BDF4F2F2D412F608124
:104800008881DF91CF911F910F91FF900C94D52358
:1048100080E0DF91CF911F910F91FF900895CF928B
:10482000DF92FF920F931F93CF93DF93DC01742FDE
:104830007770E1E0F0E0072E01C0EE0F0A94EAF78E
:104840003E2F6C018AE7C80ED11CE60188818230B8
:1048500018F4813021F001C030E01E2F01C010E0BB
:1048600050E0487FD996ED91FC91DA978D919C911B
:104870001197EC01F888F49EC001F59E900D11246B
:10488000E80FF91FE60FF11D011116C02E0F8081F0
:10489000832B812781932E13FACF1DC0DD968C9137
:1048A000DD97E80FF11DE6018881823078F431E070
:1048B000813061F4222379F08081832B81278083EA
:1048C0007F5F77702150711103C0E8CF11E0F2CF04
:1048D000330F110FEFCFDF91CF911F910F91FF9009
:1048E000DF90CF900895CF93DF93FC01A081B18139
:1048F00043AD842F880F880F880F86AF50968C9118
:104900005097803208F08FE1880F880F880F85AFAD
:1049100064AD562F550F550F550F57AF51967C91DB
:104920005197862F90E0840F911D272F30E0281794
:10493000390714F4472F461BEF01C05CDF4F588343
:10494000219688E0489F500D11245883219680EFCE
:10495000888354968D919C915597813F910508F4D9
:104960008883ED5BFF4F56968C918083DF91CF91CA
:1049700008950C9473240F930E9446230F91089579
:104980008F929F92AF92BF92CF92DF92EF92FF925F
:104990000F93CF93DF93EC017C018BE4E80EF11CC5
:1049A0005E01E9E4AE0EB11C6E01FAE4CF0ED11C3B
:1049B0004E0188E4880E911CF7010081F5012081E9
:1049C000F6014081F4016081CE010E94E323FE01E3
:1049D000EC58FF4F811102C0108225C081E0808316
:1049E000F4018081FE01EC5BFF4F9081981708F481
:1049F0008083F5018081FE01EB5BFF4F9081891779
:104A000008F48083F6018081FE01EA5BFF4F90810C
:104A1000981708F48083F7018081C95BDF4F988184
:104A2000891708F48883DF91CF910F91FF90EF9061
:104A3000DF90CF90BF90AF909F908F900895FC0132
:104A4000EC5BFF4F10823196DC01AE5BBF4F2C91C7
:104A50002083319612972C912083319611962C91B8
:104A600020830C94C024FC01E85BFF4F1082329637
:104A7000108231972FEF208332962083DC01D79666
:104A8000ED91FC91D8970280F381E02D09940F936A
:104A90001F93CF93DF93EC01FC01E45BFF4F118286
:104AA00010823EAB2DAB7AAF69AF4BAF1CAE3D96DB
:104AB0001082B0961082319681E080833196808397
:104AC00018AF0FABD801ED91FC91CE010995CE0145
:104AD0000E943325CE010E942423C45ADF4F18823E
:104AE000DF91CF911F910F910895662329F06A30CD
:104AF00019F0862F90E008958FEF9FEF0895FC0145
:104B0000118E08959A01DC011896ED91FC91199788
:104B1000462F67E10994CF93DF931F92CDB7DEB79D
:104B20006983AE014F5F5F4F61E00E9482250F9065
:104B3000DF91CF910895DC011896ED91FC911997C2
:104B400020E030E040E068E10994DC011896ED9146
:104B5000FC91199720E030E040E069E10994FF9270
:104B60000F931F93CF93DF93EC01F62E8A010E94DF
:104B70009B2560E4CE010E948B25E885F98598018C
:104B80004F2D67E1CE010995CE01DF91CF911F91A5
:104B90000F91FF900C94A525462FDC011696ED9100
:104BA000FC91179720E030E065E10994462FDC0185
:104BB0001696ED91FC91179720E030E066E109949C
:104BC0009A01DC011696ED91FC911797462F67E14B
:104BD0000994DC011696ED91FC91179720E030E0E6
:104BE00040E068E10994DC011696ED91FC9117977D
:104BF00020E030E040E069E10994EF92FF920F93EA
:104C00001F93CF93DF931F92CDB7DEB77C018B014B
:104C1000D8016C916731E1F078F46531A0F1F801C9
:104C200041814983D7011696ED91FC91179720E0B9
:104C300030E0C701099524C06A31A8F06E3F19F52C
:104C4000F8014181498369E2C7010E94DD2718C04C
:104C5000F80181818983AE014F5F5F4F61E0C70139
:104C60000E94E0250DC00F5F1F4FD7011696ED91F2
:104C7000FC91179720E030E040E0C7010995C8CFCC
:104C80000E5F1F4FC5CF0F90DF91CF911F910F91F6
:104C9000FF90EF900895FF920F931F93CF93DF93B0
:104CA000EC01F42E8901663121F128F46431F1F12F
:104CB000653149F057C0683109F450C0F0F06931EE
:104CC00009F445C04FC080911104882319F0CE012A
:104CD0000E94A525CE010E949B2560E0CE010E9486
:104CE0008B256F2DCE010E948B2581E080931104CE
:104CF0003AC0642F0E948B2533C080911104882311
:104D000019F0CE010E94A52588E1A8018F1548F46D
:104D100068E1CE010E94AF2588EEF80E085E1F4FB5
:104D2000F3CF6F2DCE010E94AF2518C08E898F3F23
:104D300011F488E78E8BE885F98598014F2D64E1A1
:104D4000CE01DF91CF911F910F91FF900994809137
:104D50001104882319F0CE010E94A5251092110498
:104D600081E001C080E0DF91CF911F910F91FF9012
:104D70000895FC0171836083FB012289FC01248B6F
:104D80000895CF93DF93EC01EA85FB8520E030E0C6
:104D900040E068E20995EE81FF8120E030E040E0EC
:104DA00064E1CE01099541E06BE4CE010E94DD276C
:104DB000E881F981448169E2CE010E94DD2740E06B
:104DC0006BE4CE010E94DD27E881F981448169E22C
:104DD000CE010E94DD2741E06BE4CE010E94DD2779
:104DE000E881F981458169E2CE01DF91CF910C9490
:104DF000DD270F931F93CF93DF9300D000D01F9236
:104E0000CDB7DEB76C834D832B831A830983DC0116
:104E10001496ED91FC9115979E012F5F3F4F41E055
:104E20006FE009950F900F900F900F900F90DF910A
:104E3000CF911F910F910895DC011496ED91FC9193
:104E4000159720E030E040E069E00994DC01149619
:104E5000ED91FC91159720E030E040E06AE0099484
:104E6000462FDC011496ED91FC91159720E030E07F
:104E70006BE00994DC011496ED91FC91159720E00C
:104E800030E040E060E10994EF92FF920F931F93AE
:104E9000CF93DF93EC01F42E89016D30A9F118F462
:104EA0006B3039F160C06E3009F441C06F3009F0E9
:104EB0005AC00E94E925F8018381EC88F8E08F9FB1
:104EC000E00C112460E4CE010E94CC256E2D629589
:104ED0006F706061CE010E94CC256E2D6F70CE0187
:104EE0000E94D625F8016481606BCE010E94D62510
:104EF0002DC0411103C06DED71E002C068ED71E09D
:104F0000CE010E94FD2520C0411108C061ED71E075
:104F10000E94FD25E881F981828907C06AEC71E071
:104F20000E94FD25E881F98183898C8B0DC00E9448
:104F3000E92561E8CE010E94CC256F2DCE010E94AB
:104F4000D625CE010E94F32581E00EC0F8014081F4
:104F500051816281660F660F660FCE010E94E025C7
:104F6000FA94A1F7EECF80E0DF91CF911F910F91DE
:104F7000FF90EF9008951F93CF93DF93EC01162FCE
:104F80000E944427811112C0193059F01A3081F45F
:104F9000CE010E94C12662EE71E0CE010E94FD2585
:104FA00005C062EB71E0CE010E94B92681E001C02C
:104FB00080E0DF91CF911F910895DC011A96ED9169
:104FC000FC911B9720E030E0099480E00895FC01FB
:104FD0001182108285EE97E295838483978386837E
:104FE0009187808793878287158A108E118E148609
:104FF0001586168617868FEF868B838F80E090E06C
:105000002FEFDF01A80FB91F5F962C930196863111
:105010009105B9F70895AF92BF92CF92DF92EF92C8
:10502000FF920F931F93CF93DF93EC017B016A01F3
:1050300059010E94E727FD82EC82DF82CE82B98689
:10504000A8861B870A87CE01DF91CF911F910F9110
:10505000FF90EF90DF90CF90BF90AF900C941C2703
:105060008091420490E020914304821B91090895AD
:105070002091430480914204281750F4E22FF0E07D
:10508000EC5BFB4F808190E02F5F209343040895F9
:105090008FEF9FEF0895E091430480914204E81759
:1050A00030F4F0E0EC5BFB4F808190E008958FEFEF
:1050B0009FEF08950895CF92DF92EF92FF920F93A2
:1050C0001F93CF93DF937C01CB018A0120911E04B3
:1050D000222389F0EB016B01C40ED51ECC15DD0532
:1050E00069F06991D701ED91FC910190F081E02D7B
:1050F000C7010995F3CF642F0E947F29C801DF9172
:10510000CF911F910F91FF90EF90DF90CF90089576
:10511000CF93DF931F92CDB7DEB7698320911E0432
:105120002223D1F020911F04203240F021E030E012
:10513000FC013383228380E090E015C0809120043D
:10514000E82FF0E0EF5DFB4F998190838F5F8093B4
:10515000200480931F0405C061E0CE0101960E94E7
:105160007F2981E090E00F90DF91CF910895FC01BD
:105170001382128248EE53E060E070E0448355836E
:10518000668377838BE192E0918380830895109208
:105190004304109242041092200410921F040C94B5
:1051A0000A299A01AB0160E074E284EF90E00E946A
:1051B000E4322051310941095109569547953795F7
:1051C00027952093B800089581E080931E04609392
:1051D00041041092200410921F0408950C94E428B6
:1051E0000F93062F21E040911F0461E274E080914B
:1051F00041040E9428291092200410921F0410924A
:105200001E040F91089561E00C94F02882E194E06F
:105210000C94B7281092D10481E08093CF041092AF
:10522000CE0461E082E10E947E2E61E083E10E9473
:105230007E2EE9EBF0E080818E7F808380818D7F00
:10524000808388E48093B80085E48093BC0008954F
:105250000F93413208F04AC09091D1049111FCCFD4
:1052600092E09093D1040093CF049FEF9093640455
:105270001092A9044093A804FB016AEA74E0DB01E0
:105280009A2F961B941718F491919D93F9CF109231
:10529000D0049091D004880F892B8093D004809102
:1052A000CE04813061F41092CE048091D0048093BA
:1052B000BB008091BC0083FDF8CF85EC01C085EE7A
:1052C0008093BC00222321F08091D1048230E1F34D
:1052D000809164048F3F61F080916404803251F0CA
:1052E00080916404803341F483E007C081E005C00D
:1052F00080E003C082E001C084E00F910895613234
:1053000098F42091D104243089F460938604FC0140
:1053100088E894E0DC012A2F281B261718F4219135
:105320002D93F9CF80E0089581E0089582E00895FB
:1053300085ED8093BC008091BC0084FDFCCF109271
:10534000D104089585EC8093BC001092D104089597
:105350001F920F920FB60F9211242F933F934F93EA
:105360005F936F937F938F939F93AF93BF93EF93CD
:10537000FF938091B900887F803609F49EC078F54C
:10538000883209F45DC090F4803109F456C038F4D5
:10539000882309F4F5C0883009F44FC0F5C088317E
:1053A00009F44EC0803209F45FC0EEC0803409F4C5
:1053B0006AC058F4803309F457C0883309F0E4C058
:1053C000809364040E94A229DFC0803509F44FC095
:1053D000883509F45DC0883409F0D6C0D3C0883957
:1053E00009F4C4C0A8F4883709F467C038F48836D3
:1053F00009F463C0803709F460C0C6C0883809F476
:10540000B5C0803909F45FC0803809F0BDC05BC009
:10541000803B09F483C038F4803A09F466C0883AC6
:1054200009F47CC0B1C0803C09F4A4C0883C09F4F4
:10543000A1C0883B09F487C0A7C08091D00410C0E8
:105440009091A9048091A804981770F5E091A9049F
:1054500081E08E0F8093A904F0E0E655FB4F808138
:105460008093BB0085EC83C0809364048BC0E09183
:10547000A90481E08E0F8093A9048091BB00F0E025
:10548000E655FB4F80839091A9048091A8046BC0DE
:10549000E091A90481E08E0F8093A9048091BB0064
:1054A000F0E0E655FB4F80838091CF0481116AC004
:1054B00081E08093CE0484EA5EC083E08093D104CF
:1054C00010926504CFCF80916504803208F04EC001
:1054D000E091650481E08E0F809365048091BB00AC
:1054E000F0E0EA59FB4F8083BDCF0E94A229809152
:1054F0006504803230F4E0916504F0E0EA59FB4F36
:1055000010826091650470E0E091CA04F091CB04D0
:1055100086E694E009951092650436C084E0809395
:10552000D1041092870410928604E091CC04F0918B
:10553000CD04099580918604811105C081E0809396
:10554000860410928804E091870481E08E0F809396
:105550008704F0E0E857FB4F80818093BB00909177
:10556000870480918604981708F47CCF85E880939F
:10557000BC000AC085EC8093BC001092D10404C02A
:10558000109264040E949829FF91EF91BF91AF910E
:105590009F918F917F916F915F914F913F912F914B
:1055A0000F900FBE0F901F9018958F929F92AF9201
:1055B000BF92CF92DF92EF92FF926A017B010E942D
:1055C000F12C4B015C01C60ED71EE81EF91E0E948D
:1055D000F12C681579058A059B0528F0C616D706B3
:1055E000E806F906A0F7FF90EF90DF90CF90BF900C
:1055F000AF909F908F90089521E00C94D52A0C9441
:10560000F12CCF93DF93EC014E875F87688B798B0A
:105610001A8A1B8A1C8A1D8A4E815F81688579855A
:105620004A875B876C877D870E94F12C6E837F831E
:1056300088879987DF91CF910895BF92CF92DF92AB
:10564000EF92FF920F931F93CF93DF938C01B62EAF
:105650000E94F12C6B017C01E801CE5BDF4F67E219
:1056600072E0888199810E9417314AE050E06B2DE9
:10567000888199810E94E4316EE272E0888199818B
:105680000E9417312AE030E0B701A6018881998194
:105690000E94D73160E372E0888199810E941731BE
:1056A000F80186819781A085B185B701A601481BC5
:1056B000590B6A0B7B0B2AE030E0888199810E94AC
:1056C000D73160E372E0888199810E941731F80137
:1056D000468157816085718582859385A485B585CE
:1056E000481B590B6A0B7B0B2AE030E088819981BB
:1056F000DF91CF911F910F91FF90EF90DF90CF90AE
:10570000BF900C94D7318E5B9F4F62E372E0FC0137
:10571000808191810C942431CF93DF93EC010E941E
:10572000F12C6E837F8388879987DF91CF910895CD
:10573000CF92DF92EF92FF92CF93DF93EC01611152
:105740001EC00E94F12CCA80DB80EC80FD806C19A9
:105750007D098E099F09643671058105910578F4EC
:1057600024E6C22ED12CE12CF12CC61AD70AE80A65
:10577000F90A21E0B701A601CE010E94D52A0E94B4
:10578000F12C6A837B838C839D8381E0DF91CF91B1
:10579000FF90EF90DF90CF9008950895FC01EC5BAF
:1057A000FF4F1082118212821382FC011282138237
:1057B00014821582411551056105710511F00C9493
:1057C000FC2A0895FB01BA01A9018E5B9F4FDC0101
:1057D000ED93FC9326E0CF010C94C02F8E5B9F4F7E
:1057E000DC018D919C91DC01ED91FC910680F781AB
:1057F000E02D099508958E5B9F4FDC018D919C9162
:10580000DC01ED91FC910480F581E02D099508956E
:10581000FF920F931F93CF93DF93EC01F62E0E941C
:10582000F12C6A837B838C839D838E010E5B1F4FDB
:1058300069E372E0F801808191810E9417314AE0AA
:1058400050E06F2DF801808191810E94E43160E485
:1058500072E0F801808191810E94173142E350E0AB
:1058600060E070E0CE01DF91CF911F910F91FF902A
:105870000C94FC2A1F93CF93DF93EC01162F8E8993
:10588000882311F1CE010E94FB2B811102C085E615
:105890001CC0CE010E94FB2B8823C9F3CE010E94BD
:1058A000EE2B883689F048F4883569F0833689F71D
:1058B000612FCE010E94082C07C0813729F086375E
:1058C00041F786E702C01E8A83E6DF91CF911F91E0
:1058D00008951F93CF93DF93EC01142F611105C03E
:1058E0001E8BDF91CF911F91089581E08E8B60E038
:1058F000CE010E943A2C833699F341E050E060E0FB
:1059000070E0CE010E94FC2AF2CF1092D8041092CF
:10591000D9041092DA041092DB041092DC04109285
:10592000DD041092DE041092DF041092E004109265
:10593000E1041092E2041092E3041092E404109245
:10594000E5041092E6041092E704089508951F926A
:105950000F920FB60F9211242F933F938F939F9323
:10596000AF93BF9380911B0590911C05A0911D05DD
:10597000B0911E0530911A0523E0230F2D3720F436
:105980000196A11DB11D05C026E8230F0296A11D99
:10599000B11D20931A0580931B0590931C05A093BD
:1059A0001D05B0931E0580911F0590912005A091C3
:1059B0002105B09122050196A11DB11D80931F05FF
:1059C00090932005A0932105B0932205BF91AF913C
:1059D0009F918F913F912F910F900FBE0F901F902D
:1059E00018952FB7F89460911B0570911C05809154
:1059F0001D0590911E052FBF08953FB7F894809123
:105A00001F0590912005A0912105B091220526B592
:105A1000A89B05C02F3F19F00196A11DB11D3FBFE6
:105A20006627782F892F9A2F620F711D811D911D76
:105A300042E0660F771F881F991F4A95D1F7089596
:105A40008F929F92AF92BF92CF92DF92EF92FF928E
:105A50006B017C010E94FD2C4B015C01C114D1043F
:105A6000E104F104F1F00E94A62C0E94FD2C6819BB
:105A700079098A099B09683E73408105910570F395
:105A800021E0C21AD108E108F10888EE880E83E00F
:105A9000981EA11CB11CC114D104E104F10429F722
:105AA000DDCFFF90EF90DF90CF90BF90AF909F90B1
:105AB0008F9008958230910538F0880F991F880FD4
:105AC000991F05970197F1F70895789484B582603E
:105AD00084BD84B5816084BD85B5826085BD85B592
