:100000000C9489030C94B1030C94B1030C94B103C8
:100010000C94B1030C94B1030C94B1030C94BD1572
:100020000C94B1030C94B1030C94B1030C94B10380
:100030000C94B1030C94B1030C94B1030C94B10370
:100040000C94610F0C94B1030C9449120C947B1224
:100050000C94B1030C94B1030C94B1030C94B10350
:100060000C94D5080C94B10348617264004E6F7211
:100070006E616C0045617379004D757369633A4F29
:100080004646004D757369633A4F4E00486F6D6583
:100090000041626F75740053636F7265004F707436
:1000A000696F6E7300456E746572004E616D653ADE
:1000B0004730322D4D617A6500486F6D6500000054
:1000C000000000000000000000000000004D7573FB
:1000D00069633A4F4E00000000000000000000007D
:1000E000004D757369633A4F4646000000000000FA
:1000F000000000000045617379000000000000006E
:100100000000000000000000004E6F726E616C0085
:1001100000000000000000000000000000486172C4
:10012000640000000000000000000000000000006B
:10013000004E616D653A4730322D4D617A650000A1
:100140000000000000456E746572000000000000B1
:100150000000000000000000004F7074696F6E73B3
:100160000000000000000000000000000053636F6A
:1001700072650000000000000000000000000000A8
:100180000041626F75740000000000000000000074
:100190000000000000B0045802E803FFFF00000068
:1001A00000000000000000000040062003A406FF3D
:1001B000FF00000000000000000000000000000040
:1001C00000003E5B4F5B3E3E6B4F6B3E1C3E7C3EF9
:1001D0001C183C7E3C181C577D571C1C5E7F5E1C07
:1001E00000183C1800FFE7C3E7FF0018241800FFC1
:1001F000E7DBE7FF30483A060E2629792926407FBB
:10020000050507407F05253F5A3CE73C5A7F3E1CC9
:100210001C08081C1C3E7F14227F22145F5F005FB5
:100220005F06097F017F006689956A606060606093
:1002300094A2FFA29408047E040810207E201008D7
:10024000082A1C08081C2A08081E101010100C1E72
:100250000C1E0C30383E3830060E3E0E06000000F4
:10026000000000005F00000007000700147F147FFB
:1002700014242A7F2A122313086462364956205018
:100280000008070300001C2241000041221C002A34
:100290001C7F1C2A08083E080800807030000808EF
:1002A000080808000060600020100804023E514960
:1002B000453E00427F400072494949462141494D2F
:1002C000331814127F1027454545393C4A494931B6
:1002D00041211109073649494936464949291E0035
:1002E00000140000004034000000081422411414DF
:1002F000141414004122140802015909063E415DFC
:10030000594E7C1211127C7F494949363E41414188
:10031000227F4141413E7F494949417F0909090105
:100320003E414151737F0808087F00417F41002012
:1003300040413F017F081422417F404040407F02FE
:100340001C027F7F0408107F3E4141413E7F090926
:1003500009063E4151215E7F09192946264949492E
:100360003203017F01033F4040403F1F2040201FD8
:100370003F4038403F63140814630304780403616A
:1003800059494D43007F414141020408102000417A
:1003900041417F0402010204404040404000030705
:1003A000080020545478407F28444438384444445A
:1003B00028384444287F385454541800087E0902D1
:1003C00018A4A49C787F0804047800447D40002091
:1003D00040403D007F1028440000417F40007C04E5
:1003E0007804787C080404783844444438FC1824A1
:1003F000241818242418FC7C080404084854545475
:100400002404043F44243C4040207C1C2040201C09
:100410003C4030403C44281028444C9090907C4410
:1004200064544C440008364100000077000000414D
:1004300036080002010204023C2623263C1EA1A12C
:1004400061123A4040207A38545455592155557913
:1004500041215454784121555478402054557940D5
:100460000C1E527212395555555939545454593934
:10047000555454580000457C410002457D4200011E
:10048000457C40F0292429F0F0282528F07C54559B
:1004900045002054547C547C0A097F49324949491B
:1004A000323248484832324A4848303A4141217A4B
:1004B0003A42402078009DA0A07D39444444393D13
:1004C0004040403D3C24FF2424487E4943662B2F76
:1004D000FC2F2BFF0929F620C0887E0903205454E5
:1004E00079410000447D413048484A32384040223A
:1004F0007A007A0A0A727D0D19317D2629292F2862
:10050000262929292630484D40203808080808089F
:10051000080808382F10C8ACBA2F102834FA000089
:100520007B000008142A142222142A1408AA005559
:1005300000AAAA55AA55AA000000FF00101010FF3B
:1005400000141414FF001010FF00FF1010F010F042
:10055000141414FC001414F700FF0000FF00FF1433
:1005600014F404FC141417101F10101F101F14147F
:10057000141F00101010F0000000001F10101010C9
:100580001F10101010F010000000FF1010101010BD
:1005900010101010FF10000000FF140000FF00FFFB
:1005A00000001F10170000FC04F414141710171497
:1005B00014F404F40000FF00F714141414141414B9
:1005C000F700F7141414171410101F101F1414142C
:1005D000F4141010F010F000001F101F0000001F96
:1005E00014000000FC140000F010F01010FF10FFC9
:1005F000141414FF141010101F00000000F010FF5E
:10060000FFFFFFFFF0F0F0F0F0FFFFFF0000000041
:1006100000FFFF0F0F0F0F0F38444438447C2A2A85
:100620003E147E02020606027E027E0263554941A6
:10063000633844443C04407E201E2006027E0202B1
:1006400099A5E7A5991C2A492A1C4C7201724C30C5
:100650004A4D4D303048784830BC625A463D3E499C
:100660004949007E0101017E2A2A2A2A2A44445F40
:10067000444440514A444040444A51400000FF0134
:1006800003E080FF000008086B6B08361236243642
:10069000060F090F060000181800000010100030A7
:1006A00040FF0101001F01011E00191D1712003C2F
:1006B0003C3C3C000000000000000008000201007B
:1006C000000304070000000000000000010204080D
:1006D00010204080010204081020010204081020AC
:1006E00004040404040404040202020202020303D8
:1006F0000303030300000000250028002B00000076
:100700000000240027002A0002008305C30AAB1260
:10071000E00511241FBECFEFD8E0DEBFCDBF11E052
:10072000A0E0B1E0ECEBFFE202C005900D92AE3725
:10073000B107D9F727E0AEE7B1E001C01D92AE36B0
:10074000B207E1F717E0C0E1D7E004C02297FE014D
:100750000E949016CA30D107C9F70E94EF120C947C
:10076000D1170C9400006FEF8EE791E00C94A20774
:1007700061E08EE791E00C94A2078EE791E00E9481
:100780000608E82FF0E0EE0FFF1FEC5EFE4F019031
:10079000F081E02D09948EE791E00E940608E82F91
:1007A000F0E0EE0FFF1FE85FFE4F0190F081E02DBB
:1007B00009946BEA70E088EB96E00C94671367E9A4
:1007C00070E088EB96E00C94671361E970E088EBC9
:1007D00096E00C94671363E870E088EB96E00C9465
:1007E000671369E770E088EB96E00C94671364E7A1
:1007F00070E088EB96E00C9467136DE670E088EB90
:1008000096E00C94671368E670E088EB96E00C9431
:1008100067136DE970E088EB96E00E94671361E072
:1008200070E08EE791E00C940D086CE870E088EBC6
:1008300096E00E94671360E070E08EE791E00C9410
:100840000D088EE791E00E94AE0686EA91E00E94D4
:10085000370B82EC91E00E94CE0A89EE91E00C9475
:10086000170BEF92FF920F931F93CF93DF93EC013F
:10087000EF85F88984858587E12CF12C8D899E8907
:10088000E816F906BCF4EF85F889EE0DFF1D8081AE
:100890000E944F1020910601309107012817390757
:1008A00034F540C0EF85F889DF01AE0DBF1D169607
:1008B0008C918487EF85F88985859485891302C09A
:1008C000868701C016868F8D811103C080E090E07D
:1008D00030C01F8E0E94AB0F6F8B788F898F9A8FDD
:1008E000EF85F8898685882389F390E022C08F8D73
:1008F000811118C00E94AB0F0F89188D298D3A8D78
:10090000601B710B820B930B693771058105910593
:1009100048F281E08F8F0E94AB0F6F8B788F898FA9
:100920009A8FD1CFEF85F88914868FEFE81AF80AED
:10093000A5CFDF91CF911F910F91FF90EF90089578
:1009400026E040E855E260E070E088EB96E00E9427
:10095000E71128EC30E040E050E060E070E082EC2D
:1009600091E00E94D30A64E189EE91E00E94180BA5
:1009700086EA91E00E943D0B25E030E040E050E047
:1009800061E371E08EE791E00E944B0726E030E0E2
:1009900041E050E069EB70E08EE791E00C944B078A
:1009A0008230910551F08530910519F0019719F0C9
:1009B000089582E003C080E001C081E090E00895E6
:1009C0000F931F93CF93DF9389EC91E00E94310442
:1009D000EC010197029718F0C530D105D9F48EE7E4
:1009E00091E00E9409088C01CE010E94D004F80118
:1009F000EE0FFF1FE00FF11FE80FF91FEE0FFF1FB3
:100A0000E25EFE4F0190F081E02DDF91CF911F91CA
:100A10000F910994DF91CF911F910F910895EF925B
:100A2000FF920F931F9386EA91E00E94550F4AE0D0
:100A300050E06AE070E086EA91E00E94F50E68E31B
:100A400071E086EA91E00E94611386EA91E00E94DB
:100A5000050F89EC91E00E94310481309105F9F095
:100A600082309105A9F586EA91E00E94550F4AE08F
:100A700050E06AE070E086EA91E00E94F50EEE2414
:100A8000E394F12C00E210E020E630E040E150E099
:100A900060E170E086EA91E00E94700D25C086EA70
:100AA00091E00E94550F4AE050E06AE070E086EA6B
:100AB00091E00E94F50E01E010E024E130E040E218
:100AC00050E060E470E086EA91E00E94C40B0CC044
:100AD000069751F460E070E08EE791E01F910F916E
:100AE000FF90EF900C940D086AE070E080E090E0D9
:100AF0000E94DA0FAACF65EA70E088EB96E00E94C8
:100B000067130C940F050F931F93CF93DF936BE044
:100B100089EE91E00E94110B89EC91E09093D9014C
:100B20008093D80186E090E09093DF018093DE010E
:100B30000AE211E0C0E0D0E08091DE019091DF0197
:100B4000E091D801F091D901C817D907BCF4D801B8
:100B50008C910E5F1F4FEC0FFD1F8083A091D80179
:100B6000B091D901AC0FBD1F8C2F8F5F16968C935F
:100B700060E080810E9495102196DECF1486158654
:100B800016860E94AB0F6093E0017093E1018093A1
:100B9000E2019093E3011092E80167E082EC91E0BA
:100BA0000E94C70A86EA91E00E941B0B66EA71E088
:100BB0008EE791E0DF91CF911F910F910C949906F0
:100BC0000C942104FC018FEF8483828381836383EF
:100BD0000895CF93C62FFC0160818DE592E00E94BD
:100BE000A30A60E08DE592E00E945A0A6C2F8DE521
:100BF00092E00E945A0A8DE592E0CF910C94C00ACF
:100C00001F93CF93DF93EC01162F48838DE592E07D
:100C10000E94990A61E08B810E94951061E08B81AE
:100C20000E94CE1061E070E080E090E00E94DA0F58
:100C300060E08B810E94CE106AE070E080E090E07E
:100C40000E94DA0F61E08B810E94CE106EEACE0125
:100C50000E94E90565EDCE010E94E90560E8CE013C
:100C60000E94E90568EACE010E94E9056FE3CE0122
:100C70000E94E90563EDCE010E94E90560E0CE0126
:100C80000E94E90560E4CE010E94E9056DE8CE010D
:100C90000E94E905113011F460E101C064E1CE0168
:100CA0000E94E90560E2CE010E94E90560E0CE0104
:100CB0000E94E90561EACE010E94E90568ECCE01D7
:100CC0000E94E9056AEDCE010E94E90562E1CE01CC
:100CD0000E94E90561E8CE010E94E905113011F496
:100CE0006FE901C06FECCE010E94E90569EDCE010C
:100CF0000E94E905113011F462E201C061EFCE01FA
:100D00000E94E9056BEDCE010E94E90560E4CE0189
:100D10000E94E90564EACE010E94E90566EACE0177
:100D20000E94E9056FEACE01DF91CF911F910C94EB
:100D3000E905CF93DF93EC01CB01198218827B8305
:100D40006A832CE030E03DA32CA30E94010F9FA3F7
:100D50008EA318861986DF91CF9108950895AF92DA
:100D6000BF92CF92DF92EF92FF920F931F93CF9398
:100D7000DF93EC018A819B810E94550F61E08A819B
:100D80009B810E94BE0B61E070E08A819B810E9482
:100D9000FB0E498547FF02C0198613C06F81862F5D
:100DA00090E0552747FD50959C0125503109421789
:100DB00053073CF005971CF08BEF860F01C080E0D5
:100DC000898788859985890F8A87C12CD12C5E01F6
:100DD00080E1A80EB11C2F81822F90E0C816D906A1
:100DE0000CF04BC089858C0D821708F046C06C81D1
:100DF0007D8194E1899F600D711D1124C5010E94C0
:100E0000CA178885992787FD90958C159D05D1F483
:100E10000CA11DA12EA13FA1C8010196C89EA00151
:100E2000C99E500DD89E500D112457FF02C040E0BE
:100E300050E0EE24E394F12C60E070E08A819B8125
:100E40000E94700D8CA19DA10196C89EA001C99E13
:100E5000500DD89E500D11244E5F5F4F65E070E03D
:100E60008A819B810E94F50EB5018A819B810E9437
:100E700061138FEFC81AD80AAECF8A819B81DF91A8
:100E8000CF911F910F91FF90EF90DF90CF90BF9087
:100E9000AF900C94050FBF92CF92DF92EF92FF922A
:100EA0000F931F93CF93DF93EC016B017A01B22E66
:100EB0008E8181111EC087E090E00E94FE12FC012D
:100EC00099838883D482C382F182E082B282E881EE
:100ED000F98116821582808191819C878B8782811E
:100EE0008F83838194819D838C83CE010E94AF0682
:100EF0001CC00881198187E090E00E94FE12FC016D
:100F0000D482C382F182E082B28216821582D80135
:100F100015968D919C911697009711F08C01F7CF43
:100F2000D8011696FC93EE9315978E818F5F8E8372
:100F3000DF91CF911F910F91FF90EF90DF90CF90B5
:100F4000BF900895DF92EF92FF920F931F93CF937C
:100F5000DF93EC01D62E0CA11DA1AEA1BFA1E885A7
:100F6000C80101966E2F9C016203A001639F500D82
:100F7000112457FF02C040E050E0E12CF12C9D010C
:100F800060E070E08A819B810E94700D8A819B8164
:100F90000E94050F88858D0D998587FF02C01886F0
:100FA00006C0853014F4888707C084E08887D90E8E
:100FB000D986CE010E94AF0698858985890F8A87D8
:100FC0000CA11DA1AEA1BFA1F8013196692F9F010F
:100FD0006203A001639F500D112457FF02C040E03F
:100FE00050E0EE24E394F12C9D0160E070E08A81F2
:100FF0009B810E94700D8A819B81DF91CF911F910F
:101000000F91FF90EF90DF900C94050FFC0182850B
:101010000895FC018385948508950F931F93CF93C2
:10102000DF93EC010881198101151105F9F0F80130
:101030008081918186179707A9F482818F838381AC
:1010400094819D838C8318861986CE010E94AF06F9
:101050008B859C859E878D87F801808191819C87F7
:101060008B8704C0F80105811681DECFDF91CF9117
:101070001F910F91089510925C0281E080935A02B3
:101080001092590261E082E10E94CE1061E083E19A
:101090000E94CE10E9EBF0E080818E7F808380811A
:1010A0008D7F808388E48093B80085E48093BC00C2
:1010B00008950F93413208F046C090915C0291115F
:1010C000FCCF92E090935C0200935A029FEF9093C2
:1010D000EF011092340240933302FB0165E372E0AA
:1010E000DB019A2F961B941718F491919D93F9CFD9
:1010F00010925B0290915B02880F892B80935B02B8
:1011000080915902813041F41092590280915B0222
:101110008093BB0085EC01C085EE8093BC00222348
:1011200021F080915C028230E1F38091EF018F3FEA
:1011300061F08091EF01803251F08091EF018033B6
:1011400041F483E007C081E005C080E003C082E095
:1011500001C084E00F910895613298F420915C02FF
:10116000243089F460931102FC0183E192E0DC01F8
:101170002A2F281B261718F421912D93F9CF80E0F0
:10118000089581E0089582E0089585ED8093BC0084
:101190008091BC0084FDFCCF10925C02089585EC28
:1011A0008093BC0010925C0208951F920F920FB6BC
:1011B0000F9211242F933F934F935F936F937F93DD
:1011C0008F939F93AF93BF93EF93FF938091B90059
:1011D000887F803609F49CC068F5883209F45BC0CA
:1011E00090F4803109F454C038F4882309F4F5C030
:1011F000883009F44DC0F5C0883109F44CC0803204
:1012000009F45DC0EEC0803409F468C048F480334E
:1012100009F455C0883309F0E4C08093EF01A8C0F9
:10122000803509F44FC0883509F45DC0883409F071
:10123000D8C0D5C0883909F4C6C0A8F4883709F4E5
:1012400067C038F4883609F463C0803709F460C099
:10125000C8C0883809F4B7C0803909F45FC0803845
:1012600009F0BFC05BC0803B09F485C038F4803A08
:1012700009F466C0883A09F47EC0B3C0803C09F422
:10128000A6C0883C09F4A3C0883B09F489C0A9C062
:1012900080915B0210C090913402809133029817C4
:1012A00070F5E091340281E08E0F80933402F0E01B
:1012B000EB5CFD4F80818093BB0085EC85C0809303
:1012C000EF018DC0E091340281E08E0F80933402F3
:1012D0008091BB00F0E0EB5CFD4F80839091340285
:1012E000809133026DC0E091340281E08E0F8093D3
:1012F00034028091BB00F0E0EB5CFD4F8083809175
:101300005A0281116CC081E08093590284EA60C066
:1013100083E080935C021092F001CFCF8091F001C6
:10132000803208F050C0E091F00181E08E0F809390
:10133000F0018091BB00F0E0EF50FE4F8083BDCF05
:101340008091F001803230F4E091F001F0E0EF5054
:10135000FE4F10820E94C5086091F00170E0E0919C
:101360005502F091560281EF91E009951092F0013B
:101370000E94CF0836C084E080935C021092120273
:1013800010921102E0915702F09158020995809154
:101390001102811105C081E08093110210921302A5
:1013A000E091120281E08E0F80931202F0E0ED5E78
:1013B000FD4F80818093BB009091120280911102B9
:1013C000981708F47ACF85E88093BC000AC085ECB2
:1013D0008093BC0010925C0204C01092EF010E9446
:1013E000C508FF91EF91BF91AF919F918F917F9130
:1013F0006F915F914F913F912F910F900FBE0F9082
:101400001F90189580918D0290E020918E02821B92
:101410009109089520918E0280918D02281750F431
:10142000E22FF0E0E157FD4F808190E02F5F2093A5
:101430008E0208958FEF9FEF0895E0918E028091C4
:101440008D02E81730F4F0E0E157FD4F808190E025
:1014500008958FEF9FEF08950895CF92DF92EF9256
:10146000FF920F931F93CF93DF937C01CB018A01EF
:1014700020916902222389F0EB016B01C40ED51E75
:10148000CC15DD0569F06991D701ED91FC910190D2
:10149000F081E02DC7010995F3CF642F0E94AC08BD
:1014A000C801DF91CF911F910F91FF90EF90DF90D6
:1014B000CF900895CF93DF931F92CDB7DEB76983A6
:1014C000209169022223D1F020916A02203240F05B
:1014D00021E030E0FC013383228380E090E015C0FE
:1014E00080916B02E82FF0E0E459FD4F99819083E1
:1014F0008F5F80936B0280936A0205C061E0CE012A
:1015000001960E94AC0881E090E00F90DF91CF91AE
:101510000895FC011382128248EE53E060E070E00F
:1015200044835583668377838AE491E09183808343
:10153000089510928E0210928D0210926B021092FA
:101540006A020C943B0881E08093690260938C02EC
:1015500010926B0210926A0208950F93062F21E0F9
:1015600040916A026CE672E080918C020E945908F8
:1015700010926B0210926A02109269020F91089504
:1015800061E00C94AD0A8DE592E00C94890AFC01AF
:1015900060832AE030E03683258308950895FC01B6
:1015A00080810C94A815BF92CF92DF92EF92FF92A8
:1015B0000F931F93CF93DF93EC0169017A01B12C54
:1015C0008AE0869F8001879F100D1124EB2DF0E0AB
:1015D0008D819E81E817F907D4F4E00FF11FEE0F1B
:1015E000FF1FEB56FE4F65917491161617067CF49B
:1015F00020E030E0A90188810E947913C701B6017B
:101600000E94DA0FCE010E94CF0AB394DFCFDF91A0
:10161000CF911F910F91FF90EF90DF90CF90BF90EF
:101620000895FC01862F608361E00C949510089565
:10163000FC0161830895CF93DF93EC0164E004968D
:101640000E94E2051B821A828AE591E099838883D1
:1016500020E830E03A87298780E490E09C878B87F8
:101660003E872D87988B8F87DF91CF9108952AE54C
:1016700031E0FC013183208308954CE362E004965D
:101680000C940006FC01CA0177FD77C0458556859C
:10169000461757070CF471C097FD6FC047855089F6
:1016A000481759070CF469C0428D423009F05AC0FE
:1016B00041855285DA01A61BB70BBD016150710946
:1016C00043855485FA01E81BF90BCF0101970AC045
:1016D000413041F441855285481B590BCB01BA0179
:1016E00061507109FC0121303105E9F497FD37960D
:1016F00043E0F595E7954A95E1F7F695FE2FEE273D
:10170000F795E795E60FF71FE155FD4F68E070E0AC
:101710000E942E1621E030E001C0220F8A95EAF7E0
:101720008081822B1DC097FD379623E0F595E795C4
:101730002A95E1F7F695FE2FEE27F795E795E60F48
:10174000F71FE155FD4F68E070E00E942E1621E082
:1017500030E001C0220F8A95EAF72095808182232C
:1017600080830895433009F0B3CF43855485461BE9
:10177000570BBC01CA010197B5CF0895611101C093
:1017800061E0FC01618F08952F923F924F925F922A
:101790006F927F928F929F92AF92BF92CF92DF9281
:1017A000EF92FF920F931F93CF93DF9300D000D05F
:1017B00000D0CDB7DEB77C016B015A013E832D838B
:1017C00044244394512C421A530A19013194219410
:1017D0003108220C331CA9014A0D5B1D9801B6018A
:1017E0000E94420BA5016D817E81461B570B98011B
:1017F000B601C7010E94420B6D817E816C0D7D1D7B
:101800009801A501C7010E94420BB6018D819E81FE
:10181000681B790B9801A501C7010E94420B612C3E
:10182000712C8D819E81681679060CF070C057FC72
:101830000AC0ED81FE813197FE83ED83F2E02F0E29
:10184000311C420C531C6FEF661A760AC301880FD5
:10185000991F0196480E591EC3018C0D9D1D9C8336
:101860008B8398018D809E808A0C9B1CA401BC01F7
:10187000C7010E94420BF601E619F709FA83E983D2
:101880009801A401BF01C7010E94420B98014501C4
:101890006D817E81861A970AA4016B817C81C701C4
:1018A0000E94420B9801A40169817A81C7010E94BC
:1018B000420B43018A0C9B1C9801A4018D819E81DF
:1018C0008C0D9D1D9C838B83BC01C7010E94420B24
:1018D0009801A401F6016D817E81E61BF70BFA8366
:1018E000E983BF01C7010E94420B45018618970892
:1018F0009801A4016B817C81C7010E94420B980171
:10190000A40169817A81C7010E94420B8ACF269681
:101910000FB6F894DEBF0FBECDBFDF91CF911F9100
:101920000F91FF90EF90DF90CF90BF90AF909F907E
:101930008F907F906F905F904F903F902F90089581
:101940002F923F924F925F926F927F928F929F92CF
:10195000AF92BF92CF92DF92EF92FF920F931F93BD
:10196000CF93DF9300D000D0CDB7DEB73C017C83AE
:101970006B836A015901FA82E9829801241B350BB5
:1019800037FF03C0319521953109C5014B815C8139
:10199000841B950B97FF03C0919581959109222493
:1019A0002394312C8217930714F0212C312C21140D
:1019B000310459F09A2D8B2D5801092F182F9B8136
:1019C0008C81DC82CB82C92ED82E8B819C81A8167B
:1019D000B9065CF49C2D8D2D6801092F182F9B8171
:1019E0008C81BC82AB82A92EB82E2501EB81FC81B3
:1019F0004E1A5F0A48018C189D0897FE03C0919407
:101A000081949108720157FE03C0FFEFEF1AFF0A9D
:101A1000F594E794C016D1061CF401E010E01CC058
:101A20000FEF1FEF19C029813A8121143104D1F041
:101A30004B815C81B601C3010E94420BE818F90892
:101A4000F7FE04C0C00ED11EE40CF51C4B815C8176
:101A50004F5F5F4F5C834B838B819C81A816B906D7
:101A600014F704C0A6016B817C81E5CF0F900F9025
:101A70000F900F90DF91CF911F910F91FF90EF90FA
:101A8000DF90CF90BF90AF909F908F907F906F909E
:101A90005F904F903F902F900895EF92FF920F9399
:101AA0001F93240F351F21503109780189019B01B3
:101AB0000E94A00C1F910F91FF90EF900895EF925C
:101AC000FF920F931F93260F371F21503109780182
:101AD0008A010E94A00C1F910F91FF90EF90089532
:101AE0006F927F928F929F92AF92BF92CF92DF922E
:101AF000EF92FF920F931F93CF93DF93EC015B0163
:101B00006A014901380187010E945F0DA601460D57
:101B1000571D415051099401B501CE010E945F0D3E
:101B20009301A601B501CE010E944D0DB501680DCE
:101B3000791D615071099301A601CE010E944D0DDE
:101B4000DF91CF911F910F91FF90EF90DF90CF9099
:101B5000BF90AF909F908F907F906F9008956F92FD
:101B60007F928F929F92AF92BF92CF92DF92EF922D
:101B7000FF920F931F93CF93DF935C014A0169019A
:101B80003801EB01C60ED71ECC15DD054CF48701DC
:101B90009301A401BE01C5010E944D0D2196F4CF11
:101BA000DF91CF911F910F91FF90EF90DF90CF9039
:101BB000BF90AF909F908F907F906F9008952F92DD
:101BC0003F924F925F926F927F928F929F92AF92CD
:101BD000BF92CF92DF92EF92FF920F931F93CF931A
:101BE000DF93CDB7DEB72C970FB6F894DEBF0FBEEC
:101BF000CDBF5C011A0118870F83FA86E986CD8272
:101C0000DC011D968D919C911E97681779070CF049
:101C10007FC01F968D919C915097481759070CF0E3
:101C200077C04C2C512CCB01B6E0CB9E800D911D82
:101C30001124181619060CF06BC0C20113E0880FAE
:101C4000991F1A95E1F7840F951F181619060CF0C5
:101C50005FC0A5E02A9FC00111247C876B876B01C0
:101C60001C8283549E4F861B970B9A838983BC8169
:101C7000B53049F0E981FA812B853C85E20FF31FED
:101C800034913B8301C01B82310141011E824B8193
:101C900040FF09C08D81813019F42F8138850EC035
:101CA000EF80F88414C0A985BA85EF81F885AE1756
:101CB000BF07A1F0FD81F13041F49D01A4016B85C6
:101CC0007C85C5010E94420B09C0E984FA84820127
:101CD0009201A301B601C5010E94AF0D2B8126958B
:101CE0002B833E813F5F3E83640C751C4FEF841A4B
:101CF000940A383061F68C818F5F8C83C40CD51CBC
:101D0000AB85BC851196BC87AB87863009F0AFCF19
:101D10002C960FB6F894DEBF0FBECDBFDF91CF91EA
:101D20001F910F91FF90EF90DF90CF90BF90AF90F9
:101D30009F908F907F906F905F904F903F902F90EB
:101D40000895CF92EF92FF920F931F93CF93DF935B
:101D5000EC01262F6A3049F4298D8B899C8938E063
:101D6000239F800D911D112432C06D30A1F1EF88A9
:101D7000F88C0D891E894B895C8969897A89C98C9F
:101D80000E94DF0D298D422F50E089899A8936E023
:101D9000239F800D911D11249A8B898B2B8D2223DB
:101DA000D1F06AEF64039001659F300D11246D85B9
:101DB0007E85260F371F281739076CF403E0440F80
:101DC000551F0A95E1F78B899C89840F951F9C8B81
:101DD0008B8B1A8A198A81E090E0DF91CF911F9155
:101DE0000F91FF90EF90CF900895FC01728B618B63
:101DF000548B438B0895FC01708F678B768B658BBA
:101E00000895FC01858596850895DF92EF92FF92F3
:101E10000F931F93CF93DF937C01EC01249660E036
:101E2000CE010E94E90560E1CE010E94E90560E46F
:101E3000CE010E94E905D090B8008CE08093B800F4
:101E4000CFEAD2E0F70164818DE592E00E94A30A17
:101E5000E0915D02F0915E020190F081E02D60E47E
:101E60008DE592E0099500E010E0FE01E00FF11F22
:101E700060818DE592E00E945A0A0F5F1F4F00318A
:101E8000110599F78DE592E00E94C00A6096F6E090
:101E9000CF3ADF07B9F6D092B800DF91CF911F910A
:101EA0000F91FF90EF90DF90089520E034E0EFEA8B
:101EB000F2E0DF01A9011D9241505040E1F70C947E
:101EC000050F1F920F920FB60F9211242F933F937D
:101ED0008F939F93AF93BF938091B0069091B1067B
:101EE000A091B206B091B3063091AF0623E0230F64
:101EF0002D3720F40196A11DB11D05C026E8230F42
:101F00000296A11DB11D2093AF068093B006909359
:101F1000B106A093B206B093B3068091B406909137
:101F2000B506A091B606B091B7060196A11DB11DE8
:101F30008093B4069093B506A093B606B093B70607
:101F4000BF91AF919F918F913F912F910F900FBEB5
:101F50000F901F9018952FB7F8946091B00670916C
:101F6000B1068091B2069091B3062FBF08953FB796
:101F7000F8948091B4069091B506A091B606B09100
:101F8000B70626B5A89B05C02F3F19F00196A11DE5
:101F9000B11D3FBF6627782F892F9A2F620F711DC1
:101FA000811D911D42E0660F771F881F991F4A957A
:101FB000D1F708958F929F92AF92BF92CF92DF9206
:101FC000EF92FF926B017C010E94B70F4B015C0105
:101FD000C114D104E104F104F1F00E9419160E9429
:101FE000B70F681979098A099B09683E7340810512
:101FF000910570F321E0C21AD108E108F10888EEDA
:10200000880E83E0981EA11CB11CC114D104E10408
:10201000F10429F7DDCFFF90EF90DF90CF90BF90D4
:10202000AF909F908F900895789484B5826084BD1E
:1020300084B5816084BD85B5826085BD85B58160CC
:1020400085BDEEE6F0E0808181608083E1E8F0E02C
:102050001082808182608083808181608083E0E85B
:10206000F0E0808181608083E1EBF0E0808184603A
:102070008083E0EBF0E0808181608083EAE7F0E03C
:1020800080818460808380818260808380818160A0
:1020900080838081806880831092C10008958E3093
:1020A00008F08E5087702091360190E4299F9001AE
:1020B0001124822B80937C0080917A00806480932D
:1020C0007A0080917A0086FDFCCF80917800209183
:1020D000790090E0922B0895833081F028F48130CC
:1020E00099F08230A1F008958730A9F08830B9F0D6
:1020F0008430D1F4809180008F7D03C08091800076
:102100008F7780938000089584B58F7702C084B55F
:102110008F7D84BD08958091B0008F7703C080913A
:10212000B0008F7D8093B0000895CF93DF9390E04F
:10213000FC01E453F94F2491FC01E052F94F8491E2
:10214000882349F190E0880F991FFC01E250F94F74
:10215000A591B4918C50994FFC01C591D4919FB732
:10216000611108C0F8948C91209582238C9388810A
:1021700082230AC0623051F4F8948C91322F30954A
:1021800083238C938881822B888304C0F8948C915C
:10219000822B8C939FBFDF91CF9108950F931F9354
:1021A000CF93DF931F92CDB7DEB7282F30E0F90130
:1021B000E854F94F8491F901E453F94F1491F9016E
:1021C000E052F94F04910023C9F0882321F069837C
:1021D0000E946C106981E02FF0E0EE0FFF1FEC50C1
:1021E000F94FA591B4919FB7F8948C91611103C0F8
:1021F0001095812301C0812B8C939FBF0F90DF919D
:10220000CF911F910F910895FC01818D228D90E057
:10221000805C9F4F821B91098F7399270895FC0161
:10222000918D828D981731F0828DE80FF11D858D8B
:1022300090E008958FEF9FEF0895FC01918D828DBE
:10224000981761F0828DDF01A80FB11D5D968C910A
:10225000928D9F5F9F73928F90E008958FEF9FEF15
:10226000089581EA92E1892B49F080E090E0892B82
:1022700029F00E94A11281110C9400000895FC0124
:10228000848DDF01A80FB11DA35ABF4F2C91848DFF
:1022900090E001968F739927848FA689B7892C9334
:1022A000A089B1898C9180648C93938D848D9813CF
:1022B00006C00288F389E02D80818F7D8083089598
:1022C000CF93DF93EC01888D8823C9F0EA89FB89DD
:1022D000808185FD05C0A889B9898C9186FD0FC0D4
:1022E0000FB607FCF5CF808185FFF2CFA889B989A9
:1022F0008C9185FFEDCFCE010E943F11E7CFDF919A
:10230000CF910895CF92DF92FF920F931F93CF93B7
:10231000DF931F92CDB7DEB76C0181E0D6015896EE
:102320008C9358975B969C915B975C968C915C978D
:10233000981307C05096ED91FC915197808185FDCF
:102340002EC0F601038D10E00F5F1F4F0F73112792
:10235000F02EF601848DF81211C00FB607FCF9CFEC
:10236000D6015096ED91FC915197808185FFF1CF78
:10237000C60169830E943F116981EBCF838DE80F0D
:10238000F11DE35AFF4F6083D6015B960C935B9778
:102390005296ED91FC915397808180620CC0D601DA
:1023A0005696ED91FC91579760835096ED91FC9174
:1023B000519780818064808381E090E00F90DF916D
:1023C000CF911F910F91FF90DF90CF900895BF9212
:1023D000CF92DF92EF92FF92CF93DF93EC016A01ED
:1023E0007B01B22EE889F98982E08083411581EE74
:1023F000580761057105A1F060E079E08DE390E098
:10240000A70196010E944216215031094109510944
:102410005695479537952795211580E1380798F00F
:10242000E889F989108260E874E88EE190E0A701FC
:1024300096010E94421621503109410951095695D1
:10244000479537952795EC85FD853083EE85FF858B
:102450002083188EEC89FD89B082EA89FB8980810E
:1024600080618083EA89FB89808188608083EA8932
:10247000FB89808180688083EA89FB8980818F7DE8
:102480008083DF91CF91FF90EF90DF90CF90BF904E
:1024900008951F920F920FB60F9211242F938F93CE
:1024A0009F93EF93FF93E091C806F091C906808156
:1024B000E091CE06F091CF0682FD12C0908180910E
:1024C000D1068F5F8F732091D206821751F0E09171
:1024D000D106F0E0E854F94F958F8093D10601C002
:1024E0008081FF91EF919F918F912F910F900FBE5F
:1024F0000F901F9018951F920F920FB60F921124F4
:102500002F933F934F935F936F937F938F939F93FB
:10251000AF93BF93EF93FF9388EB96E00E943F1138
:10252000FF91EF91BF91AF919F918F917F916F91AB
:102530005F914F913F912F910F900FBE0F901F9081
:10254000189588EB96E00E94041121E0892B09F48C
:1025500020E0822F08951092BB061092BA0688EEF2
:1025600093E0A0E0B0E08093BC069093BD06A093FA
:10257000BE06B093BF0682E691E09093B9068093C1
:10258000B80685EC90E09093C5068093C40684EC71
:1025900090E09093C7068093C60680EC90E09093FD
:1025A000C9068093C80681EC90E09093CB06809397
:1025B000CA0682EC90E09093CD068093CC0686EC20
:1025C00090E09093CF068093CE061092D1061092A1
:1025D000D2061092D3061092D406089508950E9450
:1025E00014100E94EE120E94A004C1E3D1E10E94E7
:1025F000E0042097E1F30E943111F9CF0C94A31667
:10260000CF92DF92EF92FF920F931F93CF93DF93BE
:102610007C016A01EB0100E010E00C151D0571F072
:102620006991D701ED91FC910190F081E02DC701F6
:102630000995892B19F00F5F1F4FEFCFC801DF916C
:10264000CF911F910F91FF90EF90DF90CF90089561
:102650006115710581F0DB010D900020E9F7AD01F6
:1026600041505109461B570BDC01ED91FC91028052
:10267000F381E02D099480E090E00895EF92FF92BD
:102680000F931F93CF93DF938C017B01C0E0D0E0C9
:10269000F701EC0FFD1F6491662359F0F801A0814A
:1026A000B181ED91FC91C8010995892B11F021961A
:1026B000EFCFCE01DF91CF911F910F91FF90EF905F
:1026C00008950C9428136EE671E00C9428130F9370
:1026D0001F93CF93DF93EC010E943E138C01CE0138
:1026E0000E946313800F911FDF91CF911F910F9173
:1026F00008953F924F925F926F927F928F929F9236
:10270000AF92BF92CF92DF92EF92FF920F931F93FF
:10271000CF93DF9300D000D0CDB7DEB78B01290176
:102720003A0190913701981721F09F3F09F0DAC1E3
:1027300004C0E8E0F7E0349081C080933701E8E01E
:10274000F7E0E491EF3F09F4CDC1E13031F1E2303F
:1027500009F44BC0E11171C014BC15BC94B5926072
:1027600094BD95B5916095BD282F30E0F901E052F8
:10277000F94FE491F0E0EE0FFF1FEC50F94F459157
:1027800054915093650740936407F901E453F94F5E
:10279000249120936307312C53C010928000109233
:1027A00081009091810098609093810090918100C8
:1027B000916090938100282F30E0F901E052F94FA9
:1027C000E491F0E0EE0FFF1FEC50F94F459154916A
:1027D00050935E0740935D07F901E453F94F24914C
:1027E00020935C07332433942BC01092B0001092D6
:1027F000B1009091B00092609093B0009091B100C0
:1028000091609093B100282F30E0F901E052F94F28
:10281000E491F0E0EE0FFF1FEC50F94F4591549119
:102820005093570740935607F901E453F94F249109
:102830002093550752E0352E03C03E2E37FC52C17F
:1028400061E00E9495104801A12CB12C832D8D7F51
:1028500009F0C7C060E072E18AE790E0A501940149
:102860000E94641629833A834B835C8369017A0151
:1028700081E0C81AD108E108F1089FEFC916D10418
:10288000E104F10409F008F49AC060E472E48FE016
:1028900090E0A50194010E94641669017A01E1E0CB
:1028A000CE1AD108E108F108F2E03F1219C08FEF0B
:1028B000C816D104E104F10409F008F48AC060E903
:1028C00070ED83E090E0A50194010E946416690117
:1028D0007A0191E0C91AD108E108F10883E001C04A
:1028E00082E0EFEFCE16D104E104F10409F008F420
:1028F00067C068E478EE81E090E0A50194010E9451
:10290000641669017A01F1E0CF1AD108E108F108F3
:102910003320E1F082E038121BC09FEFC916D104CA
:10292000E104F10409F008F4DBC064E274EF80E034
:1029300090E0A50194010E94641669017A01E1E02A
:10294000CE1AD108E108F10885E003C083E001C098
:1029500084E0FFEFCF16D104E104F10489F180F1A6
:1029600062E17AE780E090E0A50194010E9464169C
:1029700069017A0181E0C81AD108E108F108311033
:1029800002C084E001C086E09FEFC916D104E104D3
:10299000F104B1F0A8F0C980DA80EB80FC809AE005
:1029A000F594E794D794C7949A95D1F7E1E0CE1ABD
:1029B000D108E108F108332031F087E00BC081E055
:1029C000332011F007C085E095B5987F982B95BD11
:1029D00038C082E09091B100987F982B9093B1001D
:1029E00030C060E072E18AE790E0A50194010E94A6
:1029F000641669017A01F1E0CF1AD108E108F10803
:102A0000C114D10481E0E806F10488F068E478EEAE
:102A100081E090E0A50194010E94641669017A01A9
:102A200091E0C91AD108E108F10893E001C091E0F2
:102A3000E1E03E1206C080918100887F892B80935F
:102A40008100411451046104710471F0D801AA0F8E
:102A5000BB1FA30192010E94831628EE33E040E0E1
:102A600050E00E94421603C02FEF3FEFA901F1E0B2
:102A70003F16A1F082E0381619F1311033C0C7BCFF
:102A80002093660730936707409368075093690760
:102A900080916E00826080936E0024C0D092890085
:102AA000C092880020935F073093600740936107CE
:102AB0005093620780916F00826080936F0012C014
:102AC000C092B300209358073093590740935A0798
:102AD00050935B078091700082608093700002C009
:102AE00084E078CF0F900F900F900F90DF91CF91EF
:102AF0001F910F91FF90EF90DF90CF90BF90AF901C
:102B00009F908F907F906F905F904F903F9008952F
:102B1000813039F018F0823051F0089510926E0033
:102B2000089580916F008D7F80936F00089580914C
:102B300070008D7F8093700081E08093B000809161
:102B4000B100887F84608093B1001092B300089533
:102B5000CF93C82F809137018C1307C0E8E0F7E0CE
:102B600084919FEF9093370101C08FEF0E948815E9
:102B700060E08C2FCF910C94CE101F920F920FB665
:102B80000F9211242F933F934F935F936F937F93F3
:102B90008F939F93AF93BF93EF93FF9380915807C9
:102BA00090915907A0915A07B0915B07892B8A2B06
:102BB0008B2B51F190915507E0915607F0915707F3
:102BC0008081892780838091580790915907A0912F
:102BD0005A07B0915B07181619061A061B06C4F4AB
:102BE0008091580790915907A0915A07B0915B07BF
:102BF0000197A109B1098093580790935907A093B1
:102C00005A07B0935B0704C0809137010E94A81552
:102C1000FF91EF91BF91AF919F918F917F916F91B4
:102C20005F914F913F912F910F900FBE0F901F908A
:102C300018950895AA1BBB1B51E107C0AA1FBB1F13
:102C4000A617B70710F0A61BB70B881F991F5A9538
:102C5000A9F780959095BC01CD01089597FB072EAB
:102C600016F4009407D077FD09D00E941A1607FCCD
:102C700005D03EF4909581959F4F0895709561958C
:102C80007F4F0895A1E21A2EAA1BBB1BFD010DC0A8
:102C9000AA1FBB1FEE1FFF1FA217B307E407F5070C
:102CA00020F0A21BB30BE40BF50B661F771F881FE8
:102CB000991F1A9469F760957095809590959B017E
:102CC000AC01BD01CF010895052E97FB1EF40094C1
:102CD0000E947B1657FD07D00E94421607FC03D0C6
:102CE0004EF40C947B1650954095309521953F4FAE
:102CF0004F4F5F4F089590958095709561957F4FE8
:102D00008F4F9F4F08950E949416A59F900DB49FDA
:102D1000900DA49F800D911D11240895EE0FFF1FAB
:102D20000590F491E02D0994A29FB001B39FC001DA
:102D3000A39F700D811D1124911DB29F700D811DE7
:102D40001124911D0895CF93DF938230910510F4E3
:102D500082E090E0E0916C07F0916D0720E030E0B8
:102D6000A0E0B0E0309739F1408151814817590710
:102D7000B8F04817590771F482819381109729F0B0
:102D800013969C938E9312972CC090936D0780930B
:102D90006C0727C02115310531F04217530718F091
:102DA000A901DB0101C0EF019A01BD01DF01028031
:102DB000F381E02DD7CF21153105F9F0281B390B10
:102DC0002430310580F48A819B816115710521F0E1
:102DD000FB019383828304C090936D0780936C07FB
:102DE000FE01329644C0FE01E20FF31F81939193DE
:102DF00022503109398328833AC020916A073091E3
:102E00006B07232B41F42091020130910301309391
:102E10006B0720936A072091000130910101211571
:102E2000310541F42DB73EB74091040150910501A1
:102E3000241B350BE0916A07F0916B07E217F3074B
:102E4000A0F42E1B3F0B2817390778F0AC014E5F1A
:102E50005F4F2417350748F04E0F5F1F50936B07E5
:102E600040936A078193919302C0E0E0F0E0CF01C4
:102E7000DF91CF910895CF93DF93009709F487C036
:102E8000FC01329713821282C0916C07D0916D07BA
:102E9000209781F420813181280F391F80916A07A2
:102EA00090916B078217930779F5F0936B07E09386
:102EB0006A076DC0DE0120E030E0AE17BF0750F4B6
:102EC00012964D915C9113979D014115510509F1A1
:102ED000DA01F3CFB383A28340815181840F951F20
:102EE0008A179B0771F48D919C911197840F951F00
:102EF00002969183808312968D919C911397938370
:102F000082832115310529F4F0936D07E0936C0756
:102F10003EC0D9011396FC93EE9312974D915D91AB
:102F2000A40FB51FEA17FB0779F480819181840F04
:102F3000951F0296D90111969C938E93828193815D
:102F400013969C938E931297E0E0F0E08A819B8128
:102F5000009719F0FE01EC01F9CFCE01029628810D
:102F60003981820F931F20916A0730916B072817D0
:102F7000390769F4309729F410926D0710926C07A5
:102F800002C013821282D0936B07C0936A07DF914D
:102F9000CF910895FB01DC0105900D920020E1F72F
:102FA000089517E0C0E1D7E004C0FE010E9490162A
:0C2FB0002296C231D107C9F7F894FFCF78
:102FBC0000006E0780002C011504EB03F103F703EE
:102FCC00FD030304D9037B050904DF03E503B30305
:102FDC00B803BD03B303B803CB03140010001500F2
:102FEC0011000E000F0001FF44524157205348417D
:102FFC0050452E2E2E00000000005A0A2D0A020AFF
:10300C000A0A1D0A2C0A00000000A10E0013000081
:10301C0000008211001304111D110F1160110D0A13
:0E302C00006E616E00696E66006F76660000D1
:00000001FF
